:100000000EEF00F00000000000EF00F00000000024
:0A0010000000000000000000F3D71C
:10001C009390959295948180020E0B6E040E0C6E4B
:10002C00BA0E0D6E0D2EFED70C2EFCD70B2EFAD75A
:10003C00000081908382020E0B6E040E0C6EBA0EC1
:10004C000D6E0D2EFED70C2EFCD70B2EFAD7000002
:10005C0083928384020E0B6E040E0C6EBA0E0D6E20
:10006C000D2EFED70C2EFCD70B2EFAD70000839446
:04007C00D2D7FFD701
:020000040030CA
:0E000000000B1F1EFF8381FF0FC00FE00F409B
:00000001FF
