:020000003B289B
:10000800FF00030E8301A3000A08A4008A018B1CC9
:100018001528FF30200203181328A00A8B10200887
:10002800870024088A00230E8300FF0E7F0E090034
:0E0038008312031322088A00210882000800A8
:100046001C208A110A128000840AA10A0319A20A36
:08005600F003031D232808003C
:08005E008B100B168B17080034
:1000660083160313870106148312200887000800ED
:0E00760083120313A00133202F2040284128BD
:02400E00492F38
:00000001FF
