:10000000EDEF29F00000000000EF00F0000000001C
:0A0010000000000000000000F3D71C
:08001C000AAE029E000E120064
:100024000B840BAE1DEF00F0010E036E026A016A31
:0A003400006A0A360232FF0E1200C5
:0E003E00026A016A006A086A036A000E120074
:10004C000B820BAE30EF00F00368026801680068A9
:08005C000A360232FF0E120009
:100064000CB074EF00F00CA21AEF01F00E6A000E4F
:1000740002648BEF00F0F00E0214D8A456EF00F0E7
:10008400023A01380F0B02260138F00B016E0038DA
:100094000F0B01260038F00B006E08380F0B0026FA
:1000A4000838F00B086E0E84D89002BE6FEF00F093
:1000B40008360036013602360E2A02BE6FEF00F013
:1000C40008360036013602360E2A02BE6FEF00F003
:1000D40008360036013602360E2A0E50036410EF3D
:1000E40001F0035E0BBC08AE15EF01F0D880800E62
:1000F40008640030000E002201220222D8A015EF6D
:1001040001F0023201320032034A1AEF01F015EF16
:1001140001F001C002F000C001F008C000F0086A5C
:10012400000E0E860264C2EF00F0F00E0214D8A492
:10013400AAEF00F0023A01380F0B02260138F00B47
:10014400016E00380F0B01260038F00B006E0E8490
:10015400D89002BE6FEF00F00036013602360E2A48
:1001640002BE6FEF00F00036013602360E2A02BEE0
:100174006FEF00F00036013602360E2A6FEF00F002
:1001840001C002F000C001F0006A000E0E960E8855
:100194000264EFEF00F0F00E0214D8A4DAEF00F0DE
:1001A400023A01380F0B02260138F00B016E0E845F
:1001B400D89002BE6FEF00F0013602360E2A02BE5E
:1001C4006FEF00F0013602360E2A02BE6FEF00F028
:1001D400013602360E2A6FEF00F001C002F0016A08
:1001E400000E0E8602641FEF01F0F00E0214D8A474
:1001F400FEEF00F0023A0E84D89002BE6FEF00F0DA
:1002040002360E2A02BE6FEF00F002360E2A02BE3C
:100214006FEF00F002360E2A6FEF00F0010E0C6E45
:10022400FFDE22EF01F0020E0C6EF6DE22EF01F08B
:10023400040E0C6E09DF22EF01F0080E0C6EFDDED9
:020244001200A6
:100246000D6A086A0050D8B4000C04180A6E0ABE7B
:100256000D1E0B6A04AE02D0041E042A00AE02D0A4
:10026600001E002A005004100A6E0ABE1FD0045059
:10027600085E003600340836045008260036060E9E
:100286000C6E00340836045000B0085E00A0082644
:1002960000360C2EF6D700A008260BB015D00DAEF2
:1002A600000C001E002A081E082A000C04AE09D005
:1002B60000BE04D00050086E006AF1D7006A002A1A
:1002C600000C001E0B2AD3D7082A0450085CD8A4B9
:0E02D600E6D7086A002A00AEE2D7FF0C12003D
:1002E4000134083609360450085E0550D8A0053C90
:1002F400095E003601360F0E0C6E013408360936DD
:10030400045000A006D0085E0550D8A0053C095E44
:1003140005D008260550D8B0053C0926003601361C
:100324000C2EEBD700B006D0045008260550D8B0E8
:08033400053C0926000012003F
:10033C00086A080E0C6E003408360450085ED8B0FB
:0E034C0002D00826D89000360C2EF5D71200ED
:10035A00086A096A000E0762036432EF02F002506B
:10036A0006180A6E075003267E0ED8A0C3EF01F0C6
:10037A00035ED8B036EF02F0C7EF01F0035ED8A0F3
:10038A003AEF02F0028E068E02C00EF001C00BF0A8
:10039A0000C00DF000500402F4CF0CF00150050229
:1003AA00F4CF00F0F3CF08F00402F3500C26F45017
:1003BA000822000E00220D500502F3500C26F450BC
:1003CA000822000E002202500402F3500826F450BC
:1003DA00002202500502016A000E0122F350002693
:1003EA00F45001220D500602F3500826F450002260
:1003FA00026A000E012202220B500602F350002666
:10040A00F4500122000E02220E500602F350012679
:10041A00F450022202BE1AEF02F008360036013604
:10042A0002360306D8B43AEF02F02DEF02F0D88074
:10043A00800E08640030000E002201220222D8A099
:10044A002DEF02F0023201320032034A36EF02F097
:10045A000AAE029E000E3CEF02F0010EEBDD3CEF0D
:10046A0002F0020EEEDD3CEF02F0040ED6DD1200C1
:10047A00025006180E6E086A096A0B6A035007646E
:10048A0030EF03F006500A6E068E028E03500B6E92
:10049A000750036E000E0B6480EF02F00B50075EEC
:1004AA00D8B421EF03F0070E0764EFEF02F0075EFE
:1004BA0000C008F001C000F002C001F0026A074E55
:1004CA0021EF03F00764C4EF02F0075E00C008F0F2
:1004DA0001C000F0016A074E21EF03F00764A2EFA2
:1004EA0002F0075E00C008F0006A074E21EF03F031
:1004FA00076489EF02F00AC002F005C001F004C0E7
:10050A0000F0086A4DEF04F0030E076494EF02F05E
:10051A00075E08380F0B086E074E21EF03F0D890DC
:10052A000832074E21EF03F0D8900832074E21EF28
:10053A0003F0D890083221EF03F0030E0764B3EFFB
:10054A0002F0075E08380F0B086E0038F00B082619
:10055A0000380F0B006E074E21EF03F0D8900032DF
:10056A000832074E21EF03F0D89000320832074EC6
:10057A0021EF03F0D8900032083221EF03F0030E86
:10058A000764DBEF02F0075E08380F0B086E0038CD
:10059A00F00B082600380F0B006E0138F00B00260E
:1005AA0001380F0B016E074E21EF03F0D89001328C
:1005BA0000320832074E21EF03F0D89001320032A0
:1005CA000832074E21EF03F0D89001320032083288
:1005DA0021EF03F0030E07640CEF03F0075E0838FF
:1005EA000F0B086E0038F00B082600380F0B006E50
:1005FA000138F00B002601380F0B016E0238F00BA0
:10060A00012602380F0B026E074E21EF03F0D89035
:10061A000232013200320832074E21EF03F0D8903D
:10062A000232013200320832074E21EF03F0D8902D
:10063A000232013200320832096A000E0EAE15EF9C
:10064A0004F0081E001E011E021E082A00220122B2
:10065A00022215EF04F00750D8A436EF03F04DEF4D
:10066A0004F0096A02C00AF0028E068E0750035C83
:10067A00076ED8B408EF04F0070E0764D6EF03F04C
:10068A00075E0450096E0550046E0650056E066A30
:10069A00074E08EF04F0070E0764ABEF03F0075E9E
:1006AA000450096E0550046E056A074E08EF04F0FF
:1006BA00070E076489EF03F0075E0450096E046AA7
:1006CA00074E08EF04F0070E076470EF03F00AC044
:1006DA0002F04DEF04F0030E07647BEF03F0075EB0
:1006EA0009380F0B096E074E08EF04F0D89009324B
:1006FA00074E08EF04F0D8900932074E08EF04F0CD
:10070A00D890093208EF04F0030E07649AEF03F059
:10071A00075E09380F0B096E0438F00B09260438F6
:10072A000F0B046E074E08EF04F0D890043209321A
:10073A00074E08EF04F0D89004320932074E08EF4A
:10074A0004F0D8900432093208EF04F0030E07646B
:10075A00C2EF03F0075E09380F0B096E0438F00B7D
:10076A00092604380F0B046E0538F00B04260538E9
:10077A000F0B056E074E08EF04F0D89005320432CD
:10078A000932074E08EF04F0D890053204320932D4
:10079A00074E08EF04F0D89005320432093208EF08
:1007AA0004F0030E0764F3EF03F0075E09380F0B3A
:1007BA00096E0438F00B092604380F0B046E05384D
:1007CA00F00B042605380F0B056E0638F00B0526CC
:1007DA0006380F0B066E074E08EF04F0D890063263
:1007EA00053204320932074E08EF04F0D890063277
:1007FA00053204320932074E08EF04F0D890063267
:10080A00053204320932086A000E0EAE15EF04F002
:10081A00091E041E051E061E092A04220522062296
:10082A0009500826045000220550012206500222CF
:10083A000EBE2CEF04F0D8A03BEF04F002320132D6
:10084A0000320832033E3BEF04F047EF04F0D8B021
:10085A0041EF04F0000E081E001E011E021E082AA7
:10086A000022012202220A7E41EF04F0010E0C6EE0
:10087A0032EC00F04FEF04F0020E0C6E32EC00F096
:10088A004FEF04F0040E0C6E26EC00F04FEF04F06C
:06089A00000E0C6E1200BE
:1008A0000B800BAE5CEF04F0026A0AAEFF0E026E24
:0C08B000016E006E0A360232FF0E1200CC
:0808BC000B6A0B86FF0E12000F
:1008C40003500718D8A476EF04F002500618D8A4F1
:1008D40076EF04F001500518D8A476EF04F0005028
:0E08E4000418D8B4D8841200D8941200120060
:1008F2002DD00201E887010E0301C827000EC9238B
:10090200CA2361D00201E881010E0301C827000E4B
:10091200C923CA2358D00201E883010E0301C82764
:10092200000EC923CA234FD00201E987010E030139
:10093200C827000EC923CA2346D00201E885010E4A
:100942000301C827000EC923CA233DD0C8C3F6FF3E
:10095200C9C3F7FFCAC3F8FF0900F5CF01F0015080
:100962002D0AC7E0C8C3F6FFC9C3F7FFCAC3F8FF21
:100972000900F5CF01F00150200AC4E0C8C3F6FF18
:10098200C9C3F7FFCAC3F8FF0900F5CF01F0015050
:100992002B0AC1E0C8C3F6FFC9C3F7FFCAC3F8FFF9
:1009A2000900F5CF01F00150230ABEE0C8C3F6FFEB
:1009B200C9C3F7FFCAC3F8FF0900F5CF01F0015020
:1009C200300ABBE001D094D70201E8A301D0E8913C
:1009D200E8A701D0E895C8C300F0C9C301F0CAC3B3
:0409E20002F012000D
:1009E6000B6A0A6A096A086A0E6A033408360450F2
:1009F600085E0550D8A0053C095E0650D8A0063C06
:100A06000A5E0750D8A0073C0B5EE86AD8A0010E24
:100A16000E5E0336070E0C6E0334083609360A36A8
:100A26000B360E36045003A012D0085E0550D8A02F
:100A3600053C095E0650D8A0063C0A5E0750D8A0C1
:100A4600073C0B5EE86AD8A0010E0E5E11D00826A0
:100A56000550D8B0053C09260650D8B0063C0A26F3
:100A66000750D8B0073C0B26E86AD8B0010E0E2610
:100A760003360C2ED1D70234083609360A360B3621
:100A86000E36045003A012D0085E0550D8A0053CCF
:100A9600095E0650D8A0063C0A5E0750D8A0073C5F
:100AA6000B5EE86AD8A0010E0E5E11D0082605502E
:100AB600D8B0053C09260650D8B0063C0A26075091
:100AC600D8B0073C0B26E86AD8B0010E0E260236CF
:100AD600070E0C6E0234083609360A360B360E3609
:100AE600045002A012D0085E0550D8A0053C095E4D
:100AF6000650D8A0063C0A5E0750D8A0073C0B5EFD
:100B0600E86AD8A0010E0E5E11D008260550D8B0AE
:100B1600053C09260650D8B0063C0A260750D8B030
:100B2600073C0B26E86AD8B0010E0E2602360C2EBC
:100B3600D1D70134083609360A360B360E3604503C
:100B460002A012D0085E0550D8A0053C095E0650EA
:100B5600D8A0063C0A5E0750D8A0073C0B5EE86AA0
:100B6600D8A0010E0E5E11D008260550D8B0053C5F
:100B760009260650D8B0063C0A260750D8B0073CCE
:100B86000B26E86AD8B0010E0E260136070E0C6E4B
:100B96000134083609360A360B360E36045001A0E3
:100BA60012D0085E0550D8A0053C095E0650D8A0B4
:100BB600063C0A5E0750D8A0073C0B5EE86AD8A040
:100BC600010E0E5E11D008260550D8B0053C092648
:100BD6000650D8B0063C0A260750D8B0073C0B266C
:100BE600E86AD8B0010E0E2601360C2ED1D7003495
:100BF600083609360A360B360E36045001A012D0D6
:100C0600085E0550D8A0053C095E0650D8A0063CF3
:100C16000A5E0750D8A0073C0B5EE86AD8A0010E12
:100C26000E5E11D008260550D8B0053C09260650A0
:100C3600D8B0063C0A260750D8B0073C0B26E86A0F
:100C4600D8B0010E0E260036070E0C6E003408369C
:100C560009360A360B360E36045000A012D0085E4E
:100C66000550D8A0053C095E0650D8A0063C0A5E91
:100C76000750D8A0073C0B5EE86AD8A0010E0E5EAE
:100C860011D008260550D8B0053C09260650D8B024
:100C9600063C0A260750D8B0073C0B26E86AD8B0AF
:100CA600010E0E2600360C2ED1D700B00ED0045001
:100CB60008260550D8B0053C09260650D8B0063C93
:0C0CC6000A260750D8B0073C0B2612008D
:100CD2000450000A08E10550000A05E1FF0E006E0B
:100CE2007F0E016E58D00D6A096A086A0150001021
:100CF200D8B4000C015005180A6E0ABE0D1E0B6A0C
:100D020005AE05D0041E051E042AD8B4052A01AE7C
:100D120005D0001E011E002AD8B4012A0150051078
:100D22000A6E0ABE10D072EC01F00BB020D00DAEEC
:100D3200000C001E011E002AD8B4012A081E091E3A
:100D4200082AD8B4092A000C05AE0DD001BE07D07E
:100D52000150096E0050086E016A006AE8D7016A04
:100D6200006A002A000C011E001E0B2ADDD7082A89
:100D7200D8B4092A0450085CD8A4D9D70550095C14
:100D8200D8A4D5D7096A086A002AD8B4012A01AEC4
:080D9200CED70000FF0C120097
:100D9A00800E0301C819006E800E000A005CD8B0EC
:100DAA006DD1C8510008016E01C0C8F3800E011848
:100DBA00006E800E6E0A005CD8A0C0D0640E046E6D
:100DCA00C8C300F023EC01F0120E0024056E000ED9
:100DDA0000BEFF0E066E000E062205C000F006C019
:100DEA0001F0000E06BEFF0E026E036E0036009082
:100DFA0001360236033600360090013602360336D3
:100E0A00410E0024F66E580E0120F76E000E0220E5
:100E1A00F86E0900F5CFC9F30900F5CFCAF3090046
:100E2A00F5CFCBF30900F5CFCCF3640E046EC8C33B
:100E3A0000F023EC01F008C000F00A0E046E23EC67
:100E4A0001F0090E0024056E000E00BEFF0E066EAC
:100E5A00000E062205C000F006C001F0000E06BE14
:100E6A00FF0E026E036E003600900136023603361C
:100E7A0000360090013602360336410E0024F66E23
:100E8A00580E0120F76E000E0220F86E0900F5CF09
:100E9A0000F00900F5CF01F00900F5CF02F00900D2
:100EAA00F5CF03F0C9C304F0CAC305F0CBC306F0FB
:100EBA00CCC307F0ADEC01F000C0C9F301C0CAF31E
:100ECA0002C0CBF303C0CCF30A0E046EC8C300F011
:100EDA0023EC01F008C000F000C001F0000E00BED3
:100EEA00FF0E026E036E046E01360190023603365F
:100EFA00043601360190023603360436410E0124C7
:100F0A00F66E580E0220F76E000E0320F86E0900E6
:100F1A00F5CF00F00900F5CF01F00900F5CF02F096
:100F2A000900F5CF03F0C9C304F0CAC305F0CBC367
:100F3A0006F0CCC307F0ADEC01F007D2800E0A0A26
:100F4A00006E800EC819005C71E20A0E046EC8C3F6
:100F5A0000F023EC01F0090E0024056E000E00BE1D
:100F6A00FF0E066E000E062205C000F006C001F054
:100F7A00000E06BEFF0E026E036E003600900136AA
:100F8A000236033600360090013602360336410E29
:100F9A000024F66E580E0120F76E000E0220F86E3D
:100FAA000900F5CFC9F30900F5CFCAF30900F5CF57
:100FBA00CBF30900F5CFCCF30A0E046EC8C300F0D8
:100FCA0023EC01F008C000F000C001F0000E00BEE2
:100FDA00FF0E026E036E046E01360190023603366E
:100FEA00043601360190023603360436410E0124D6
:100FFA00F66E580E0220F76E000E0320F86E0900F6
:10100A00F5CF00F00900F5CF01F00900F5CF02F0A5
:10101A000900F5CF03F0C9C304F0CAC305F0CBC376
:10102A0006F0CCC307F0ADEC01F08FD1C8C300F0D5
:10103A00000EC8BFFF0E016E026E036E00360090EE
:10104A000136023603360036009001360236033680
:10105A00410E0024F66E580E0120F76E000E022093
:10106A00F86E0900F5CF00F00900F5CF01F009008C
:10107A00F5CF02F00900F5CF03F067D1800EC81949
:10108A00006E800E6E0A005CD8A0C0D0640E046E9A
:10109A00C8C300F023EC01F0120E0024056E000E06
:1010AA0000BEFF0E066E000E062205C000F006C046
:1010BA0001F0000E06BEFF0E026E036E00360090AF
:1010CA000136023603360036009001360236033600
:1010DA000D0E0024F66E580E0120F76E000E022047
:1010EA00F86E0900F5CFC9F30900F5CFCAF3090074
:1010FA00F5CFCBF30900F5CFCCF3640E046EC8C369
:10110A0000F023EC01F008C000F00A0E046E23EC94
:10111A0001F0090E0024056E000E00BEFF0E066ED9
:10112A00000E062205C000F006C001F0000E06BE41
:10113A00FF0E026E036E0036009001360236033649
:10114A00003600900136023603360D0E0024F66E84
:10115A00580E0120F76E000E0220F86E0900F5CF36
:10116A0000F00900F5CF01F00900F5CF02F00900FF
:10117A00F5CF03F0C9C304F0CAC305F0CBC306F028
:10118A00CCC307F0ADEC01F000C0C9F301C0CAF34B
:10119A0002C0CBF303C0CCF30A0E046EC8C300F03E
:1011AA0023EC01F008C000F000C001F0000E00BE00
:1011BA00FF0E026E036E046E01360190023603368C
:1011CA000436013601900236033604360D0E012428
:1011DA00F66E580E0220F76E000E0320F86E090014
:1011EA00F5CF00F00900F5CF01F00900F5CF02F0C4
:1011FA000900F5CF03F0C9C304F0CAC305F0CBC395
:10120A0006F0CCC307F0ADEC01F09FD0800E0A0ABD
:10121A00006E800EC819005C71E20A0E046EC8C323
:10122A0000F023EC01F0090E0024056E000E00BE4A
:10123A00FF0E066E000E062205C000F006C001F081
:10124A00000E06BEFF0E026E036E003600900136D7
:10125A0002360336003600900136023603360D0E8A
:10126A000024F66E580E0120F76E000E0220F86E6A
:10127A000900F5CFC9F30900F5CFCAF30900F5CF84
:10128A00CBF30900F5CFCCF30A0E046EC8C300F005
:10129A0023EC01F008C000F000C001F0000E00BE0F
:1012AA00FF0E026E036E046E01360190023603369B
:1012BA000436013601900236033604360D0E012437
:1012CA00F66E580E0220F76E000E0320F86E090023
:1012DA00F5CF00F00900F5CF01F00900F5CF02F0D3
:1012EA000900F5CF03F0C9C304F0CAC305F0CBC3A4
:1012FA0006F0CCC307F0ADEC01F027D0C8C300F06C
:10130A00000EC8BFFF0E016E026E036E003600901B
:10131A0001360236033600360090013602360336AD
:10132A000D0E0024F66E580E0120F76E000E0220F4
:10133A00F86E0900F5CF00F00900F5CF01F00900B9
:0C134A00F5CF02F00900F5CF03F012000F
:101356000B6A0C6A0A6A086A0350D8B433EF0AF0BB
:10136600028E9E0E035E03BEBEEF09F0D8B4BEEF3A
:1013760009F023EF0AF0036C080E035CD8A0F0EF27
:1013860009F0036E083600C008F001C000F002C084
:1013960001F0026A080E035CD8A0F0EF09F0036EB4
:1013A600083600C008F001C000F0016A080E035CB0
:1013B600D8A0F0EF09F0036E083600C008F0006A06
:1013C600080E035CD8A0F0EF09F0036E0836086A31
:1013D6000350D8A4D890FCEF09F00350D8B4FCEF22
:1013E60009F0D8900232013200320832032EF4EFAF
:1013F60009F00BBC08A00DEF0AF0D8A00DEF0AF01B
:10140600082AD8B4002AD8B4012AD8B4022A02BEBF
:1014160037EF0AF00AAE33EF0AF0021E011E001E75
:10142600081E082AD8B4002AD8B4012AD8B4022A39
:1014360033EF0AF0026A016A006A086A33EF0AF0BB
:101446000B800BAE3DEF0AF0026A0AAE3DEF0AF0E2
:10145600026E016E006E086E0A3602323DEF0AF029
:10146600000E0C6A3EEF0AF0010E0C6E50EC04F012
:101476003EEF0AF0FF0E0250036E0150026E00505E
:08148600016E0850006E120017
:10148E006E0E0301C85DD8A0CAD0640E046EC8C328
:10149E0000F09EEC01F0120E0024056E066A000E9E
:1014AE00062205C000F006C001F0000E06BEFF0EBB
:1014BE00026E036E00360090013602360336003699
:1014CE000090013602360336410E0024F66E580E99
:1014DE000120F76E000E0220F86E0900F5CF00F025
:1014EE000900F5CF01F00900F5CF02F00900F5CFA4
:1014FE0003F0000E046E000E056E000E066E7E0EDC
:10150E00076EADEC01F000C0C9F301C0CAF302C012
:10151E00CBF303C0CCF3640E046EC8C300F09EEC94
:10152E0001F008C000F00A0E046E9EEC01F0090EE8
:10153E000024056E066A000E062205C000F006C0E5
:10154E0001F0000E06BEFF0E026E036E0036009016
:10155E000136023603360036009001360236033667
:10156E00410E0024F66E580E0120F76E000E02207A
:10157E00F86E0900F5CF00F00900F5CF01F0090073
:10158E00F5CF02F00900F5CF03F0C9C304F0CAC3CA
:10159E0005F0CBC306F0CCC307F0ADEC01F000C0F4
:1015AE00C9F301C0CAF302C0CBF303C0CCF30A0ED9
:1015BE00046EC8C300F09EEC01F008C000F000C03D
:1015CE0001F0000E026E036E046E013601900236BB
:1015DE000336043601360190023603360436410EC8
:1015EE000124F66E580E0220F76E000E0320F86EE0
:1015FE000900F5CF00F00900F5CF01F00900F5CF95
:10160E0002F00900F5CF03F0C9C304F0CAC305F018
:10161E00CBC306F0CCC307F0ADEC01F0B1D0C8518E
:10162E000A08D8B07ED00A0E046EC8C300F09EEC35
:10163E0001F0090E0024056E066A000E062205C092
:10164E0000F006C001F0000E06BEFF0E026E036E25
:10165E000036009001360236033600360090013611
:10166E0002360336410E0024F66E580E0120F76E38
:10167E00000E0220F86E0900F5CF00F00900F5CF3C
:10168E0001F00900F5CF02F00900F5CF03F0000ECE
:10169E00046E000E056E000E066E7E0E076EADEC2D
:1016AE0001F000C0C9F301C0CAF302C0CBF303C0FE
:1016BE00CCF30A0E046EC8C300F09EEC01F008C015
:1016CE0000F000C001F0000E026E036E046E0136D3
:1016DE000190023603360436013601900236033687
:1016EE000436410E0124F66E580E0220F76E000EDF
:1016FE000320F86E0900F5CF00F00900F5CF01F0D8
:10170E000900F5CF02F00900F5CF03F0C9C304F0CC
:10171E00CAC305F0CBC306F0CCC307F0ADEC01F0A5
:10172E002FD0C8C300F0000E016E026E036E00369D
:10173E00009001360236033600360090013602362E
:10174E000336410E0024F66E580E0120F76E000E81
:10175E000220F86E0900F5CF00F00900F5CF01F078
:10176E000900F5CF02F00900F5CF03F0000E046E6C
:10177E00000E056E000E066E7E0E076EADEC01F0CD
:02178E00120047
:101790000A6A0350D8A40A800750D8A40A820A50C3
:1017A000D8B42BEF0CF0030AD8B4E4EF0BF00AB076
:1017B000DFEF0BF006AE29EF0CF027EF0CF002AED6
:1017C00027EF0CF029EF0CF00250800B0A6E029EFE
:1017D0000650800B069E0A18D8B4F5EF0BF00A509D
:1017E000D8B427EF0CF029EF0CF00750035CD8B405
:1017F000FFEF0BF0D8A01BEF0CF021EF0CF0065020
:10180000025CD8B409EF0CF0D8A01BEF0CF021EF6C
:101810000CF00550015CD8B413EF0CF0D8A01BEF0E
:101820000CF021EF0CF00450005CD8B42BEF0CF05E
:10183000D8B021EF0CF00A52D8B429EF0CF027EF02
:101840000CF00A52D8B427EF0CF029EF0CF0D88036
:0E1850001200D8901200D880D8841200120026
:10185E000B6A0C6A086A0350D8B4B3EF0CF002C0DE
:10186E000AF0028E9E0E035E03AEA3EF0CF0036C25
:10187E00080E035CD8A070EF0CF0036E083600C0A3
:10188E0008F001C000F002C001F0026A080E035C0D
:10189E00D8A070EF0CF0036E083600C008F001C03F
:1018AE0000F0016A080E035CD8A070EF0CF0036E16
:1018BE00083600C008F0006A080E035CD8A070EF6E
:1018CE000CF0036E0836086A0350D8A4D8907CEF4B
:1018DE000CF00350D8B47CEF0CF0D89002320132E9
:1018EE0000320832032E74EF0CF00BBC08A08DEF03
:1018FE000CF0D8A08DEF0CF0082AD8B4002AD8B47A
:10190E00012AD8B4022A02BEB7EF0CF00AAEB3EF2A
:10191E000CF0021E011E001E081E082AD8B4002A52
:10192E00D8B4012AD8B4022AB3EF0CF0026A016AC5
:10193E00006A086AB3EF0CF00B800BAEBEEF0CF032
:10194E00026A0AAEBEEF0CF0026E016E006E086EF9
:10195E000A360232BEEF0CF00C6A000EBFEF0CF02E
:10196E00010E0C6E000E50EC04F0BFEF0CF0FF0EEB
:10197E000250036E0150026E0050016E0850006E50
:02198E00120045
:101990000201E8A567D0E8A314D0E8A103D02D0E7A
:1019A000036E02D02B0E036EC8C3E1FFC9C3E2FF72
:1019B00003C0E6FF0301C84BC92B0201EA4BEB2B26
:1019C0003AD0E8A10DD0C8C3E1FFC9C3E2FF200EA1
:1019D000E66E0301C84BC92B0201EA4BEB2B2BD05F
:1019E000C00EE815016EE951080B026E0250080A9C
:1019F00002E1800E01181FE1C8C3E1FFC9C3E2FF85
:101A0000300EE66E0301C84BC92B0201EA4BEB2BEB
:101A1000E8AB03D0580E046E02D0780E046EC8C333
:101A2000E1FFC9C3E2FF04C0E6FF0301C84BC92BB5
:101A30000201EA4BEB2BE351E41113E0C8C3E1FFD1
:101A4000C9C3E2FF300EE66E0301C84BC92B020189
:101A5000EA4BEB2B010EE35F000EE45BE351E41174
:101A6000EDE180D0E351E41115E0E8B713D0C8C32D
:101A7000E1FFC9C3E2FF200EE66E0301C84BC92B8C
:101A80000201EA4BEB2B010EE35F000EE45BE35136
:101A9000E411EDE1E8A314D0E8A103D02D0E056E0A
:101AA00002D02B0E056EC8C3E1FFC9C3E2FF05C01B
:101AB000E6FF0301C84BC92B0201EA4BEB2B0ED00A
:101AC000E8A10CD0C8C3E1FFC9C3E2FF200EE66E57
:101AD0000301C84BC92B0201EA4BEB2BC00EE815E2
:101AE000016EE951080B026E0250080A02E1400E35
:101AF00001180DE1C8C3E1FFC9C3E2FF300EE66E75
:101B00000301C84BC92B0201EA4BEB2B2BD0C00EB3
:101B1000E815016EE951080B026E0250080A02E155
:101B2000800E01181FE1C8C3E1FFC9C3E2FF300EF8
:101B3000E66E0301C84BC92B0201EA4BEB2BE8AB65
:101B400003D0580E066E02D0780E066EC8C3E1FFB1
:101B5000C9C3E2FF06C0E6FF0301C84BC92B02015F
:101B6000EA4BEB2B800E006E800EE619005C02E162
:101B7000E551E75D0DE2C8C3E1FFC9C3E2FF300EE6
:101B8000E66E0301C84BC92B0201EA4BEB2BEAD7E7
:0A1B9000C8C300F0C9C301F0120041
:101B9A000050086E0150006E0250016E0350026E32
:101BAA00036A0B6A0C6A9E0E036E0A6A020E0C6EB8
:061BBA0032EC00F0120005
:081BC000067E3DEC02F012006C
:101BC800086A096A100E0C6E01340836093604508A
:101BD800085E0550D8A0053C095ED8B007D004506F
:101BE80008260550D8B0053C0926D890003601369D
:061BF8000C2EEAD71200DA
:101BFE000B6A0A6A096A00500402F4CF09F0F3CFA7
:101C0E0008F001500502F4CF0BF0F3CF0AF00050AC
:101C1E000502F3500926F4500A22E86A0B220150FD
:101C2E000402F3500926F4500A22E86A0B2208C077
:101C3E0000F009C001F00AC002F00BC003F0120060
:0E1C4E00ACB202D00000FCD7C8C3ADFF12003C
:101C5C000450000A12E10550000A0FE10650000A78
:101C6C000CE10750000A09E1FF0E006EFF0E016E39
:101C7C007F0E026EFF0E036EA8D0086A096A075029
:101C8C00D8B4D9EF0EF00350D8B4DEEF0EF00250FA
:101C9C0006180A6E028E068E0E6A02C008F001C08B
:101CAC000CF000C00DF004500D5E0550D8A0053CA2
:101CBC000C5E0650D8A0063C085E086A0C6A0D6AD9
:101CCC00D8A070EF0EF0D8900232013200320832F8
:101CDC00010E0E6E0750035ED8A07DEF0EF07E0E47
:101CEC000E240326D8B0E3EF0EF083EF0EF07E0E39
:101CFC000E240326D8A0E8EF0EF0180E0B6E0D364E
:101D0C000C3608360036013602360E360450005EAC
:101D1C000550D8A0053C015E0650D8A0063C025EDA
:101D2C0006340E120EA09EEF0EF00D80A9EF0EF0F1
:101D3C00045000260550D8B0053C01260650D8B0FA
:101D4C00062802260D900B2E85EF0EF0CFEF0EF02D
:101D5C00D8900036013602360E360450005E05501F
:101D6C00D8A0053C015E0650D8A0063C025E0634A5
:101D7C000E10010B0D26D8B00C2AD8B4082AD8A402
:101D8C00CFEF0EF008320C320D32032AD8B4E3EF49
:101D9C000EF00AAE089E0850026E0C50016E0D50EB
:101DAC00006EEBEF0EF0010E5EEC04F0EBEF0EF0BC
:101DBC00020E1FEC00F0EBEF0EF0040E26EC00F020
:0C1DCC00EBEF0EF0080E12EC00F012001D
:101DD8000301C851390806E3300EC85D03E3010E5C
:081DE800006E01D0006A120038
:101DF0000301A36BA0C3E9FFA1C3EAFFEECFA2F3E7
:101E0000A251000A0EE0A2C3C8F321DF0301A32BF5
:101E1000A351A025E96E000EA121EA6EEECFA2F338
:041E2000EFD71200E6
:101E24000301C06BC16BB46BB56BA2C300F0A3C359
:101E340001F0A4C302F0010EA227000EA323A423E1
:101E440000C0F6FF01C0F7FF02C0F8FF0900F5CF9C
:101E540000F000C0B1F30052D8B41BEF1FF0B15131
:101E6400250A0BE0A0C3E1FFA1C3E2FFB1C3E6FF73
:101E7400A04BA12BC04BC12BD8D7B26BB36BB46BA7
:101E8400B56B23D0B487010EA227000EA323A4238D
:101E940059D0B481010EA227000EA323A42352D04B
:101EA400B483010EA227000EA323A4234BD0B5872D
:101EB400010EA227000EA323A42344D0B485010E4F
:101EC400A227000EA323A4233DD0A2C3F6FFA3C3DD
:101ED400F7FFA4C3F8FF0900F5CF01F001502D0A64
:101EE400D1E0A2C3F6FFA3C3F7FFA4C3F8FF090020
:101EF400F5CF01F00150200ACCE0A2C3F6FFA3C342
:101F0400F7FFA4C3F8FF0900F5CF01F001502B0A35
:101F1400C7E0A2C3F6FFA3C3F7FFA4C3F8FF0900F9
:101F2400F5CF01F00150230AC2E0A2C3F6FFA3C318
:101F3400F7FFA4C3F8FF0900F5CF01F00150300A00
:101F4400BDE001D09ED7B4A301D0B491B4A701D011
:101F5400B495A2C3F6FFA3C3F7FFA4C3F8FF090017
:101F6400F5CF00F0000E016E00C0C8F333DF00525D
:101F740034E0B26BB36BB2C300F0B3C301F00A0E2A
:101F8400046E000E056E39DEA2C3F6FFA3C3F7FF8D
:101F9400A4C3F8FF0900F5CF02F002500024B26F89
:101FA400000E0120B36F300EB25F000EB35B010E62
:101FB400A227000EA323A423A2C3F6FFA3C3F7FF03
:101FC400A4C3F8FF0900F5CF00F0000E016E00C0B5
:101FD400C8F300DF0052CFE133D0A2C3F6FFA3C39E
:101FE400F7FFA4C3F8FF0900F5CF01F001502A0A56
:101FF40027E1A5C3E9FFA6C3EAFFEECF00F0EECFC9
:1020040001F000C0E9FF01C0EAFFEECFB2F3EECF6A
:10201400B3F3A5C3E9FFA6C3EAFF020EEE24006EE4
:10202400000EEE20016EA5C3E1FFA6C3E2FF00C0CF
:10203400E6FF01C0E6FF010EA227000EA323A4239E
:10204400A2C3F6FFA3C3F7FFA4C3F8FF0900F5CFAB
:1020540001F001502E0A6EE1010EA227000EA32307
:10206400A423A2C3F6FFA3C3F7FFA4C3F8FF090088
:10207400F5CF01F001502A0A28E1A5C3E9FFA6C360
:10208400EAFFEECF00F0EECF01F000C0E9FF01C09F
:10209400EAFFEECFAFF3EECFB0F3A5C3E9FFA6C3DB
:1020A400EAFF020EEE24006E000EEE20016EA5C3C0
:1020B400E1FFA6C3E2FF00C0E6FF01C0E6FF010E98
:1020C400A227000EA323A42334D0AF6BB06BA2C30A
:1020D400F6FFA3C3F7FFA4C3F8FF0900F5CF00F090
:1020E400000E016E00C0C8F375DE005222E0AFC3DB
:1020F40000F0B0C301F00A0E046E000E056E7DDD23
:10210400A2C3F6FFA3C3F7FFA4C3F8FF0900F5CFEA
:1021140002F002500024AF6F000E0120B06F300EA9
:10212400AF5F000EB05B010EA227000EA323A42311
:10213400CED703D0AF6BB06BB589A2C300F0A3C3F5
:1021440001F0A4C302F0010EA227000EA323A423CE
:1021540000C0F6FF01C0F7FF02C0F8FF0900F5CF89
:10216400B1F3F9D0C0C300F0C1C301F01FEF1FF0F9
:10217400B489E3D7B5852ED1B48BB5812BD1B58382
:1021840029D1B48D27D126D1B48BB48F23D1A5C343
:10219400E9FFA6C3EAFFEECF00F0EECF01F000C0E6
:1021A400E9FF01C0EAFFEECFBCF3EECFBDF3A5C358
:1021B400E9FFA6C3EAFF020EEE24006E000EEE2035
:1021C400016EA5C3E1FFA6C3E2FF00C0E6FF01C0A4
:1021D400E6FF000EBD1902E1000EBC1904E15D0E1C
:1021E400BC6F020EBD6FBE6BBF6BBE51BC25E96EEA
:1021F400BF51BD21EA6EEE520BE0010EBE25006E0A
:10220400000EBF21016E00C0BEF301C0BFF3EDD7C5
:10221400AF51B0110AE0BF51B05D02E1BE51AF5DF4
:1022240004E2AFC3BEF3B0C3BFF3B351BF5D02E179
:10223400B251BE5D05E2BE51B25FBF51B35B02D085
:10224400B26BB36BB4B716D0B2C300F0B3C301F032
:10225400010EB25F000EB35B005001100BE0A0C38F
:10226400E1FFA1C3E2FF200EE66EA04BA12BC04B01
:10227400C12BEAD7BEC302F0BFC303F0010EBE5D9B
:10228400006E000EBF59016E00C0BEF301C0BFF363
:102294000250031019E0BCC3E9FFBDC3EAFFA0C3A9
:1022A400E1FFA1C3E2FFEECFE6FFA04BA12B010E9D
:1022B400BC25006E000EBD21016E00C0BCF301C040
:1022C400BDF3C04BC12BD6D7B4A716D0B2C300F010
:1022D400B3C301F0010EB25F000EB35B00500110F6
:1022E4000BE0A0C3E1FFA1C3E2FF200EE66EA04B0A
:1022F400A12BC04BC12BEAD798D5A5C3E9FFA6C330
:10230400EAFFEECF00F0EECF01F000C0E9FF01C01C
:10231400EAFFEECFB1F3A5C3E9FFA6C3EAFF020EBD
:10232400EE24006E000EEE20016EA5C3E1FFA6C3ED
:10233400E2FF00C0E6FF01C0E6FFB10EBC6F030E72
:10234400BD6F010EBE6F000EBF6F62D7C00EB41317
:10235400000EB5133FD0B151000AD8B403D7B15120
:102364006C0AD8B405D7B1514C0AD8B401D7B151CD
:10237400660AD8B4FFD6B151450AD8B4FDD6B151D6
:10238400650AD8B4FAD6B151670AD8B4F8D6B151AF
:102394006F0AD8B4F6D6B151640AD8B4F4D6B151A0
:1023A400690AD8B4F0D6B151700AD8B4EDD6B15197
:1023B400580AD8B4E9D6B151780AD8B4E6D6B1519E
:1023C400730AD8B4E4D6B151630A97E0B151750ADF
:1023D400BDE0B3D7000EB415006EB551070B016E06
:1023E40000500110D8B4C2EF1AF0B5A904D0060EFB
:1023F400AF6F000EB06FA5C3E9FFA6C3EAFFEECF2F
:1024040000F0EECF01F000C0E9FF01C0EAFFEECF1B
:10241400B6F3EECFB7F3EECFB8F3EECFB9F3A5C36F
:10242400E9FFA6C3EAFF040EEE24006E000EEE20C0
:10243400016EA5C3E1FFA6C3E2FF00C0E6FF01C031
:10244400E6FF046A056A066A076AB6C300F0B7C302
:1024540001F0B8C302F0B9C303F0C8EC0BF0010EED
:10246400D8B0000E006E005205E0B87F030EB4131E
:10247400000EB513BA6BBB6BB6C300F0B7C301F063
:10248400B8C302F0B9C303F0046A056A066A076AAE
:1024940062EC04F0000ED8A4010E006E0052D8B411
:1024A4008AD0B9C300F0016A026A036AFF0E0016FB
:1024B400000E01167E0E005E000E015A00C0BAF333
:1024C40001C0BBF3010E005E000E015A00C0BAF356
:1024D40001C0BBF3030E046E000E056EFFEC0DF09D
:1024E40000C0BAF301C0BBF30A0E046E000E056E01
:1024F40069EC06F000C0BAF301C0BBF3800E01180A
:10250400026E800E025C02E1000E005C05E2010E28
:102514000301BA5F000EBB5B0301BA510008C86F28
:10252400CDEC06F0B6C304F0B7C305F0B8C306F0AB
:10253400B9C307F0ADEC01F000C0BCF301C0BDF3BA
:1025440002C0BEF303C0BFF3000E046E000E056E9E
:10255400000E066E7F0E076EBCC300F0BDC301F013
:10256400BEC302F0BFC303F0C8EC0BF0010ED8B039
:10257400000E006E005205E0010EBA5F000EBB5B58
:102584001AD0000E046E000E056E200E066E820E2A
:10259400076EBCC300F0BDC301F0BEC302F0BFC3ED
:1025A40003F0C8EC0BF0000ED8B0010E006E005220
:1025B40002E0BA4BBB2B800E006E800EBB19005C90
:1025C40002E1BA51000803E3010EB16F02D0BAC3AD
:1025D400B1F3B5B118D0B5A315D0800EBB19006EF8
:1025E4007F0E005C02E1FC0EBA5D0BE3800EBB19AA
:1025F400006E800EB019005C02E1AF51BA5D01E2D9
:1026040001D001D0EFD3AF51B01106E0B5A304D08F
:10261400010EAF5F000EB05BB051000802E1AF5194
:10262400080803E2080EB16F02D0AFC3B1F3B6C31A
:1026340000F0B7C301F0B8C302F0B9C303F0046AF1
:10264400056A066A076A62EC04F0000ED8A4010E5B
:10265400006E0052D8B44BD1BAC3C8F3CDEC06F027
:1026640000C004F001C005F002C006F003C007F08A
:10267400B6C300F0B7C301F0B8C302F0B9C303F0A6
:102684002EEC0EF000C0B6F301C0B7F302C0B8F3ED
:1026940003C0B9F30301B1510008C86FCDEC06F0D3
:1026A40000C004F001C005F002C006F003C007F04A
:1026B400B6C300F0B7C301F0B8C302F0B9C303F066
:1026C4002EEC0EF000C0C2F301C0C3F302C0C4F389
:1026D40003C0C5F3C2C3B6F3C3C3B7F3C4C3B8F3EB
:1026E400C5C3B9F3C2C300F0C3C301F0C4C302F04D
:1026F400C5C303F0ABEC09F0CDEC0DF000C004F061
:1027040001C005F002C006F003C007F0C2C300F028
:10271400C3C301F0C4C302F0C5C303F0E0EC0DF081
:10272400000E046E000E056E000E066E7E0E076E21
:10273400C8EC0BF0000ED8B0010E006E00521AE087
:10274400B6C300F0B7C301F0B8C302F0B9C303F0D5
:10275400000E046E000E056E000E066E7E0E076EF1
:102764003DEC02F000C0B6F301C0B7F302C0B8F309
:1027740003C0B9F3B6C300F0B7C301F0B8C302F0A5
:10278400B9C303F0ABEC09F00301B151010F096EB9
:102794000A6A000E0A2209C004F00AC005F0000EFD
:1027A4000ABEFF0E066E076E043604900536063622
:1027B400073604360490053606360736A50E04247B
:1027C400F66E580E0520F76E000E0620F86E09000E
:1027D400F5CF05F00900F5CF06F00900F5CF07F0B5
:1027E4000900F5CF08F00850035C08E10750025CCB
:1027F40005E10650015C02E10550005C1EE30301A3
:10280400B6C300F0B7C301F0B8C302F0B9C303F014
:10281400CD0E046ECC0E056E4C0E066E7B0E076E4E
:10282400ADEC01F000C0B6F301C0B7F302C0B8F3D9
:1028340003C0B9F3BA4BBB2B5AD0B6C300F0B7C32D
:1028440001F0B8C302F0B9C303F0ABEC09F0B1C3B3
:1028540004F0000E056E066E076E0436049005360D
:102864000636073604360490053606360736A50EB6
:102874000424F66E580E0520F76E000E0620F86E3E
:102884000900F5CF05F00900F5CF06F00900F5CFF2
:1028940007F00900F5CF08F00850035C08E1075081
:1028A400025C05E10650015C02E10550005C1FE298
:1028B4000301B6C300F0B7C301F0B8C302F0B9C353
:1028C40003F0000E046E000E056E200E066E820EDE
:1028D400076EADEC01F000C0B6F301C0B7F302C05F
:1028E400B8F303C0B9F3010EBA5F000EBB5B03017A
:1028F400B5A393D0B5B791D0800E000A006E800EB8
:10290400B019005C02E1AF510A0804E20A0EAF6F8D
:10291400000EB06FB6C300F0B7C301F0B8C302F045
:10292400B9C303F0ABEC09F000C0BCF301C0BDF3C4
:1029340002C0BEF303C0BFF3BC51BD11BE11BF1131
:1029440042E00A0E046E000E056E066E076EBCC3EE
:1029540000F0BDC301F0BEC302F0BFC303F0F3EC4B
:1029640004F008C000F009C001F00AC002F00BC076
:1029740003F0000E046E031808E10450021805E188
:102984000450011802E10050000A1DE1010EAF5F7E
:10299400000EB05B0A0E046E000E056E066E076E26
:1029A400BCC300F0BDC301F0BEC302F0BFC303F05B
:1029B400F3EC04F000C0BCF301C0BDF302C0BEF3ED
:1029C40003C0BFF3B9D7800EB019006E800E005C4F
:1029D40002E1B151AF5D21E2AF51B15DC86FCDEC01
:1029E40006F000C004F001C005F002C006F003C008
:1029F40007F0B6C300F0B7C301F0B8C302F0B9C31F
:102A040003F02EEC0EF000C0B6F301C0B7F302C021
:102A1400B8F303C0B9F3AFC3B1F3050E0301AF2597
:102A2400006E000EB021016E0050B25F0150B35B26
:102A3400AF51B01103E1B5B701D004D0010EB25FBC
:102A4400000EB35B030EB415006EB5C301F0000EA7
:102A540001160050011004E0010EB25F000EB35BDA
:102A6400B4A539D0B4A312D0B4A103D02D0EA76F4E
:102A740002D02B0EA76FA0C3E1FFA1C3E2FFA7C33F
:102A8400E6FFA04BA12BC04BC12B0CD0B4A10AD0A4
:102A9400A0C3E1FFA1C3E2FF200EE66EA04BA12B71
:102AA400C04BC12B800E006E800EB319005C02E196
:102AB400B25100080FE2A0C3E1FFA1C3E2FF300E50
:102AC400E66EA04BA12BC04BC12B010EB25F000ED2
:102AD400B35BE8D73AD0B4B718D0800E006E800E3E
:102AE400B319005C02E1B25100080FE2A0C3E1FF98
:102AF400A1C3E2FF200EE66EA04BA12BC04BC12B5D
:102B0400010EB25F000EB35BE8D7B4A312D0B4A138
:102B140003D02D0EA86F02D02B0EA86FA0C3E1FF27
:102B2400A1C3E2FFA8C3E6FFA04BA12BC04BC12B5E
:102B34000CD0B4A10AD0A0C3E1FFA1C3E2FF200ED0
:102B4400E66EA04BA12BC04BC12BB6C300F0B7C39C
:102B540001F0B8C302F0B9C303F0ABEC09F000C054
:102B6400BCF301C0BDF302C0BEF303C0BFF3B1C3E5
:102B740000F0000E016E026E036E00360090013606
:102B84000236033600360090013602360336A50EAF
:102B94000024F66E580E0120F76E000E0220F86E27
:102BA4000900F5CF04F00900F5CF05F00900F5CFD1
:102BB40006F00900F5CF07F0BCC300F0BDC301F077
:102BC400BEC302F0BFC303F0F3EC04F0300E0026E2
:102BD400A0C3E1FFA1C3E2FF00C0E6FFA04BA12B0D
:102BE400C04BC12BAF51B01103E1B5B701D06FD0C9
:102BF400A0C3E1FFA1C3E2FF2E0EE66EA04BA12B02
:102C0400C04BC12BB151AF5F000EB05BB1534DE06F
:102C1400B107B1C300F0000E016E026E036E003600
:102C24000090013602360336003600900136023633
:102C34000336A50E0024F66E580E0120F76E000E22
:102C44000220F86E0900F5CF04F00900F5CF05F075
:102C54000900F5CF06F00900F5CF07F0BCC300F07A
:102C6400BDC301F0BEC302F0BFC303F0F3EC04F034
:102C74000A0E046E000E056E066E076EF3EC04F089
:102C840008C000F009C001F00AC002F00BC003F054
:102C9400300E0026A0C3E1FFA1C3E2FF00C0E6FF9F
:102CA400A04BA12BC04BC12BB1D7AF51B0110FE03A
:102CB400A0C3E1FFA1C3E2FF300EE66EA04BA12B3F
:102CC400C04BC12B010EAF5F000EB05BEED7B4ABAF
:102CD4000BD0A0C3E1FFA1C3E2FF450EE66EA04BFB
:102CE400A12BC04BC12B0AD0A0C3E1FFA1C3E2FFBB
:102CF400650EE66EA04BA12BC04BC12B800EBB19F9
:102D0400006E800E005C02E1000EBA5D11E2BA5161
:102D14000008BA6FBB51000EBB57A0C3E1FFA1C3AB
:102D2400E2FF2D0EE66EA04BA12BC04BC12B0AD0A7
:102D3400A0C3E1FFA1C3E2FF2B0EE66EA04BA12BC3
:102D4400C04BC12B0A0E046E000E056EBAC300F010
:102D5400BBC301F069EC06F0300E0026A0C3E1FF0E
:102D6400A1C3E2FF00C0E6FF0301A04BA12BC04BAF
:102D7400C12B0A0E046E000E056EBAC300F0BBC36D
:102D840001F069EC06F008C000F009C001F0300E53
:102D94000026A0C3E1FFA1C3E2FF00C0E6FF0301D8
:102DA400A04BA12BC04BC12BB4A71AD0800E006E30
:102DB400800EB319005C02E1B251000811E2A0C315
:102DC400E1FFA1C3E2FF200EE66EA04BA12BC04B96
:102DD400C12B010EB25F000EB35BB251B311EFE130
:102DE40017EF0FF0B5A3F3D0800EBB19006E800E61
:102DF400005C02E1000EBA5D0AE2010EBA5D006EEB
:102E0400000EBB59016E0050AF5F0150B05BB6C3FA
:102E140000F0B7C301F0B8C302F0B9C303F0ABECE0
:102E240009F000C0BCF301C0BDF302C0BEF303C08F
:102E3400BFF3010EB16FB1510A0A34E0B1C300F01F
:102E4400000E016E026E036E0036009001360236EB
:102E5400033600360090013602360336A50E0024F0
:102E6400F66E580E0120F76E000E0220F86E09006F
:102E7400F5CF01F00900F5CF02F00900F5CF03F01A
:102E84000900F5CF04F00450BF5D08E10350BE5DB6
:102E940005E10250BD5D02E10150BC5D01E202D0DA
:102EA400B12BC9D7B151AF5DC66F000EB059C76F12
:102EB400C6C3AFF3C7C3B0F3BCC300F0BDC301F0D6
:102EC400BEC302F0BFC303F0CDEC0DF000C004F0AC
:102ED40001C005F002C006F003C007F0B6C300F05D
:102EE400B7C301F0B8C302F0B9C303F0E0EC0DF0CE
:102EF40000C0C2F301C0C3F302C0C4F303C0C5F3EE
:102F0400C6C3C8F3CDEC06F0C2C304F0C3C305F0D6
:102F1400C4C306F0C5C307F0ADEC01F0000E046EA7
:102F2400000E056E000E066E7E0E076E3DEC02F07E
:102F3400ABEC09F000C0BCF301C0BDF302C0BEF3AA
:102F440003C0BFF3AF51B01142E00A0E046E000E8D
:102F5400056E066E076EBCC300F0BDC301F0BEC3B0
:102F640002F0BFC303F0F3EC04F008C000F009C0A2
:102F740001F00AC002F00BC003F0000E046E031847
:102F840008E10450021805E10450011802E1005060
:102F9400000A1DE10A0E046E000E056E066E076E31
:102FA400BCC300F0BDC301F0BEC302F0BFC303F055
:102FB400F3EC04F000C0BCF301C0BDF302C0BEF3E7
:102FC40003C0BFF3010EAF5F000EB05BBBD7800E32
:102FD400006E800EB019005C02E1AF510C0816E3DC
:102FE400AFC3C8F347EC0AF0B6C304F0B7C305F0A7
:102FF400B8C306F0B9C307F03DEC02F000C0B6F365
:1030040001C0B7F302C0B8F303C0B9F3B6C300F00C
:10301400B7C301F0B8C302F0B9C303F0046A056A88
:10302400066A076A62EC04F0000ED8A4010E006E72
:103034000052D8B477D0B6C300F0B7C301F0B8C318
:1030440002F0B9C303F0ABEC09F0000E046E0318F0
:1030540008E10450021805E10450011802E100508F
:10306400000A60E1800E006E800EBB19005C02E174
:10307400BA51010857E2BAC3C8F3CDEC06F000C058
:1030840004F001C005F002C006F003C007F0B6C3A7
:1030940000F0B7C301F0B8C302F0B9C303F02EECDB
:1030A4000EF05F0E046E700E056E090E066E810E34
:1030B400076EC8EC0BF0010ED8B0000E006E005283
:1030C40006E0090E0301BA5F000EBB5B05D00301E5
:1030D400080EBA5F000EBB5BBAC3C8F3CDEC06F0B2
:1030E40000C004F001C005F002C006F003C007F000
:1030F400B6C300F0B7C301F0B8C302F0B9C303F01C
:103104002EEC0EF0ABEC09F000C0BCF301C0BDF333
:1031140002C0BEF303C0BFF30301B66BB76BB86B59
:10312400B96B38D0B6C300F0B7C301F0B8C302F02E
:10313400B9C303F0ABEC09F000C0BCF301C0BDF3AC
:1031440002C0BEF303C0BFF3BCC300F0BDC301F0B3
:10315400BEC302F0BFC303F0CDEC0DF000C004F019
:1031640001C005F002C006F003C007F0B6C300F0CA
:10317400B7C301F0B8C302F0B9C303F0E0EC0DF03B
:1031840000C0B6F301C0B7F302C0B8F303C0B9F38B
:10319400BA6BBB6B010EB16FB1510A0A34E0B1C313
:1031A40000F0000E016E026E036E003600900136D0
:1031B4000236033600360090013602360336A50E79
:1031C4000024F66E580E0120F76E000E0220F86EF1
:1031D4000900F5CF01F00900F5CF02F00900F5CFA1
:1031E40003F00900F5CF04F00450BF5D08E103507B
:1031F400BE5D05E10250BD5D02E10150BC5D01E22E
:1032040002D0B12BC9D7B151AF25006E000EB02149
:10321400016EBA510026BB5101220050B25F015029
:10322400B35BB5B704D0AF51B01101E104D0010EC6
:10323400B25F000EB35B030EB415006EB5C301F0AC
:10324400000E01160050011004E0010EB25F000EE2
:10325400B35BB4A539D0B4A312D0B4A103D02D0E5E
:10326400A96F02D02B0EA96FA0C3E1FFA1C3E2FF97
:10327400A9C3E6FFA04BA12BC04BC12B0CD0B4A11A
:103284000AD0A0C3E1FFA1C3E2FF200EE66EA04B6B
:10329400A12BC04BC12B800E006E800EB319005CB5
:1032A40002E1B25100080FE2A0C3E1FFA1C3E2FFB3
:1032B400300EE66EA04BA12BC04BC12B010EB25FAA
:1032C400000EB35BE8D73AD0B4B718D0800E006EC6
:1032D400800EB319005C02E1B25100080FE2A0C3F2
:1032E400E1FFA1C3E2FF200EE66EA04BA12BC04B71
:1032F400C12B010EB25F000EB35BE8D7B4A312D0AA
:10330400B4A103D02D0EAA6F02D02B0EAA6FA0C3B6
:10331400E1FFA1C3E2FFAAC3E6FFA04BA12BC04B70
:10332400C12B0CD0B4A10AD0A0C3E1FFA1C3E2FF1A
:10333400200EE66EA04BA12BC04BC12BB1C300F0F5
:10334400B10700524CE0B1C300F0000E016E026EF2
:10335400036E0036009001360236033600360090C4
:10336400013602360336A50E0024F66E580E0120EF
:10337400F76E000E0220F86E0900F5CF04F0090084
:10338400F5CF05F00900F5CF06F00900F5CF07F0F9
:10339400BCC300F0BDC301F0BEC302F0BFC303F061
:1033A400F3EC04F00A0E046E000E056E066E076E52
:1033B400F3EC04F008C000F009C001F00AC002F008
:1033C4000BC003F0300E0026A0C3E1FFA1C3E2FF4F
:1033D40000C0E6FFA04BA12BC04BC12BAFD7800E82
:1033E400006E800EBB19005C02E1BA5100080FE2C6
:1033F400A0C3E1FFA1C3E2FF300EE66EA04BA12BF8
:10340400C04BC12B010EBA5F000EBB5BE8D7800E28
:10341400000A006E800EB019005C02E1AF5108088A
:1034240003E2080EB16F02D0AFC3B1F3B151AF5F85
:10343400000EB05BB15303E1B5B701D00AD0A0C30D
:10344400E1FFA1C3E2FF2E0EE66EA04BA12BC04B01
:10345400C12BB1C3C8F3CDEC06F0B6C304F0B7C3B7
:1034640005F0B8C306F0B9C307F0ADEC01F02FECDA
:103474000CF000C0BCF301C0BDF302C0BEF303C036
:10348400BFF3B1534DE0B107B1C300F0000E016EBC
:10349400026E036E003600900136023603360036A3
:1034A4000090013602360336A50E0024F66E580E3F
:1034B4000120F76E000E0220F86E0900F5CF04F02B
:1034C4000900F5CF05F00900F5CF06F00900F5CFA6
:1034D40007F0BCC300F0BDC301F0BEC302F0BFC31C
:1034E40003F0F3EC04F00A0E046E000E056E066E93
:1034F400076EF3EC04F008C000F009C001F00AC044
:1035040002F00BC003F0300E0026A0C3E1FFA1C3FC
:10351400E2FF00C0E6FFA04BA12BC04BC12BB1D7EB
:10352400AF51B0110FE0A0C3E1FFA1C3E2FF300E21
:10353400E66EA04BA12BC04BC12B010EAF5F000E5A
:10354400B05BEED7B4A71AD0800E006E800EB3190C
:10355400005C02E1B251000811E2A0C3E1FFA1C383
:10356400E2FF200EE66EA04BA12BC04BC12B010E37
:10357400B25F000EB35BB251B311EFE117EF0FF07E
:10358400C00EB415016EB5C302F0000E0216000E93
:10359400021802E1000E0118D8A480D0B4A927D0E3
:1035A400A5C3E9FFA6C3EAFFEECF00F0EECF01F01A
:1035B40000C0E9FF01C0EAFFEECFBCF3EECFBDF3DC
:1035C400EECFBEF3EECFBFF3A5C3E9FFA6C3EAFF78
:1035D400040EEE24006E000EEE20016EA5C3E1FF82
:1035E400A6C3E2FF00C0E6FF01C0E6FF2FD0A5C3DB
:1035F400E9FFA6C3EAFFEECF00F0EECF01F000C072
:10360400E9FF01C0EAFFEECF00F0EECF01F0000EBB
:1036140001BEFF0E026E036E00C0BCF301C0BDF319
:1036240002C0BEF303C0BFF3A5C3E9FFA6C3EAFF0C
:10363400020EEE24006E000EEE20016EA5C3E1FF23
:10364400A6C3E2FF00C0E6FF01C0E6FF800EBF197B
:10365400006E800E005C08E1000EBE5D05E1000E08
:10366400BD5D02E1000EBC5D18E2030EB413000E52
:10367400B513006A016A026A036ABC51005EBD5157
:10368400015ABE51025ABF51035A00C0BCF301C0D3
:10369400BDF302C0BEF303C0BFF34ED0B4A927D01C
:1036A400A5C3E9FFA6C3EAFFEECF00F0EECF01F019
:1036B40000C0E9FF01C0EAFFEECFBCF3EECFBDF3DB
:1036C400EECFBEF3EECFBFF3A5C3E9FFA6C3EAFF77
:1036D400040EEE24006E000EEE20016EA5C3E1FF81
:1036E400A6C3E2FF00C0E6FF01C0E6FF25D0A5C3E4
:1036F400E9FFA6C3EAFFEECF00F0EECF01F000C071
:10370400E9FF01C0EAFFEECFBCF3EECFBDF3000E3C
:10371400BE6FBF6FA5C3E9FFA6C3EAFF020EEE2486
:10372400006E000EEE20016EA5C3E1FFA6C3E2FF0A
:1037340000C0E6FF01C0E6FF000EB01902E1000E72
:10374400AF190FE1000E006EBF1908E10050BE1959
:1037540005E10050BD1902E1BC51000A02E1AF4B82
:10376400B02BC00EB415006E00C005F0AED0010E33
:10377400B16FB1510A0A34E0B1C300F0000E016E1A
:10378400026E036E003600900136023603360036B0
:103794000090013602360336A50E0024F66E580E4C
:1037A4000120F76E000E0220F86E0900F5CF01F03B
:1037B4000900F5CF02F00900F5CF03F00900F5CFB9
:1037C40004F00450BF5D08E10350BE5D05E1025002
:1037D400BD5D02E10150BC5D01E202D0B12BC9D74D
:1037E40082D0010EB16FB151080A34E0B1C300F0C8
:1037F400000E016E026E036E003600900136023632
:10380400033600360090013602360336CD0E00240E
:10381400F66E580E0120F76E000E0220F86E0900B5
:10382400F5CF01F00900F5CF02F00900F5CF03F060
:103834000900F5CF04F00450BF5D08E10350BE5DFC
:1038440005E10250BD5D02E10150BC5D01E202D020
:10385400B12BC9D748D0010EB16FB1510C0A34E075
:10386400B1C300F0000E016E026E036E00360090CC
:10387400013602360336003600900136023603362E
:10388400750E0024F66E580E0120F76E000E02200D
:10389400F86E0900F5CF01F00900F5CF02F0090038
:1038A400F5CF03F00900F5CF04F00450BF5D08E143
:1038B4000350BE5D05E10250BD5D02E10150BC5DF7
:1038C40001E202D0B12BC9D70ED00550000AD8B4FA
:1038D4004ED70550C00AD8B44AD70550800A81E0B3
:1038E4000550400AB8E0800E006E800EB019005CEE
:1038F40002E1AF51B15D03E2AFC3B1F30DD0800E6D
:10390400B019006E800E005C02E1B151AF5D04E2BB
:10391400B1C3AFF3000EB06FB251B3110EE0030E9A
:10392400B415006EB5C301F0000E0116005001106D
:1039340004E0010EB25F000EB35B800EB019006E9E
:10394400800EB319005C02E1B251AF5D05E2AF51E4
:10395400B25FB051B35B02D0B26BB36BC40EB4159B
:10396400016EB551080B026E0250080A02E1400EC6
:10397400011808E1B251B31104E0010EB25F000E68
:10398400B35B1CD0C00EB415016EB551080B026EAA
:103994000250080A02E1800E011810E1800E006E48
:1039A400800EB319005C02E1B251020805E2020E76
:1039B400B25F000EB35B02D0B26BB36BB4A55DD043
:1039C400B4A312D0B4A103D02D0EAB6F02D02B0E32
:1039D400AB6FA0C3E1FFA1C3E2FFABC3E6FFA04B03
:1039E400A12BC04BC12B34D0B4A10BD0A0C3E1FF99
:1039F400A1C3E2FF200EE66EA04BA12BC04BC12B4E
:103A040027D0C00EB415016EB551080B026E0250DA
:103A1400080A02E1800E01181BE1A0C3E1FFA1C363
:103A2400E2FF300EE66EA04BA12BC04BC12BB4AB12
:103A340003D0580EAC6F02D0780EAC6FA0C3E1FF78
:103A4400A1C3E2FFACC3E6FFA04BA12BC04BC12B2B
:103A5400B251B31111E0A0C3E1FFA1C3E2FF300EE4
:103A6400E66EA04BA12BC04BC12B010EB25F000E22
:103A7400B35BB251B311EFE174D0B251B31113E09F
:103A8400B4B711D0A0C3E1FFA1C3E2FF200EE66EDC
:103A9400A04BA12BC04BC12B010EB25F000EB35B38
:103AA400B251B311EFE1B4A312D0B4A103D02D0EDF
:103AB400AD6F02D02B0EAD6FA0C3E1FFA1C3E2FF37
:103AC400ADC3E6FFA04BA12BC04BC12B0CD0B4A1BE
:103AD4000AD0A0C3E1FFA1C3E2FF200EE66EA04B13
:103AE400A12BC04BC12BC00EB415016EB551080BF0
:103AF400026E0250080A02E1400E01180BE1A0C355
:103B0400E1FFA1C3E2FF300EE66EA04BA12BC04B38
:103B1400C12B27D0C00EB415016EB551080B026E2F
:103B24000250080A02E1800E01181BE1A0C3E1FF64
:103B3400A1C3E2FF300EE66EA04BA12BC04BC12BFC
:103B4400B4AB03D0580EAE6F02D0780EAE6FA0C3E4
:103B5400E1FFA1C3E2FFAEC3E6FFA04BA12BC04B24
:103B6400C12B800E006E800EB019005C02E1AF51D3
:103B7400B15D0BE2A0C3E1FFA1C3E2FF300EE66E2C
:103B8400A04BA12BC04BC12BECD7AFC300F0B0C3EB
:103B940001F0010EAF5F000EB05B00500110D8B40D
:103BA4002AD1C00EB415006E00C0C2F30AD1AFC34F
:103BB40000F0B0C301F0000EB0BFFF0E026E036E42
:103BC4000036009001360236033600360090013686
:103BD40002360336A50E0024F66E580E0120F76E49
:103BE400000E0220F86E0900F5CF04F00900F5CFAD
:103BF40005F00900F5CF06F00900F5CF07F0BCC3C6
:103C040000F0BDC301F0BEC302F0BFC303F0F3EC88
:103C140004F00A0E046E000E056E066E076EF3ECD9
:103C240004F008C000F009C001F00AC002F00BC0A3
:103C340003F0300E0024B16FD3D0B4AB45D0AFC382
:103C440000F0B0C301F0000EB0BFFF0E026E036EB1
:103C540000360090013602360336003600900136F5
:103C640002360336CD0E0024F66E580E0120F76E90
:103C7400000E0220F86E0900F5CF04F00900F5CF1C
:103C840005F00900F5CF06F00900F5CF07F0BCC335
:103C940000F0BDC301F0BEC302F0BFC303F0F3ECF8
:103CA40004F00F0E0016000E011602160316200E65
:103CB4000024F66E590E0120F76E000E0220F86EF5
:103CC4000900F5CFB1F344D0AFC300F0B0C301F0A5
:103CD400000EB0BFFF0E026E036E00360090013678
:103CE4000236033600360090013602360336CD0E16
:103CF4000024F66E580E0120F76E000E0220F86EB6
:103D04000900F5CF04F00900F5CF05F00900F5CF5F
:103D140006F00900F5CF07F0BCC300F0BDC301F005
:103D2400BEC302F0BFC303F0F3EC04F00F0E0016A1
:103D3400000E011602160316ED0E0024F66E580E40
:103D44000120F76E000E0220F86E0900F5CFB1F3E2
:103D540047D0AFC300F0B0C301F0000EB0BFFF0EF8
:103D6400026E036E003600900136023603360036CA
:103D74000090013602360336750E0024F66E580E96
:103D84000120F76E000E0220F86E0900F5CF04F052
:103D94000900F5CF05F00900F5CF06F00900F5CFCD
:103DA40007F0BCC300F0BDC301F0BEC302F0BFC343
:103DB40003F0F3EC04F0070E0014B16F300EB127DA
:103DC4000FD0C251000AD8B4F2D6C251C00AD8B436
:103DD400EED6C251800AD8B430D7C251400AB9E0F5
:103DE400A0C3E1FFA1C3E2FFB1C3E6FFA04BA12B37
:103DF400C04BC12BCAD6B4A71AD0800E006E800E59
:103E0400B319005C02E1B251000811E2A0C3E1FF62
:103E1400A1C3E2FF200EE66EA04BA12BC04BC12B29
:103E2400010EB25F000EB35BB251B311EFE117EFB5
:0C3E34000FF0C0C300F0C1C301F0120089
:103E40000C6A0E6A0250D8A439EF1FF001C002F0CC
:103E500000C001F0006A0E860250D8A439EF1FF0AE
:103E600001C002F0016A0E960E880250D8B44BEFE2
:103E70001FF00E50035ED8A4D8A051EF1FF0D890C9
:103E800002BE57EF1FF0003601360236032E40EF18
:103E90001FF051EF1FF0010E0C6E1FEC00F05BEFF6
:103EA0001FF0020E0C6E12EC00F05BEF1FF0040E20
:083EB0000C6E0EEC00F0120094
:103EB8000201EA6BEB6BE86BE96BA2C300F0A3C3EA
:103EC80001F0A4C302F0010E0301A227000EA323F0
:103ED800A42300C0F6FF01C0F7FF02C0F8FF0900E5
:103EE800F5CF00F000C0E7F20052D8B490EF24F00C
:103EF8000201E751250A0DE0A0C3E1FFA1C3E2FFDB
:103F0800E7C2E6FF0301A04BA12B0201EA4BEB2B12
:103F1800D4D7E36BE46BE86BE96BA2C3C8F3A3C324
:103F2800C9F3A4C3CAF379EC04F000C0A2F301C03A
:103F3800A3F302C0A4F300C0F6FF01C0F7FF02C05C
:103F4800F8FF0900F5CF00F0000E016E00C0C8F3BD
:103F5800ECEC0EF0005239E00201E36BE46B020175
:103F6800E3C200F0E4C201F00A0E046E000E056E12
:103F7800FFEC0DF0A2C3F6FFA3C3F7FFA4C3F8FF3D
:103F88000900F5CF02F002500024E36F000E012073
:103F9800E46F300EE35F000EE45B010E0301A2271D
:103FA800000EA323A423A2C3F6FFA3C3F7FFA4C351
:103FB800F8FF0900F5CF00F0000E016E00C0C8F34D
:103FC800ECEC0EF00052CBE133D0A2C3F6FFA3C352
:103FD800F7FFA4C3F8FF0900F5CF01F001502A0A42
:103FE80027E1A5C3E9FFA6C3EAFFEECF00F0EECFB5
:103FF80001F000C0E9FF01C0EAFFEECFE3F2EECF27
:10400800E4F2A5C3E9FFA6C3EAFF020EEE24006EA0
:10401800000EEE20016EA5C3E1FFA6C3E2FF00C0BB
:10402800E6FF01C0E6FF010EA227000EA323A4238A
:10403800A2C3F6FFA3C3F7FFA4C3F8FF0900F5CF97
:1040480001F001502E0A74E10301010EA227000EAF
:10405800A323A423A2C3F6FFA3C3F7FFA4C3F8FFB7
:104068000900F5CF01F001502A0A28E1A5C3E9FFAC
:10407800A6C3EAFFEECF00F0EECF01F000C0E9FFE3
:1040880001C0EAFFEECFE5F2EECFE6F2A5C3E9FF05
:10409800A6C3EAFF020EEE24006E000EEE20016EAB
:1040A800A5C3E1FFA6C3E2FF00C0E6FF01C0E6FF2B
:1040B800010EA227000EA323A42339D00201E56B29
:1040C800E66BA2C3F6FFA3C3F7FFA4C3F8FF09007A
:1040D800F5CF00F0000E016E00C0C8F3ECEC0EF056
:1040E800005225E0E5C200F0E6C201F00A0E046EB7
:1040F800000E056EFFEC0DF0A2C3F6FFA3C3F7FF99
:10410800A4C3F8FF0900F5CF02F002500024020111
:10411800E56F000E0120E66F300EE55F000EE65BEE
:10412800010E0301A227000EA323A423CAD703D09C
:104138000201E56BE66BA2C300F0A3C301F0A4C3C0
:1041480002F0010E0301A227000EA323A42300C03E
:10415800F6FF01C0F7FF02C0F8FF0900F5CFE7F24C
:1041680006D1EAC200F0EBC201F0DAD30201E88D11
:104178002ED12DD1E88BE88F2AD1A5C3E9FFA6C39C
:10418800EAFFEECF00F0EECF01F000C0E9FF01C07A
:10419800EAFFEECFA7F3EECFA8F3A5C3E9FFA6C3C6
:1041A800EAFF020EEE24006E000EEE20016EA5C39B
:1041B800E1FFA6C3E2FF00C0E6FF01C0E6FF000E74
:1041C8000301A81902E1000EA71904E16C0EA76FFC
:1041D800010EA86FA96BAA6BA951A725E96EAA5170
:1041E800A821EA6EEE520BE0010EA925006E000E22
:1041F800AA21016E00C0A9F301C0AAF3EDD70201FC
:10420800E551E6110EE00301AA510201E65D04E161
:104218000301A9510201E55D04E2E5C2A9F3E6C282
:10422800AAF3E4510301AA5D04E10201E351030189
:10423800A95D08E2A9510201E35F0301AA51020145
:10424800E45B03D00201E36BE46BE8B718D0E3C288
:1042580000F0E4C201F0010EE35F000EE45B0050E1
:1042680001100DE0A0C3E1FFA1C3E2FF200EE66E3E
:104278000301A04BA12B0201EA4BEB2BE8D7A9C302
:1042880002F0AAC303F0010E0301A95D006E000E3F
:10429800AA59016E00C0A9F301C0AAF30250031085
:1042A8001AE0A7C3E9FFA8C3EAFFA0C3E1FFA1C3BF
:1042B800E2FFEECFE6FFA04BA12B010EA725006E73
:1042C800000EA821016E00C0A7F301C0A8F30201E7
:1042D800EA4BEB2BD4D70201E8A718D0E3C200F0D1
:1042E800E4C201F0010EE35F000EE45B0050011030
:1042F8000DE0A0C3E1FFA1C3E2FF200EE66E0301BB
:10430800A04BA12B0201EA4BEB2BE8D7D6D5A5C3CE
:10431800E9FFA6C3EAFFEECF00F0EECF01F000C040
:10432800E9FF01C0EAFFEECFE7F2A5C3E9FFA6C3A4
:10433800EAFF020EEE24006E000EEE20016EA5C309
:10434800E1FFA6C3E2FF00C0E6FF01C0E6FFE70EFB
:104358000301A76F020EA86F010EA96F000EAA6FC6
:104368004ED7C00E0201E813000EE91330D0020147
:10437800E751000AD8B4F5D6E7516C0AD8B4F6D696
:10438800E7514C0AD8B4F2D6E7516F0AD8B4EED642
:10439800E751640AD8B4EDD6E751690AD8B4E9D62A
:1043A800E751700AD8B4E6D6E751580AD8B4E2D62D
:1043B800E751780AD8B4DFD6E751730AD8B4DDD606
:1043C800E751630AA4E0E751750ACBE0C0D7C00EF5
:1043D800E815016EE9C202F0000E0216000E02187E
:1043E80002E1000E01183EE1A5C3E9FFA6C3EAFFFA
:1043F800EECF00F0EECF01F000C0E9FF01C0EAFF08
:10440800EECFA7F3EECFA8F3A5C3E9FFA6C3EAFF53
:10441800020EEE24006E000EEE20016EA5C3E1FF31
:10442800A6C3E2FF00C0E6FF01C0E6FF800E03015D
:10443800A819006E800E005C02E1000EA75D11E273
:10444800030E0201E813000EE9130301A751000847
:10445800006EA8C301F0000E015600C0A7F301C00A
:10446800A8F322D0A5C3E9FFA6C3EAFFEECF00F068
:10447800EECF01F000C0E9FF01C0EAFFEECFA7F3DD
:10448800EECFA8F3A5C3E9FFA6C3EAFF020EEE2408
:10449800006E000EEE20016EA5C3E1FFA6C3E2FF89
:1044A80000C0E6FF01C0E6FF000E0201E61902E1C6
:1044B800000EE5190AE1000E0301A81902E1000E39
:1044C800A71903E10201E54BE62B0201C00EE8152E
:1044D800006E00C005F084D00201010EE76FE751BD
:1044E800050A25E0E7C200F0000E016E026E036EB9
:1044F800003600900136023603363D0E0024F66E73
:10450800590E0120F76E000E0220F86E0900F5CF53
:1045180001F00900F5CF02F002500301A85D02E1A5
:104528000150A75D01E203D00201E72BD8D766D07E
:104538000201010EE76FE751040A25E0E7C200F027
:10454800000E016E026E036E0036009001360236D0
:104558000336470E0024F66E590E0120F76E000E42
:104568000220F86E0900F5CF01F00900F5CF02F03E
:1045780002500301A85D02E10150A75D01E203D0EA
:104588000201E72BD8D73AD00201010EE76FE751B5
:10459800060A25E0E7C200F0000E016E026E036E07
:1045A80000360090013602360336310E0024F66ECE
:1045B800590E0120F76E000E0220F86E0900F5CFA3
:1045C80001F00900F5CF02F002500301A85D02E1F5
:1045D8000150A75D01E203D00201E72BD8D70ED026
:1045E8000550000AD8B478D70550C00AD8B474D793
:1045F8000550800A9DE00550400AC6E00201800E81
:10460800006E800EE619005C02E1E551E75D03E209
:10461800E5C2E7F20DD0800EE619006E800E005C50
:1046280002E1E751E55D04E2E7C2E5F2000EE66F5C
:10463800E351E4110EE0030EE815006EE9C201F043
:10464800000E01160050011004E0010EE35F000E99
:10465800E45B800EE619006E800EE419005C02E14E
:10466800E351E55D05E2E551E35FE651E45B02D025
:10467800E36BE46BC40EE815016EE951080B026E9A
:104688000250080A02E1400E011808E1E351E41162
:1046980004E0010EE35F000EE45B1CD0C00EE815D9
:1046A800016EE951080B026E0250080A02E1800E01
:1046B800011810E1800E006E800EE419005C02E122
:1046C800E351020805E2020EE35F000EE45B02D04C
:1046D800E36BE46BA0C3C8F3A1C3C9F3C8EC0CF047
:1046E80000C0A0F301C0A1F3E5C200F0E6C201F0EA
:1046F800010EE55F000EE65B00500110D8B4ECD067
:10470800C00EE815006E00C0ABF3C9D00201E5C2C7
:1047180000F0E6C201F0000EE6BFFF0E026E036E67
:10472800003600900136023603363D0E0024F66E40
:10473800590E0120F76E000E0220F86E0900F5CF21
:1047480004F00900F5CF05F0A7C300F0A8C301F0F5
:10475800E4EC0DF00A0E046E000E056EE4EC0DF0AC
:1047680008C000F009C001F0300E0024E76FA7D0A0
:104778000201E8AB35D0E5C200F0E6C201F0000E58
:10478800E6BFFF0E026E036E003600900136023659
:104798000336470E0024F66E590E0120F76E000E00
:1047A8000220F86E0900F5CF04F00900F5CF05F0F6
:1047B800A7C300F0A8C301F0E4EC0DF00F0E00163B
:1047C800000E0116FE0E0024F66E580E0120F76E3C
:1047D800000EF86E000EF8220900F5CFE7F234D08B
:1047E800E5C200F0E6C201F0000EE6BFFF0E026E61
:1047F800036E00360090013602360336470E002459
:10480800F66E590E0120F76E000E0220F86E0900B0
:10481800F5CF04F00900F5CF05F0A7C300F0A8C351
:1048280001F0E4EC0DF00F0E0016000E01160F0E4D
:104838000024F66E590E0120F76E000EF86E000E79
:10484800F8220900F5CFE7F23AD00201E5C200F0FC
:10485800E6C201F0000EE6BFFF0E026E036E0036E0
:104868000090013602360336310E0024F66E590EDA
:104878000120F76E000E0220F86E0900F5CF04F053
:104888000900F5CF05F0A7C300F0A8C301F0E4ECD8
:104898000DF0070E0014E76F300EE72710D0030164
:1048A800AB51000AD8B432D7AB51C00AD8B42ED70E
:1048B800AB51800AD8B45CD7AB51400AC6E00301BB
:1048C800A0C3E1FFA1C3E2FFE7C2E6FFA04BA12B13
:1048D8000201EA4BEB2B08D7E8A71CD0800E006E2C
:1048E800800EE419005C02E1E351000813E2A0C362
:1048F800E1FFA1C3E2FF200EE66E0301A04BA12B4E
:104908000201EA4BEB2B010EE35F000EE45BE3517F
:10491800E411EDE161EF1FF0EAC200F0EBC201F033
:0249280012007B
:0A492A00000E9EBA010E006E12008E
:10493400980E03019C6F030E9D6F93C3A0F394C361
:10494400A1F395C3A2F396C3A3F397C3A4F39C0E58
:10495400A56F030EA66F5CEC1FF000C09AF301C0B4
:104964009BF3005003019325E16E01509421E26E04
:0C497400E66A9AC300F09BC301F0120039
:1049800081AA18D0020E0B6E040E0C6EBA0E0D6EBC
:104990000D2EFED70C2EFCD70B2EFAD7000081BAB5
:1049A00005D00201D96B010ED86F03D00201010EB0
:0649B000D96F00D01200D7
:1049B600AECF01F0ABA202D0AB98AB8801C000F03D
:0249C6001200DD
:1049C80000C008F00150006E016A026A036A0B6AAF
:1049D8000C6A016A026A036A960E036E0A6A00AEDE
:1049E800FCEF24F0081E001E082AD8B4002A0A8EFC
:1049F80000C001F008C000F0086A026A20EC1FF04D
:024A080012009A
:104A0A0093C3A0F394C3A1F3F8EC0EF0DA0EA06FEF
:0A4A1A00020EA16FF8EC0EF012007E
:104A2400980E03019E6F030E9F6F93C3A0F394C36C
:104A3400A1F395C3A2F396C3A3F397C3A4F39E0E65
:104A4400A56F030EA66F12EC0FF000C09CF301C01B
:104A54009DF300509325E16E01509421E26EE66AC5
:0A4A64009CC300F09DC301F0120096
:104A6E0026C312F327C313F329C314F32AC315F372
:104A7E002BC316F32CC317F32DC318F324C3DEF286
:104A8E0025C3DDF228C3DCF2300E0301125D006E89
:104A9E00016A000E015AE80E046E030E056EFFEC5D
:104AAE000DF000C093F301C094F3300E135D006E51
:104ABE00016A000E015A640E046E000E056EFFECC4
:104ACE000DF0005093250201D56F01500301942182
:104ADE000201D66F300E0301145D006E016A000EE6
:104AEE00015A0A0E046E000E056EFFEC0DF000501A
:104AFE000201D5270150D623300E0301155D006E3D
:104B0E00016A000E015A00500201D5270150D6232A
:104B1E0031C3E2F232C3E1F233C3E0F236C3DFF265
:104B2E0034C300F335C301F337C302F338C303F3C1
:104B3E0039C304F33AC305F33BC306F3300E030146
:104B4E00005D006E016A000E015AE80E046E030E3F
:104B5E00056EFFEC0DF000C093F301C094F3300E20
:104B6E00015D006E016A000E015A640E046E000EA5
:104B7E00056EFFEC0DF0005093250201D26F01502F
:104B8E00030194210201D36F300E0301025D006E0A
:104B9E00016A000E015A0A0E046E000E056EFFEC3D
:104BAE000DF000500201D2270150D323300E030125
:104BBE00035D006E016A000E015A00500201D227F9
:064BCE000150D323120088
:104BD40081AE1AD0020E0B6E040E0C6EBA0E0D6E60
:104BE4000D2EFED70C2EFCD70B2EFAD7000081BE5B
:104BF40007D0010E176E0201D96B010E156E03D09A
:0A4C04000201010ED96F00D012006A
:104C0E004E0E0201F86F1C0EF96FC80EFA6F030EEE
:104C1E00FB6FB60EF46F490EF56F000EF66F000EB9
:104C2E00F76F2A0EEC6F490EED6F000EEE6F000E51
:104C3E00EF6FFF0EF06FFF0EF16F000EF26F000EB2
:104C4E00F36FAC8A900EAB6E948E949C9EAA03D09A
:084C5E00AECF00F0FBD71200FD
:104C66000900F5CFE6FF0006FBE10106F9E11200B7
:104C7600938E938C938A9590959295949586176AC0
:064C8600166A156A120017
:104C8C0001010951000AD8A4B0D074DE010E010153
:104C9C00525F000E535B0201D851010A0CE1839064
:104CAC00010E0101096F540E0301A06F010EA16FDB
:104CBC00F8EC0EF01BD0000E0101531902E1000EAE
:104CCC0052190BE18390010E096F1E0E0301A06FA8
:104CDC00010EA16FF8EC0EF009D003010D0EA06FC0
:104CEC00010EA16FF8EC0EF00101096B020E0B6EB8
:104CFC00040E0C6EBA0E0D6E0D2EFED70C2EFCD7BC
:104D0C000B2EFAD7000036DE020E0B6E040E0C6E64
:104D1C00BA0E0D6E0D2EFED70C2EFCD70B2EFAD71D
:104D2C00000028DE020E0B6E040E0C6EBA0E0D6E19
:104D3C000D2EFED70C2EFCD70B2EFAD700001ADE48
:104D4C00020E0B6E040E0C6EBA0E0D6E0D2EFED7EF
:104D5C000C2EFCD70B2EFAD700000CDE020E0B6EBD
:104D6C00040E0C6EBA0E0D6E0D2EFED70C2EFCD74B
:104D7C000B2EFAD70000FEDD020E0B6E040E0C6E2D
:104D8C00BA0E0D6E0D2EFED70C2EFCD70B2EFAD7AD
:104D9C000000F0DD020E0B6E040E0C6EBA0E0D6EE2
:104DAC000D2EFED70C2EFCD70B2EFAD70000E2DD11
:104DBC00020E0B6E040E0C6EBA0E0D6E0D2EFED77F
:104DCC000C2EFCD70B2EFAD70000D4DD020E0B6E86
:104DDC00040E0C6EBA0E0D6E0D2EFED70C2EFCD7DB
:104DEC000B2EFAD70000C6DD4BD70101096B090E5B
:084DFC00526F000E536F12000C
:104E04000A0E0301936F010E946FFDDD0B0E0B6E02
:104E1400260E0C6E5D0E0D6E0D2EFED70C2EFCD7DD
:104E24000B2EFAD700000000FD0E936F000E946F56
:104E3400EADD0B0E0B6E260E0C6E5D0E0D6E0D2E46
:104E4400FED70C2EFCD70B2EFAD700000000120060
:104E5400838401010951000A29E190DD0201D8513E
:104E6400010A0CE1010E0101096F160E0301A06F86
:104E7400010EA16FF8EC0EF0839417D083A60CD02A
:104E8400010E0101096F180E0301A06F000EA16F3E
:104E9400F8EC0EF0839409D00301550EA06F000EB8
:104EA400A16FF8EC0EF00101096BD3D70101096B76
:024EB4001200EA
:104EB6000301916B926B36DD005201E1FCD778DD80
:104EC60000C091F30050240AD8A420D12BDD005253
:104ED60001E1FCD76DDD00C091F30050470AD8A46C
:104EE60015D120DD005201E1FCD762DD00C091F34F
:104EF6000050500AD8A40AD115DD005201E1FCD7B2
:104F060057DD00C091F30050470AD8A4FFD00ADD50
:104F1600005201E1FCD74CDD00C091F30050470A76
:104F2600D8A4F4D0FFDC005201E1FCD741DD00C07B
:104F360091F30050410AD8A4E9D0F4DC005201E113
:104F4600FCD736DD00C091F3030191510A0A14E043
:104F5600190EE16E030EE26E9251E126D8B0E22AF6
:104F660091C3E6FFDFDC005201E1FCD721DD00C082
:104F760091F30301922BE8D7926B0201D42B74DDD7
:104F8600730E0301936F030E946F530E956F590EB4
:104F9600966F000E976FD5C298F3D6C299F3C7DC09
:104FA600D5C200F0D6C201F00CDD000E046E000E74
:104FB600056E000E066E7D0E076E3DEC02F09A0E33
:104FC600046E990E056E190E066E7E0E076E2EEC99
:104FD6000EF000C00EF301C00FF302C010F303C0C1
:104FE60011F3120E0301936F030E946F4F0E956F1C
:104FF600590E966F000E976F00C098F301C099F393
:1050060002C09AF303C09BF30ADD820E936F030E70
:10501600946F570E956F590E966F000E976FD2C20A
:1050260098F3D3C299F383DCD2C200F0D3C201F065
:10503600C8DC000E046E000E056E000E066E7C0EB9
:10504600076E3DEC02F09A0E046E990E056E190E6F
:10505600066E7E0E076E2EEC0EF000C0FCF201C04E
:10506600FDF202C0FEF203C0FFF2000E046E000E57
:10507600056E7A0E066E880E076EC8EC0BF0010EF2
:10508600D8B0000E006E005223E0070E0301936FA6
:10509600030E946F5B0E956F590E966F000E976F09
:1050A600FCC298F3FDC299F3FEC29AF3FFC29BF3CA
:1050B600B6DC07C301F308C302F309C303F30AC34B
:1050C60004F30BC305F30CC306F3300E006F14D0C4
:1050D6000301000E936F030E946F5F0E956F590ECA
:1050E600966F000E976FFCC298F3FDC299F3FEC24D
:1050F6009AF3FFC29BF393DC0E6B0F6B106B116B75
:0E5106000201D451040802E2010ED76F12001C
:10511400940E0301936F000E946F75DC060E0B6EF4
:10512400130E0C6EAD0E0D6E0D2EFED70C2EFCD78D
:105134000B2EFAD7000000006A0EA06F000EA16FBC
:10514400F8EC0EF00B0E0B6E260E0C6E5D0E0D6E53
:105154000D2EFED70C2EFCD70B2EFAD70000000024
:10516400830EA06F000EA16FF8EC0EF0060EA06F78
:10517400020EA16FF8EC0EF01E0EA06F020EA16FCE
:10518400F8EC0EF08B0EA06F010EA16FF8EC0EF090
:10519400DEC2C8F327EC0EF0DDC2C8F327EC0EF034
:1051A400DCC2C8F327EC0EF012C3C8F327EC0EF0F0
:1051B40013C3C8F327EC0EF014C3C8F327EC0EF0A6
:1051C40015C3C8F327EC0EF017C3C8F327EC0EF091
:1051D40018C3C8F327EC0EF0710E0301A06F010E83
:1051E400A16FF8EC0EF0E2C2C8F327EC0EF0E1C2B6
:1051F400C8F327EC0EF0E0C2C8F327EC0EF0DFC2D0
:10520400C8F327EC0EF000C3C8F327EC0EF001C37B
:10521400C8F327EC0EF002C3C8F327EC0EF003C367
:10522400C8F327EC0EF005C3C8F327EC0EF006C351
:10523400C8F327EC0EF07D0E0301A06F010EA16FE1
:10524400F8EC0EF01E0EA06F020EA16FF8EC0EF03B
:10525400060E0B6E130E0C6EAD0E0D6E0D2EFED7DC
:105264000C2EFCD70B2EFAD7000000001A0EC86FC4
:1052740027EC0EF0330E0B6EBB0E0C6EDF0E0D6EB4
:105284000D2EFED70C2EFCD70B2EFAD700000000F3
:10529400150E0B6E4B0E0C6EBE0E0D6E0D2EFED744
:1052A4000C2EFCD70B2EFAD70000700E0301A06F52
:1052B400020EA16FF8EC0EF00B0E0B6E260E0C6EA8
:1052C4005D0E0D6E0D2EFED70C2EFCD70B2EFAD7CD
:1052D40000000000890EA06F020EA16FF8EC0EF022
:1052E400640EA06F020EA16FF8EC0EF0DEC2C8F3DC
:1052F40027EC0EF0DDC2C8F327EC0EF0DCC2C8F3D5
:1053040027EC0EF012C3C8F327EC0EF013C3C8F356
:1053140027EC0EF014C3C8F327EC0EF015C3C8F342
:1053240027EC0EF017C3C8F327EC0EF018C3C8F32C
:1053340027EC0EF0500E0301A06F020EA16FF8ECE3
:105344000EF0E2C2C8F327EC0EF0E1C2C8F327EC7A
:105354000EF0E0C2C8F327EC0EF0DFC2C8F327EC6E
:105364000EF000C3C8F327EC0EF001C3C8F327EC1A
:105374000EF002C3C8F327EC0EF003C3C8F327EC06
:105384000EF005C3C8F327EC0EF006C3C8F327ECF0
:105394000EF0060E0B6E130E0C6EAD0E0D6E0D2E72
:1053A400FED70C2EFCD70B2EFAD7000000001A0EE5
:1053B4000301C86F27EC0EF0330E0B6EBB0E0C6EA0
:1053C400DF0E0D6E0D2EFED70C2EFCD70B2EFAD74A
:0653D400000000001200C1
:1053DA00B2EC2CF04BDCB886B06ACF0EAF6EAC8460
:1053EA0011DC020E0B6E040E0C6EBA0E0D6E0D2E33
:1053FA00FED70C2EFCD70B2EFAD700008390EAECCE
:10540A0025F01750010AD8A494D00201D951010AF3
:10541A00D8A48FD01550010A37E18380D86B31DCCC
:10542A000201D851000A0BE10201D751000A02E138
:10543A003DDDFAD70201D46BD76BDFDC66DE0101F2
:10544A000951000A0BE1C0EC24F00201D851010A0B
:10545A0004E1010E0101096F8392F1D70B0E0B6E65
:10546A00260E0C6E5D0E0D6E0D2EFED70C2EFCD781
:10547A000B2EFAD700000000176A166A156A020195
:10548A00D86B0101096B54D01650010A51E19E0EE6
:10549A000301A06F000EA16FF8EC0EF0D6DC02013A
:1054AA00D851000A2FE10201D751000A02E1FEDCBD
:1054BA00FAD70201D46BD76BA0DC27DE8382C80E31
:1054CA000301A06F000EA16FF8EC0EF0020E0B6E36
:1054DA00040E0C6EBA0E0D6E0D2EFED70C2EFCD7D6
:1054EA000B2EFAD700008380150E0B6E4B0E0C6E36
:1054FA00BE0E0D6E0D2EFED70C2EFCD70B2EFAD734
:10550A000000839001010951000A0BE1C0EC24F06C
:10551A000201D851010A04E1010E0101096F8392C7
:10552A00F1D7176A166A0201D86B0101096B00D01C
:0C553A0000D0010E0201D96F62D7FFD72C
:1059640010EE15F0C70E006E030E016E460EF66EB5
:0E597400550EF76E000EF86E33EC26F01200A2
:015546000064
:015547000063
:015548000062
:1055490044657465637465642061626E6F726D6130
:105559006C697469657320696E2073656E736F7207
:105569002C2070726F63656564696E6720746F20A3
:0D55790073656E6420534D532E2E2E0D00D1
:1055860053656E736F72207374696C6C20696E203C
:055596007573650D00B6
:10559B0041542B434D47533D222B36333931353351
:0955AB00303133343631220D0099
:1055B40053595354454D205245414459207C7C2035
:0155C40000E6
:0A55C50041542B434D47463D310091
:1055CF004D6F646520323A204175746F6D6174655B
:1055DF00642E2E2E20496E6974696174696E67207E
:0A55EF0053454E534F522E2E2E004E
:1055F9000D205374617274696E67207265636F72EE
:1056090064696E672E2E2E20707265737320636134
:105619006E63656C20627574746F6E20746F20738D
:05562900746F700D001C
:0C562E0041542B4950523D3936303000B9
:01563A00006F
:03563B00415400D7
:09563E00566962726174650D0089
:0856470041424F5254210D00B5
:10564F004578636565646564204475726174696F3C
:10565F006E204C696D69742C2070726F6365656480
:10566F00696E6720746F2073656E6420534D532EDF
:04567F002E2E0D00BE
:0256830009001C
:1056850043414E43454C20425554544F4E205052B1
:085695004553534544210D006B
:05569D006E756C6C004D
:0C56A200266C6F6E6769747564653D00CE
:0E56AE002670686F6E654E756D6265723D0008
:1056BC0020746F207361766520746F207365727629
:1056CC00657220616E6420736565206C6F63617414
:1056DC00696F6E2C207573653A2068747470733A18
:1056EC002F2F7272732D72656365697665722D77D3
:1056FC006562736974652E6865726F6B7561707025
:10570C002E636F6D2F7472616E736D697474657234
:10571C00732F6E65777472616E736D6974746572D4
:0B572C003F6C617469747564653D009A
:10573700414C45525421205472616E736D697474E3
:085747006572206E6F3A20002C
:10574F002B3633393935343338353432380000009D
:10575F00000000000000000000000000000000003A
:10576F00000000000000000000000000000000002A
:02577F00000028
:0D578100204C6F6E6769747564653A2000F6
:07578E00286E756C6C290008
:0C579500204C617469747564653A200052
:1057A10041542B434D47533D222B3633393233334A
:0957B100323035373735220D0086
:1057BA0048454C5021204920616D20696E20646162
:1057CA006E6765722C207365656B20617574686FEE
:1057DA007269746965732F626172616E676179209B
:1057EA006F6666696369616C732E20436F6F7264BA
:0957FA00696E617465733A2000C8
:025803000000A3
:0158050000A2
:025806000000A0
:01580800009F
:01580900009E
:01580A00009D
:02580B000D008E
:10580D000000007F000020820000488500007A889B
:10581D0000401C8C0050438F002474928096189683
:10582D0020BC3E99286B6E9CF90215A0EC782DC119
:04583D00CAF249E280
:105841000000007FCDCC4C7B0AD723786F12037503
:1058510017B75171ACC5276EBD37066B95BF56673B
:1058610077CC2B645F700961FFE65B5D08E53C3C2A
:045871006042221B54
:1058750001000000080000004000000000020000D8
:10588500001000000080000000000400000020005F
:1058950000000001000000080000004000000000BA
:1058A500010000000A00000064000000E803000099
:1058B50010270000A086010040420F008096980046
:0858C50000E1F50500CA9A3B61
:1058CD0001000000100000000001000000100000A9
:1058DD000000010000001000000000010000001099
:1058ED003031323334353637383961626364656649
:0158FD0000AA
:1058FE0030313233343536373839414243444546F8
:01590E000098
:10590F003031323334353637383961626364656626
:01591F000087
:1059200030313233343536373839414243444546D5
:015930000076
:0C5931000100080040000002001000808F
:0A593D0001000A006400E8031027CF
:08594700010010000001001036
:04594F002538660091
:04595300253875007E
:04595700253875007A
:04595B002538660085
:04595F002538660081
:020000040030CA
:0E000000000C1F1EFF8381FF0FC00FE00F409A
:00000001FF
