:1000000061EF29F00000000000EF00F000000000A8
:0A0010000000000000000000F3D71C
:08001C000AAE029E000E120064
:100024000B840BAE1DEF00F0010E036E026A016A31
:0A003400006A0A360232FF0E1200C5
:0E003E00026A016A006A086A036A000E120074
:10004C000B820BAE30EF00F00368026801680068A9
:08005C000A360232FF0E120009
:100064000CB074EF00F00CA21AEF01F00E6A000E4F
:1000740002648BEF00F0F00E0214D8A456EF00F0E7
:10008400023A01380F0B02260138F00B016E0038DA
:100094000F0B01260038F00B006E08380F0B0026FA
:1000A4000838F00B086E0E84D89002BE6FEF00F093
:1000B40008360036013602360E2A02BE6FEF00F013
:1000C40008360036013602360E2A02BE6FEF00F003
:1000D40008360036013602360E2A0E50036410EF3D
:1000E40001F0035E0BBC08AE15EF01F0D880800E62
:1000F40008640030000E002201220222D8A015EF6D
:1001040001F0023201320032034A1AEF01F015EF16
:1001140001F001C002F000C001F008C000F0086A5C
:10012400000E0E860264C2EF00F0F00E0214D8A492
:10013400AAEF00F0023A01380F0B02260138F00B47
:10014400016E00380F0B01260038F00B006E0E8490
:10015400D89002BE6FEF00F00036013602360E2A48
:1001640002BE6FEF00F00036013602360E2A02BEE0
:100174006FEF00F00036013602360E2A6FEF00F002
:1001840001C002F000C001F0006A000E0E960E8855
:100194000264EFEF00F0F00E0214D8A4DAEF00F0DE
:1001A400023A01380F0B02260138F00B016E0E845F
:1001B400D89002BE6FEF00F0013602360E2A02BE5E
:1001C4006FEF00F0013602360E2A02BE6FEF00F028
:1001D400013602360E2A6FEF00F001C002F0016A08
:1001E400000E0E8602641FEF01F0F00E0214D8A474
:1001F400FEEF00F0023A0E84D89002BE6FEF00F0DA
:1002040002360E2A02BE6FEF00F002360E2A02BE3C
:100214006FEF00F002360E2A6FEF00F0010E0C6E45
:10022400FFDE22EF01F0020E0C6EF6DE22EF01F08B
:10023400040E0C6E09DF22EF01F0080E0C6EFDDED9
:020244001200A6
:10024600025006180E6E086A096A0B6A03500764A4
:1002560016EF02F006500A6E068E028E03500B6EE3
:100266000750036E000E0B6466EF01F00B50075E3D
:10027600D8B407EF02F0070E0764D5EF01F0075E6A
:1002860000C008F001C000F002C001F0026A074E8B
:1002960007EF02F00764AAEF01F0075E00C008F05E
:1002A60001C000F0016A074E07EF02F0076488EF0D
:1002B60001F0075E00C008F0006A074E07EF02F083
:1002C60007646FEF01F00AC002F005C001F004C038
:1002D60000F0086A30EF03F0030E07647AEF01F0CE
:1002E600075E08380F0B086E074E07EF02F0D8902E
:1002F6000832074E07EF02F0D8900832074E07EF94
:1003060002F0D890083207EF02F0030E076499EF67
:1003160001F0075E08380F0B086E0038F00B082650
:1003260000380F0B006E074E07EF02F0D890003230
:100336000832074E07EF02F0D89000320832074E17
:1003460007EF02F0D8900032083207EF02F0030EF2
:100356000764C1EF01F0075E08380F0B086E00381E
:10036600F00B082600380F0B006E0138F00B002644
:1003760001380F0B016E074E07EF02F0D8900132DD
:1003860000320832074E07EF02F0D89001320032F1
:100396000832074E07EF02F0D890013200320832D9
:1003A60007EF02F0030E0764F2EF01F0075E08386C
:1003B6000F0B086E0038F00B082600380F0B006E86
:1003C6000138F00B002601380F0B016E0238F00BD6
:1003D600012602380F0B026E074E07EF02F0D89087
:1003E6000232013200320832074E07EF02F0D8908F
:1003F6000232013200320832074E07EF02F0D8907F
:100406000232013200320832096A000E0EAEFBEFEC
:1004160002F0081E001E011E021E082A00220122EA
:100426000222FBEF02F00750D8A41CEF02F030EFD7
:1004360003F0096A02C00AF0028E068E0750035CBA
:10044600076ED8B4EEEF02F0070E0764BCEF02F0B9
:10045600075E0450096E0550046E0650056E066A66
:10046600074EEEEF02F0070E076491EF02F0075E0B
:100476000450096E0550046E056A074EEEEF02F051
:10048600070E07646FEF02F0075E0450096E046AF8
:10049600074EEEEF02F0070E076456EF02F00AC0B1
:1004A60002F030EF03F0030E076461EF02F0075E1F
:1004B60009380F0B096E074EEEEF02F0D89009329D
:1004C600074EEEEF02F0D8900932074EEEEF02F03B
:1004D600D8900932EEEF02F0030E076480EF02F0C7
:1004E600075E09380F0B096E0438F00B092604382D
:1004F6000F0B046E074EEEEF02F0D890043209326D
:10050600074EEEEF02F0D89004320932074EEEEFB6
:1005160002F0D89004320932EEEF02F0030E0764BF
:10052600A8EF02F0075E09380F0B096E0438F00BCE
:10053600092604380F0B046E0538F00B042605381F
:100546000F0B056E074EEEEF02F0D890053204321F
:100556000932074EEEEF02F0D89005320432093226
:10056600074EEEEF02F0D890053204320932EEEF74
:1005760002F0030E0764D9EF02F0075E09380F0B8D
:10058600096E0438F00B092604380F0B046E053883
:10059600F00B042605380F0B056E0638F00B052602
:1005A60006380F0B066E074EEEEF02F0D8900632B5
:1005B600053204320932074EEEEF02F0D8900632C9
:1005C600053204320932074EEEEF02F0D8900632B9
:1005D600053204320932086A000E0EAEFBEF02F055
:1005E600091E041E051E061E092A042205220622CD
:1005F6000950082604500022055001220650022206
:100606000EBE12EF03F0D8A021EF03F00232013242
:1006160000320832033E21EF03F02BEF03F0D8B08F
:1006260026EF03F0000E081E001E011E021E082AF9
:100636000022012202220A7E26EF03F0010E0C6E32
:100646000EDD32EF03F0020E0C6E09DD32EF03F021
:10065600040E0C6EF8DC32EF03F0000E0C6E120086
:100666000D6A086A0050D8B4000C04180A6E0ABE57
:100676000D1E0B6A04AE02D0041E042A00AE02D080
:10068600001E002A005004100A6E0ABE1FD0045035
:10069600085E003600340836045008260036060E7A
:1006A6000C6E00340836045000B0085E00A0082620
:1006B60000360C2EF6D700A008260BB015D00DAECE
:1006C600000C001E002A081E082A000C04AE09D0E1
:1006D60000BE04D00050086E006AF1D7006A002AF6
:1006E600000C001E0B2AD3D7082A0450085CD8A495
:0E06F600E6D7086A002A00AEE2D7FF0C120019
:100704000134083609360450085E0550D8A0053C6B
:10071400095E003601360F0E0C6E013408360936B8
:10072400045000A006D0085E0550D8A0053C095E20
:1007340005D008260550D8B0053C092600360136F8
:100744000C2EEBD700B006D0045008260550D8B0C4
:08075400053C0926000012001B
:10075C00086A096A000E0762036433EF04F0025062
:10076C0006180A6E075003267E0ED8A0C4EF03F0BD
:10077C00035ED8B038EF04F0C8EF03F0035ED8A0E6
:10078C003DEF04F0028E068E02C00EF001C00BF09D
:10079C0000C00DF000500402F4CF0CF00150050223
:1007AC00F4CF00F0F3CF08F00402F3500C26F45011
:1007BC000822000E00220D500502F3500C26F450B6
:1007CC000822000E002202500402F3500826F450B6
:1007DC00002202500502016A000E0122F35000268D
:1007EC00F45001220D500602F3500826F45000225A
:1007FC00026A000E012202220B500602F350002660
:10080C00F4500122000E02220E500602F350012673
:10081C00F450022202BE1BEF04F0083600360136FB
:10082C0002360306D8B43DEF04F02EEF04F0D88066
:10083C00800E08640030000E002201220222D8A093
:10084C002EEF04F0023201320032034A38EF04F08A
:10085C000AAE029E000E40EF04F0010E1FEC00F0F9
:10086C0040EF04F0020E26EC00F040EF04F0040E12
:06087C0012EC00F0120076
:100882000B800BAE4DEF04F0026A0AAEFF0E026E51
:0C089200016E006E0A360232FF0E1200EA
:08089E000B6A0B86FF0E12002D
:1008A600086A080E0C6E003408360450085ED8B08C
:0E08B60002D00826D89000360C2EF5D712007E
:1008C4000450000A12E10550000A0FE10650000A24
:1008D4000CE10750000A09E1FF0E006EFF0E016EE5
:1008E4007F0E026EFF0E036EA7D0086A096A0750D6
:1008F400D8B40DEF05F00350D8B411EF05F0025051
:1009040006180A6E028E068E0E6A02C008F001C036
:100914000CF000C00DF004500D5E0550D8A0053C4D
:100924000C5E0650D8A0063C085E086A0C6A0D6A84
:10093400D8A0A4EF04F0D890023201320032083279
:10094400010E0E6E0750035ED8A0B1EF04F07E0EC8
:100954000E240326D8B016EF05F0B7EF04F07E0E90
:100964000E240326D8A01BEF05F0180E0B6E0D36CF
:100974000C3608360036013602360E360450005E58
:100984000550D8A0053C015E0650D8A0063C025E86
:1009940006340E120EA0D2EF04F00D80DDEF04F049
:1009A400045000260550D8B0053C01260650D8B0A6
:1009B400062802260D900B2EB9EF04F003EF05F084
:1009C400D8900036013602360E360450005E0550CB
:1009D400D8A0053C015E0650D8A0063C025E063451
:1009E4000E10010B0D26D8B00C2AD8B4082AD8A4AE
:1009F40003EF05F008320C320D32032AD8B416EF97
:100A040005F00AAE089E0850026E0C50016E0D509F
:100A1400006E1EEF05F0010E40DF1EEF05F0020E22
:100A24001FEC00F01EEF05F0040E26EC00F01EEFA4
:0A0A340005F0080E12EC00F01200AD
:100A3E000B6A0C6A0A6A086A0350D8B4A7EF05F06D
:100A4E00028E9E0E035E03BE32EF05F0D8B432EF77
:100A5E0005F097EF05F0036C080E035CD8A064EF69
:100A6E0005F0036E083600C008F001C000F002C0A9
:100A7E0001F0026A080E035CD8A064EF05F0036E65
:100A8E00083600C008F001C000F0016A080E035CD1
:100A9E00D8A064EF05F0036E083600C008F0006AB7
:100AAE00080E035CD8A064EF05F0036E0836086AE2
:100ABE000350D8A4D89070EF05F00350D8B470EF5F
:100ACE0005F0D8900232013200320832032E68EF60
:100ADE0005F00BBC08A081EF05F0D8A081EF05F062
:100AEE00082AD8B4002AD8B4012AD8B4022A02BEE1
:100AFE00ABEF05F00AAEA7EF05F0021E011E001EB9
:100B0E00081E082AD8B4002AD8B4012AD8B4022A5A
:100B1E00A7EF05F0026A016A006A086AA7EF05F0FE
:100B2E000B800BAEB0EF05F0026A0AAEB0EF05F027
:100B3E00026E016E006E086E0A360232B0EF05F0DC
:100B4E00000E0C6AB1EF05F0010E0C6E93DEB1EFE4
:100B5E0005F0FF0E0250036E0150026E0050016E42
:060B6E000850006E1200A9
:0E0B7400ACB202D00000FCD7A9C2ADFF120047
:100B8200020140A55DD040A312D040A103D02D0E9A
:100B9200036E02D02B0E036EA9C2E1FFAAC2E2FFCE
:100BA20003C0E6FFA94BAA2B424B432B34D040A1F2
:100BB2000BD0A9C2E1FFAAC2E2FF200EE66EA94B4A
:100BC200AA2B424B432B27D0C00E4015016E415138
:100BD200080B026E0250080A02E1800E01181BE1A6
:100BE200A9C2E1FFAAC2E2FF300EE66EA94BAA2B10
:100BF200424B432B40AB03D0580E046E02D0780E0A
:100C0200046EA9C2E1FFAAC2E2FF04C0E6FFA94B3B
:100C1200AA2B424B432B3E513F1111E0A9C2E1FFE7
:100C2200AAC2E2FF300EE66EA94BAA2B424B432B1F
:100C3200010E3E5F000E3F5B3E513F11EFE174D06B
:100C42003E513F1113E040B711D0A9C2E1FFAAC241
:100C5200E2FF200EE66EA94BAA2B424B432B010E5C
:100C62003E5F000E3F5B3E513F11EFE140A312D0C9
:100C720040A103D02D0E056E02D02B0E056EA9C227
:100C8200E1FFAAC2E2FF05C0E6FFA94BAA2B424B35
:100C9200432B0CD040A10AD0A9C2E1FFAAC2E2FFB5
:100CA200200EE66EA94BAA2B424B432BC00E4015D9
:100CB200016E4151080B026E0250080A02E1400E19
:100CC20001180BE1A9C2E1FFAAC2E2FF300EE66EF3
:100CD200A94BAA2B424B432B27D0C00E4015016EC5
:100CE2004151080B026E0250080A02E1800E0118FF
:100CF2001BE1A9C2E1FFAAC2E2FF300EE66EA94BD8
:100D0200AA2B424B432B40AB03D0580E066E02D0A7
:100D1200780E066EA9C2E1FFAAC2E2FF06C0E6FF94
:100D2200A94BAA2B424B432B800E006E800E3C191E
:100D3200005C02E13B513D5D0BE2A9C2E1FFAAC2A8
:100D4200E2FF300EE66EA94BAA2B424B432BECD7A7
:0A0D5200A9C200F0AAC201F01200CD
:100D5C00800E0201A919006E800E000A005CD8B04A
:100D6C0068D1A9510008016E01C0A9F2800E0118CA
:100D7C00006E800E6E0A005CD8A0BBD0640E046EB0
:100D8C00A9C200F06ADC120E0024056E000E00BE33
:100D9C00FF0E066E000E062205C000F006C001F024
:100DAC00000E06BEFF0E026E036E0036009001367A
:100DBC000236033600360090013602360336A80E92
:100DCC000024F66E550E0120F76E000E0220F86E10
:100DDC000900F5CFAAF20900F5CFABF20900F5CF67
:100DEC00ACF20900F5CFADF2640E046EA9C200F0AE
:100DFC0034DC08C000F00A0E046E2FDC090E00244F
:100E0C00056E000E00BEFF0E066E000E062205C01B
:100E1C0000F006C001F0000E06BEFF0E026E036E5F
:100E2C00003600900136023603360036009001364B
:100E3C0002360336A80E0024F66E550E0120F76E0E
:100E4C00000E0220F86E0900F5CF00F00900F5CF76
:100E5C0001F00900F5CF02F00900F5CF03F0AAC2AA
:100E6C0004F0ABC205F0ACC206F0ADC207F070DC0A
:100E7C0000C0AAF201C0ABF202C0ACF203C0ADF2EA
:100E8C000A0E046EA9C200F033EC03F008C000F0A7
:100E9C0000C001F0000E00BEFF0E026E036E046E69
:100EAC0001360190023603360436013601900236C3
:100EBC0003360436A80E0124F66E550E0220F76E8A
:100ECC00000E0320F86E0900F5CF00F00900F5CFF5
:100EDC0001F00900F5CF02F00900F5CF03F0AAC22A
:100EEC0004F0ABC205F0ACC206F0ADC207F030DCCA
:100EFC0007D2800E0A0A006E800EA919005C71E2FE
:100F0C000A0E046EA9C200F033EC03F0090E0024A3
:100F1C00056E000E00BEFF0E066E000E062205C00A
:100F2C0000F006C001F0000E06BEFF0E026E036E4E
:100F3C00003600900136023603360036009001363A
:100F4C0002360336A80E0024F66E550E0120F76EFD
:100F5C00000E0220F86E0900F5CFAAF20900F5CFB9
:100F6C00ABF20900F5CFACF20900F5CFADF20A0EE9
:100F7C00046EA9C200F033EC03F008C000F000C00E
:100F8C0001F0000E00BEFF0E026E036E046E013601
:100F9C0001900236033604360136019002360336D0
:100FAC000436A80E0124F66E550E0220F76E000EC4
:100FBC000320F86E0900F5CF00F00900F5CF01F021
:100FCC000900F5CF02F00900F5CF03F0AAC204F036
:100FDC00ABC205F0ACC206F0ADC207F0AEEC03F04C
:100FEC008FD1A9C200F0000EA9BFFF0E016E026ED8
:100FFC00036E003600900136023603360036009040
:10100C00013602360336A80E0024F66E550E01206A
:10101C00F76E000E0220F86E0900F5CF00F0090003
:10102C00F5CF01F00900F5CF02F00900F5CF03F080
:10103C0067D1800EA919006E800E6E0A005CD8A0D4
:10104C00C0D0640E046EA9C200F033EC03F0120E93
:10105C000024056E000E00BEFF0E066E000E06226A
:10106C0005C000F006C001F0000E06BEFF0E026EB9
:10107C00036E0036009001360236033600360090BF
:10108C00013602360336DC0E0024F66E550E0120B6
:10109C00F76E000E0220F86E0900F5CFAAF20900D7
:1010AC00F5CFABF20900F5CFACF20900F5CFADF2FC
:1010BC00640E046EA9C200F033EC03F008C000F01B
:1010CC000A0E046E33EC03F0090E0024056E000EBC
:1010DC0000BEFF0E066E000E062205C000F006C014
:1010EC0001F0000E06BEFF0E026E036E003600907D
:1010FC0001360236033600360090013602360336CE
:10110C00DC0E0024F66E550E0120F76E000E022048
:10111C00F86E0900F5CF00F00900F5CF01F00900D9
:10112C00F5CF02F00900F5CF03F0AAC204F0ABC270
:10113C0005F0ACC206F0ADC207F0AEEC03F000C097
:10114C00AAF201C0ABF202C0ACF203C0ADF20A0EBF
:10115C00046EA9C200F033EC03F008C000F000C02C
:10116C0001F0000E00BEFF0E026E036E046E01361F
:10117C0001900236033604360136019002360336EE
:10118C000436DC0E0124F66E550E0220F76E000EAE
:10119C000320F86E0900F5CF00F00900F5CF01F03F
:1011AC000900F5CF02F00900F5CF03F0AAC204F054
:1011BC00ABC205F0ACC206F0ADC207F0AEEC03F06A
:1011CC009FD0800E0A0A006E800EA919005C71E295
:1011DC000A0E046EA9C200F033EC03F0090E0024D1
:1011EC00056E000E00BEFF0E066E000E062205C038
:1011FC0000F006C001F0000E06BEFF0E026E036E7C
:10120C000036009001360236033600360090013667
:10121C0002360336DC0E0024F66E550E0120F76EF6
:10122C00000E0220F86E0900F5CFAAF20900F5CFE6
:10123C00ABF20900F5CFACF20900F5CFADF20A0E16
:10124C00046EA9C200F033EC03F008C000F000C03B
:10125C0001F0000E00BEFF0E026E036E046E01362E
:10126C0001900236033604360136019002360336FD
:10127C000436DC0E0124F66E550E0220F76E000EBD
:10128C000320F86E0900F5CF00F00900F5CF01F04E
:10129C000900F5CF02F00900F5CF03F0AAC204F063
:1012AC00ABC205F0ACC206F0ADC207F0AEEC03F079
:1012BC0027D0A9C200F0000EA9BFFF0E016E026E6E
:1012CC00036E00360090013602360336003600906D
:1012DC00013602360336DC0E0024F66E550E012064
:1012EC00F76E000E0220F86E0900F5CF00F0090031
:1012FC00F5CF01F00900F5CF02F00900F5CF03F0AE
:02130C001200CD
:10130E0028D002014087010EA927000EAA23AB2385
:10131E005DD002014081010EA927000EAA23AB2346
:10132E0055D002014083010EA927000EAA23AB233C
:10133E004DD002014187010EA927000EAA23AB232F
:10134E0045D002014085010EA927000EAA23AB232A
:10135E003DD0A9C2F6FFAAC2F7FFABC2F8FF090043
:10136E00F5CF01F001502D0ACCE0A9C2F6FFAAC2BA
:10137E00F7FFABC2F8FF0900F5CF01F00150200ACC
:10138E00C8E0A9C2F6FFAAC2F7FFABC2F8FF090078
:10139E00F5CF01F001502B0AC4E0A9C2F6FFAAC294
:1013AE00F7FFABC2F8FF0900F5CF01F00150230A99
:1013BE00C0E0A9C2F6FFAAC2F7FFABC2F8FF090050
:1013CE00F5CF01F00150300ABCE001D099D70201EF
:1013DE0040A301D0409140A701D04095A9C200F092
:0A13EE00AAC201F0ABC202F0120027
:1013F800086A096A100E0C6E013408360936045062
:10140800085E0550D8A0053C095ED8B007D0045046
:1014180008260550D8B0053C0926D8900036013674
:061428000C2EEAD71200B1
:10142E000B6A0C6A086A0350D8B49BEF0AF002C02C
:10143E000AF0028E9E0E035E03AE8BEF0AF0036C73
:10144E00080E035CD8A058EF0AF0036E083600C0F1
:10145E0008F001C000F002C001F0026A080E035C41
:10146E00D8A058EF0AF0036E083600C008F001C08D
:10147E0000F0016A080E035CD8A058EF0AF0036E64
:10148E00083600C008F0006A080E035CD8A058EFBA
:10149E000AF0036E0836086A0350D8A4D89064EF99
:1014AE000AF00350D8B464EF0AF0D8900232013239
:1014BE0000320832032E5CEF0AF00BBC08A075EF69
:1014CE000AF0D8A075EF0AF0082AD8B4002AD8B4CA
:1014DE00012AD8B4022A02BE9FEF0AF00AAE9BEF91
:1014EE000AF0021E011E001E081E082AD8B4002A89
:1014FE00D8B4012AD8B4022A9BEF0AF0026A016A14
:10150E00006A086A9BEF0AF00B800BAEA6EF0AF09A
:10151E00026A0AAEA6EF0AF0026E016E006E086E47
:10152E000A360232A6EF0AF00C6A000EA7EF0AF096
:10153E00010E0C6E000E41EC04F0A7EF0AF0FF0E48
:10154E000250036E0150026E0050016E0850006E84
:02155E00120079
:101560006E0E0201A95DD8A0CAD0640E046EA9C295
:1015700000F053EC04F0120E0024056E066A000E13
:10158000062205C000F006C001F0000E06BEFF0EE8
:10159000026E036E003600900136023603360036C6
:1015A0000090013602360336A80E0024F66E550E62
:1015B0000120F76E000E0220F86E0900F5CF00F052
:1015C0000900F5CF01F00900F5CF02F00900F5CFD1
:1015D00003F0000E046E000E056E000E066E7E0E09
:1015E000076EAEEC03F000C0AAF201C0ABF202C07D
:1015F000ACF203C0ADF2640E046EA9C200F053EC6D
:1016000004F008C000F00A0E046E53EC04F0090E5A
:101610000024056E066A000E062205C000F006C012
:1016200001F0000E06BEFF0E026E036E0036009043
:101630000136023603360036009001360236033694
:10164000A80E0024F66E550E0120F76E000E022043
:10165000F86E0900F5CF00F00900F5CF01F00900A0
:10166000F5CF02F00900F5CF03F0AAC204F0ABC237
:1016700005F0ACC206F0ADC207F0AEEC03F000C05E
:10168000AAF201C0ABF202C0ACF203C0ADF20A0E86
:10169000046EA9C200F053EC04F008C000F000C0D2
:1016A00001F0000E026E036E046E013601900236E8
:1016B0000336043601360190023603360436A80E8E
:1016C0000124F66E550E0220F76E000E0320F86E10
:1016D0000900F5CF00F00900F5CF01F00900F5CFC2
:1016E00002F00900F5CF03F0AAC204F0ABC205F086
:1016F000ACC206F0ADC207F0AEEC03F0B1D0A95118
:101700000A08D8B07ED00A0E046EA9C200F053ECCD
:1017100004F0090E0024056E066A000E062205C0BC
:1017200000F006C001F0000E06BEFF0E026E036E52
:10173000003600900136023603360036009001363E
:1017400002360336A80E0024F66E550E0120F76E01
:10175000000E0220F86E0900F5CF00F00900F5CF69
:1017600001F00900F5CF02F00900F5CF03F0000EFB
:10177000046E000E056E000E066E7E0E076EAEEC59
:1017800003F000C0AAF201C0ABF202C0ACF203C089
:10179000ADF20A0E046EA9C200F053EC04F008C0CA
:1017A00000F000C001F0000E026E036E046E013600
:1017B00001900236033604360136019002360336B4
:1017C0000436A80E0124F66E550E0220F76E000EA8
:1017D0000320F86E0900F5CF00F00900F5CF01F005
:1017E0000900F5CF02F00900F5CF03F0AAC204F01A
:1017F000ABC205F0ACC206F0ADC207F0AEEC03F030
:101800002FD0A9C200F0000E016E026E036E0036EA
:10181000009001360236033600360090013602365B
:101820000336A80E0024F66E550E0120F76E000E4A
:101830000220F86E0900F5CF00F00900F5CF01F0A5
:101840000900F5CF02F00900F5CF03F0000E046E99
:10185000000E056E000E066E7E0E076EAEEC03F0F7
:02186000120074
:101862000B6A0A6A096A086A0E6A03340836045067
:10187200085E0550D8A0053C095E0650D8A0063C7B
:101882000A5E0750D8A0073C0B5EE86AD8A0010E9A
:101892000E5E0336070E0C6E0334083609360A361E
:1018A2000B360E36045003A012D0085E0550D8A0A5
:1018B200053C095E0650D8A0063C0A5E0750D8A037
:1018C200073C0B5EE86AD8A0010E0E5E11D0082616
:1018D2000550D8B0053C09260650D8B0063C0A2669
:1018E2000750D8B0073C0B26E86AD8B0010E0E2686
:1018F20003360C2ED1D70234083609360A360B3697
:101902000E36045003A012D0085E0550D8A0053C44
:10191200095E0650D8A0063C0A5E0750D8A0073CD4
:101922000B5EE86AD8A0010E0E5E11D008260550A3
:10193200D8B0053C09260650D8B0063C0A26075006
:10194200D8B0073C0B26E86AD8B0010E0E26023644
:10195200070E0C6E0234083609360A360B360E367E
:10196200045002A012D0085E0550D8A0053C095EC2
:101972000650D8A0063C0A5E0750D8A0073C0B5E72
:10198200E86AD8A0010E0E5E11D008260550D8B024
:10199200053C09260650D8B0063C0A260750D8B0A6
:1019A200073C0B26E86AD8B0010E0E2602360C2E32
:1019B200D1D70134083609360A360B360E360450B2
:1019C20002A012D0085E0550D8A0053C095E065060
:1019D200D8A0063C0A5E0750D8A0073C0B5EE86A16
:1019E200D8A0010E0E5E11D008260550D8B0053CD5
:1019F20009260650D8B0063C0A260750D8B0073C44
:101A02000B26E86AD8B0010E0E260136070E0C6EC0
:101A12000134083609360A360B360E36045001A058
:101A220012D0085E0550D8A0053C095E0650D8A029
:101A3200063C0A5E0750D8A0073C0B5EE86AD8A0B5
:101A4200010E0E5E11D008260550D8B0053C0926BD
:101A52000650D8B0063C0A260750D8B0073C0B26E1
:101A6200E86AD8B0010E0E2601360C2ED1D700340A
:101A7200083609360A360B360E36045001A012D04B
:101A8200085E0550D8A0053C095E0650D8A0063C69
:101A92000A5E0750D8A0073C0B5EE86AD8A0010E88
:101AA2000E5E11D008260550D8B0053C0926065016
:101AB200D8B0063C0A260750D8B0073C0B26E86A85
:101AC200D8B0010E0E260036070E0C6E0034083612
:101AD20009360A360B360E36045000A012D0085EC4
:101AE2000550D8A0053C095E0650D8A0063C0A5E07
:101AF2000750D8A0073C0B5EE86AD8A0010E0E5E24
:101B020011D008260550D8B0053C09260650D8B099
:101B1200063C0A260750D8B0073C0B26E86AD8B024
:101B2200010E0E2600360C2ED1D700B00ED0045076
:101B320008260550D8B0053C09260650D8B0063C08
:0C1B42000A260750D8B0073C0B26120002
:101B4E000201A951390806E3300EA95D03E3010E27
:081B5E00006E01D0006A1200C4
:101B66000050086E0150006E0250016E0350026E66
:101B7600036A0B6A0C6A9E0E036E0A6A020E0C6EEC
:061B860032EC00F0120039
:101B8C000B6A0A6A096A00500402F4CF09F0F3CF19
:101B9C0008F001500502F4CF0BF0F3CF0AF000501F
:101BAC000502F3500926F4500A22E86A0B22015070
:101BBC000402F3500926F4500A22E86A0B2208C0EA
:101BCC0000F009C001F00AC002F00BC003F01200D3
:081BDC00067E23EC01F012006B
:101BE4000A6A0350D8A40A800750D8A40A820A506B
:101BF400D8B455EF0EF0030AD8B40EEF0EF00AB0C5
:101C040009EF0EF006AE53EF0EF051EF0EF002AEF8
:101C140051EF0EF053EF0EF00250800B0A6E029E4D
:101C24000650800B069E0A18D8B41FEF0EF00A5017
:101C3400D8B451EF0EF053EF0EF00750035CD8B454
:101C440029EF0EF0D8A045EF0EF04BEF0EF0065042
:101C5400025CD8B433EF0EF0D8A045EF0EF04BEF92
:101C64000EF00550015CD8B43DEF0EF0D8A045EF5E
:101C74000EF04BEF0EF00450005CD8B455EF0EF0AC
:101C8400D8B04BEF0EF00A52D8B453EF0EF051EF28
:101C94000EF00A52D8B451EF0EF053EF0EF0D88084
:0E1CA4001200D8901200D880D88412001200CE
:101CB20003500718D8A46DEF0EF002500618D8A4EE
:101CC2006DEF0EF001500518D8A46DEF0EF0005024
:0E1CD2000418D8B4D8841200D894120012005E
:101CE0000450000A08E10550000A05E1FF0E006EED
:101CF0007F0E016E58D00D6A096A086A0150001003
:101D0000D8B4000C015005180A6E0ABE0D1E0B6AED
:101D100005AE05D0041E051E042AD8B4052A01AE5E
:101D200005D0001E011E002AD8B4012A015005105A
:101D30000A6E0ABE10D082EC03F00BB020D00DAEBC
:101D4000000C001E011E002AD8B4012A081E091E1C
:101D5000082AD8B4092A000C05AE0DD001BE07D060
:101D60000150096E0050086E016A006AE8D7016AE6
:101D7000006A002A000C011E001E0B2ADDD7082A6B
:101D8000D8B4092A0450085CD8A4D9D70550095CF6
:101D9000D8A4D5D7096A086A002AD8B4012A01AEA6
:081DA000CED70000FF0C120079
:101DA8000201A16BA26B956B966B83C200F084C293
:101DB80001F085C202F0010E8327000E84238523DB
:101DC80000C0F6FF01C0F7FF02C0F8FF0900F5CF19
:101DD80000F000C092F20052D8B4DAEF1EF092512F
:101DE800250A0BE081C2E1FF82C2E2FF92C2E6FF50
:101DF800814B822BA14BA22BD8D7936B946B956BFD
:101E0800966B23D09587010E8327000E84238523A4
:101E180059D09581010E8327000E8423852352D043
:101E28009583010E8327000E842385234BD0968744
:101E3800010E8327000E8423852344D09585010E47
:101E48008327000E842385233DD083C2F6FF84C2F6
:101E5800F7FF85C2F8FF0900F5CF01F001502D0A00
:101E6800D1E083C2F6FF84C2F7FF85C2F8FF0900FC
:101E7800F5CF01F00150200ACCE083C2F6FF84C2FE
:101E8800F7FF85C2F8FF0900F5CF01F001502B0AD2
:101E9800C7E083C2F6FF84C2F7FF85C2F8FF0900D6
:101EA800F5CF01F00150230AC2E083C2F6FF84C2D5
:101EB800F7FF85C2F8FF0900F5CF01F00150300A9D
:101EC800BDE001D09ED795A301D0959195A701D0EB
:101ED800959583C2F6FF84C2F7FF85C2F8FF090013
:101EE800F5CF00F0000E016E00C0A9F22CDE005202
:101EF80034E0936B946B93C200F094C201F00A0E25
:101F0800046E000E056E3EDE83C2F6FF84C2F7FF44
:101F180085C2F8FF0900F5CF02F002500024936F44
:101F2800000E0120946F300E935F000E945B010E3B
:101F38008327000E8423852383C2F6FF84C2F7FF1C
:101F480085C2F8FF0900F5CF00F0000E016E00C051
:101F5800A9F2F9DD0052CFE133D083C2F6FF84C283
:101F6800F7FF85C2F8FF0900F5CF01F001502A0AF2
:101F780027E186C2E9FF87C2EAFFEECF00F0EECF85
:101F880001F000C0E9FF01C0EAFFEECF93F2EECF07
:101F980094F286C2E9FF87C2EAFF020EEE24006EC1
:101FA800000EEE20016E86C2E1FF87C2E2FF00C08C
:101FB800E6FF01C0E6FF010E8327000E8423852378
:101FC80083C2F6FF84C2F7FF85C2F8FF0900F5CF88
:101FD80001F001502E0A6EE1010E8327000E8423C2
:101FE800852383C2F6FF84C2F7FF85C2F8FF090084
:101FF800F5CF01F001502A0A28E186C2E9FF87C21D
:10200800EAFFEECF00F0EECF01F000C0E9FF01C01B
:10201800EAFFEECF90F2EECF91F286C2E9FF87C2D7
:10202800EAFF020EEE24006E000EEE20016E86C25C
:10203800E1FF87C2E2FF00C0E6FF01C0E6FF010E34
:102048008327000E8423852334D0906B916B83C241
:10205800F6FF84C2F7FF85C2F8FF0900F5CF00F04C
:10206800000E016E00C0A9F26EDD005222E090C29F
:1020780000F091C201F00A0E046E000E056E82DDBA
:1020880083C2F6FF84C2F7FF85C2F8FF0900F5CFC7
:1020980002F002500024906F000E0120916F300E64
:1020A800905F000E915B010E8327000E8423852329
:1020B800CED703D0906B916B968983C200F084C20F
:1020C80001F085C202F0010E8327000E84238523C8
:1020D80000C0F6FF01C0F7FF02C0F8FF0900F5CF06
:1020E80092F2F9D0A1C200F0A2C201F0DEEF1EF018
:1020F8009589E3D796852ED1958B96812BD196839A
:1021080029D1958D27D126D1958B958F23D186C23C
:10211800E9FF87C2EAFFEECF00F0EECF01F000C082
:10212800E9FF01C0EAFFEECF9DF2EECF9EF286C234
:10213800E9FF87C2EAFF020EEE24006E000EEE20D1
:10214800016E86C2E1FF87C2E2FF00C0E6FF01C060
:10215800E6FF000E9E1902E1000E9D1904E1B30E80
:102168009D6F010E9E6F9F6BA06B9F519D25E96E21
:10217800A0519E21EA6EEE520BE0010E9F25006EE3
:10218800000EA021016E00C09FF201C0A0F2EDD7A1
:10219800905191110AE0A051915D02E19F51905D2B
:1021A80004E290C29FF291C2A0F29451A05D02E1B4
:1021B80093519F5D05E29F51935FA051945B02D0BC
:1021C800936B946B95B716D093C200F094C201F04C
:1021D800010E935F000E945B005001100BE081C26A
:1021E800E1FF82C2E2FF200EE66E814B822BA14BFB
:1021F800A22BEAD79FC202F0A0C203F0010E9F5D96
:10220800006E000EA059016E00C09FF201C0A0F23E
:102218000250031019E09DC2E9FF9EC2EAFF81C285
:10222800E1FF82C2E2FFEECFE6FF814B822B010E77
:102238009D25006E000E9E21016E00C09DF201C01A
:102248009EF2A14BA22BD6D795A716D093C200F029
:1022580094C201F0010E935F000E945B00500110D0
:102268000BE081C2E1FF82C2E2FF200EE66E814BE5
:10227800822BA14BA22BEAD798D586C2E9FF87C249
:10228800EAFFEECF00F0EECF01F000C0E9FF01C099
:10229800EAFFEECF92F286C2E9FF87C2EAFF020E9A
:1022A800EE24006E000EEE20016E86C2E1FF87C2AA
:1022B800E2FF00C0E6FF01C0E6FF920E9D6F020E2E
:1022C8009E6F010E9F6F000EA06F62D7C00E951310
:1022D800000E96133FD09251000AD8B403D79251FA
:1022E8006C0AD8B405D792514C0AD8B401D7925188
:1022F800660AD8B4FFD69251450AD8B4FDD6925191
:10230800650AD8B4FAD69251670AD8B4F8D6925169
:102318006F0AD8B4F6D69251640AD8B4F4D692515A
:10232800690AD8B4F0D69251700AD8B4EDD6925151
:10233800580AD8B4E9D69251780AD8B4E6D6925158
:10234800730AD8B4E4D69251630A97E09251750A99
:10235800BDE0B3D7000E9515006E9651070B016EC0
:1023680000500110D8B481EF1AF096A904D0060ED7
:10237800906F000E916F86C2E9FF87C2EAFFEECF29
:1023880000F0EECF01F000C0E9FF01C0EAFFEECF98
:1023980097F2EECF98F2EECF99F2EECF9AF286C28C
:1023A800E9FF87C2EAFF040EEE24006E000EEE205D
:1023B800016E86C2E1FF87C2E2FF00C0E6FF01C0EE
:1023C800E6FF046A056A066A076A97C200F098C2BF
:1023D80001F099C202F09AC203F000DC010ED8B0F5
:1023E800000E006E005205E0997F030E9513000E53
:1023F80096139B6B9C6B97C200F098C201F099C230
:1024080002F09AC203F0046A056A066A076A4DDC9C
:10241800000ED8A4010E006E0052D8B489D09AC21A
:1024280000F0016A026A036AFF0E0016000E011628
:102438007E0E005E000E015A00C09BF201C09CF2A5
:10244800010E005E000E015A00C09BF201C09CF212
:10245800030E046E000E056EC6EC0DF000C09BF274
:1024680001C09CF20A0E046E000E056E35DC00C039
:102478009BF201C09CF2800E0118026E800E025C75
:1024880002E1000E005C05E2010E02019B5F000EF6
:102498009C5B02019B510008A96FAEEC06F097C245
:1024A80004F098C205F099C206F09AC207F0AEECA3
:1024B80003F000C09DF201C09EF202C09FF203C06B
:1024C800A0F2000E046E000E056E000E066E7F0E62
:1024D800076E9DC200F09EC201F09FC202F0A0C22A
:1024E80003F0F2EC0DF0010ED8B0000E006E0052B1
:1024F80005E0010E9B5F000E9C5B1AD0000E046E77
:10250800000E056E200E066E820E076E9DC200F04C
:102518009EC201F09FC202F0A0C203F0F2EC0DF0DF
:10252800000ED8B0010E006E005202E09B4B9C2BAF
:10253800800E006E800E9C19005C02E19B51000821
:1025480003E3010E926F02D09BC292F296B118D0AB
:1025580096A315D0800E9C19006E7F0E005C02E1D8
:10256800FC0E9B5D0BE3800E9C19006E800E91198A
:10257800005C02E190519B5D01E201D001D0EFD3F4
:102588009051911106E096A304D0010E905F000EC1
:10259800915B9151000802E19051080803E2080E8E
:1025A800926F02D090C292F297C200F098C201F0E6
:1025B80099C202F09AC203F0046A056A066A076AB9
:1025C80059EC0EF0000ED8A4010E006E0052D8B4DB
:1025D8004BD19BC2A9F2AEEC06F000C004F001C0DA
:1025E80005F002C006F003C007F097C200F098C2D9
:1025F80001F099C202F09AC203F062EC04F000C044
:1026080097F201C098F202C099F203C09AF202014F
:1026180092510008A96FAEEC06F000C004F001C0AA
:1026280005F002C006F003C007F097C200F098C298
:1026380001F099C202F09AC203F062EC04F000C003
:10264800A3F201C0A4F202C0A5F203C0A6F2A3C27D
:1026580097F2A4C298F2A5C299F2A6C29AF2A3C2AE
:1026680000F0A4C201F0A5C202F0A6C203F01FEC5C
:1026780005F0B3EC0DF000C004F001C005F002C095
:1026880006F003C007F0A3C200F0A4C201F0A5C27F
:1026980002F0A6C203F0EEEC0DF0000E046E000E80
:1026A800056E000E066E7E0E076EF2EC0DF0000E43
:1026B800D8B0010E006E00521AE097C200F098C21E
:1026C80001F099C202F09AC203F0000E046E000EE7
:1026D800056E000E066E7E0E076E23EC01F000C03C
:1026E80097F201C098F202C099F203C09AF297C219
:1026F80000F098C201F099C202F09AC203F01FECF0
:1027080005F002019251010F096E0A6A000E0A22B1
:1027180009C004F00AC005F0000E0ABEFF0E066EDE
:10272800076E0436049005360636073604360490DC
:10273800053606360736400E0424F66E560E05207A
:10274800F76E000E0620F86E0900F5CF05F00900B7
:10275800F5CF06F00900F5CF07F00900F5CF08F02E
:102768000850035C08E10750025C05E10650015C73
:1027780002E10550005C1EE3020197C200F098C216
:1027880001F099C202F09AC203F0CD0E046ECC0E8D
:10279800056E4C0E066E7B0E076EAEEC03F000C0A5
:1027A80097F201C098F202C099F203C09AF29B4BCB
:1027B8009C2B5AD097C200F098C201F099C202F03F
:1027C8009AC203F01FEC05F092C204F0000E056EE9
:1027D800066E076E0436049005360636073604364C
:1027E8000490053606360736400E0424F66E560E5B
:1027F8000520F76E000E0620F86E0900F5CF05F0EB
:102808000900F5CF06F00900F5CF07F00900F5CF6C
:1028180008F00850035C08E10750025C05E1065027
:10282800015C02E10550005C1FE2020197C200F062
:1028380098C201F099C202F09AC203F0000E046E29
:10284800000E056E200E066E820E076EAEEC03F0CB
:1028580000C097F201C098F202C099F203C09AF240
:10286800010E9B5F000E9C5B020196A393D096B766
:1028780091D0800E000A006E800E9119005C02E172
:1028880090510A0804E20A0E906F000E916F97C2E9
:1028980000F098C201F099C202F09AC203F01FEC4E
:1028A80005F000C09DF201C09EF202C09FF203C075
:1028B800A0F29D519E119F11A01142E00A0E046ED4
:1028C800000E056E066E076E9DC200F09EC201F0F6
:1028D8009FC202F0A0C203F031EC0CF008C000F077
:1028E80009C001F00AC002F00BC003F0000E046E2C
:1028F800031808E10450021805E10450011802E128
:102908000050000A1DE1010E905F000E915B0A0E57
:10291800046E000E056E066E076E9DC200F09EC224
:1029280001F09FC202F0A0C203F031EC0CF000C02D
:102938009DF201C09EF202C09FF203C0A0F2B9D777
:10294800800E9119006E800E005C02E19251905D3C
:1029580021E29051925DA96FAEEC06F000C004F040
:1029680001C005F002C006F003C007F097C200F0EE
:1029780098C201F099C202F09AC203F062EC04F026
:1029880000C097F201C098F202C099F203C09AF20F
:1029980090C292F2050E02019025006E000E912160
:1029A800016E0050935F0150945B9051911103E1C7
:1029B80096B701D004D0010E935F000E945B030E0E
:1029C8009515006E96C201F0000E01160050011018
:1029D80004E0010E935F000E945B95A539D095A392
:1029E80012D095A103D02D0E886F02D02B0E886FC0
:1029F80081C2E1FF82C2E2FF88C2E6FF814B822BDF
:102A0800A14BA22B0CD095A10AD081C2E1FF82C2B2
:102A1800E2FF200EE66E814B822BA14BA22B800E8B
:102A2800006E800E9419005C02E1935100080FE2D9
:102A380081C2E1FF82C2E2FF300EE66E814B822B3B
:102A4800A14BA22B010E935F000E945BE8D73AD0FE
:102A580095B718D0800E006E800E9419005C02E1C4
:102A6800935100080FE281C2E1FF82C2E2FF200E0B
:102A7800E66E814B822BA14BA22B010E935F000EB9
:102A8800945BE8D795A312D095A103D02D0E896F3A
:102A980002D02B0E896F81C2E1FF82C2E2FF89C298
:102AA800E6FF814B822BA14BA22B0CD095A10AD01B
:102AB80081C2E1FF82C2E2FF200EE66E814B822BCB
:102AC800A14BA22B97C200F098C201F099C202F064
:102AD8009AC203F01FEC05F000C09DF201C09EF2FF
:102AE80002C09FF203C0A0F292C200F0000E016E75
:102AF800026E036E00360090013602360336003649
:102B08000090013602360336400E0024F66E560E4B
:102B18000120F76E000E0220F86E0900F5CF04F0D0
:102B28000900F5CF05F00900F5CF06F00900F5CF4B
:102B380007F09DC200F09EC201F09FC202F0A0C241
:102B480003F031EC0CF0300E002681C2E1FF82C2A6
:102B5800E2FF00C0E6FF814B822BA14BA22B9051D4
:102B6800911103E196B701D06FD081C2E1FF82C213
:102B7800E2FF2E0EE66E814B822BA14BA22B9251C7
:102B8800905F000E915B92534DE0920792C200F065
:102B9800000E016E026E036E00360090013602369A
:102BA800033600360090013602360336400E002404
:102BB800F66E560E0120F76E000E0220F86E090020
:102BC800F5CF04F00900F5CF05F00900F5CF06F0C0
:102BD8000900F5CF07F09DC200F09EC201F09FC228
:102BE80002F0A0C203F031EC0CF00A0E046E000EE5
:102BF800056E066E076E31EC0CF008C000F009C0D7
:102C080001F00AC002F00BC003F0300E002681C2AA
:102C1800E1FF82C2E2FF00C0E6FF814B822BA14B9D
:102C2800A22BB1D7905191110FE081C2E1FF82C26E
:102C3800E2FF300EE66E814B822BA14BA22B010ED8
:102C4800905F000E915BEED795AB0BD081C2E1FF90
:102C580082C2E2FF450EE66E814B822BA14BA22B6E
:102C68000AD081C2E1FF82C2E2FF650EE66E814BA7
:102C7800822BA14BA22B800E9C19006E800E005C4B
:102C880002E1000E9B5D11E29B5100089B6F9C5175
:102C9800000E9C5781C2E1FF82C2E2FF2D0EE66E54
:102CA800814B822BA14BA22B0AD081C2E1FF82C2A9
:102CB800E2FF2B0EE66E814B822BA14BA22B0A0E54
:102CC800046E000E056E9BC200F09CC201F070EC11
:102CD8000EF0300E002681C2E1FF82C2E2FF00C082
:102CE800E6FF0201814B822BA14BA22B0A0E046E38
:102CF800000E056E9BC200F09CC201F070EC0EF055
:102D080008C000F009C001F0300E002681C2E1FFC2
:102D180082C2E2FF00C0E6FF0201814B822BA14B79
:102D2800A22B95A71AD0800E006E800E9419005C15
:102D380002E19351000811E281C2E1FF82C2E2FF81
:102D4800200EE66E814B822BA14BA22B010E935FC6
:102D5800000E945B93519411EFE1D9EF0EF096A316
:102D6800F3D0800E9C19006E800E005C02E1000E0C
:102D78009B5D0AE2010E9B5D006E000E9C59016E80
:102D88000050905F0150915B97C200F098C201F02B
:102D980099C202F09AC203F01FEC05F000C09DF240
:102DA80001C09EF202C09FF203C0A0F2010E926F12
:102DB80092510A0A34E092C200F0000E016E026ECF
:102DC800036E003600900136023603360036009056
:102DD800013602360336400E0024F66E560E0120E8
:102DE800F76E000E0220F86E0900F5CF01F0090019
:102DF800F5CF02F00900F5CF03F00900F5CF04F094
:102E08000450A05D08E103509F5D05E102509E5DFE
:102E180002E101509D5D01E202D0922BC9D7925187
:102E2800905DA76F000E9159A86FA7C290F2A8C233
:102E380091F29DC200F09EC201F09FC202F0A0C2B2
:102E480003F0B3EC0DF000C004F001C005F002C0BF
:102E580006F003C007F097C200F098C201F099C2CB
:102E680002F09AC203F0EEEC0DF000C0A3F201C02C
:102E7800A4F202C0A5F203C0A6F2A7C2A9F2AEEC62
:102E880006F0A3C204F0A4C205F0A5C206F0A6C2CB
:102E980007F0AEEC03F0000E046E000E056E000E97
:102EA800066E7E0E076E23EC01F01FEC05F000C0E5
:102EB8009DF201C09EF202C09FF203C0A0F29051A1
:102EC800911142E00A0E046E000E056E066E076E42
:102ED8009DC200F09EC201F09FC202F0A0C203F0A2
:102EE80031EC0CF008C000F009C001F00AC002F093
:102EF8000BC003F0000E046E031808E1045002181A
:102F080005E10450011802E10050000A1DE10A0E13
:102F1800046E000E056E066E076E9DC200F09EC21E
:102F280001F09FC202F0A0C203F031EC0CF000C027
:102F38009DF201C09EF202C09FF203C0A0F2010EF2
:102F4800905F000E915BBBD7800E006E800E9119CA
:102F5800005C02E190510C0816E390C2A9F2B0ECB3
:102F68000AF097C204F098C205F099C206F09AC216
:102F780007F023EC01F000C097F201C098F202C0FC
:102F880099F203C09AF297C200F098C201F099C270
:102F980002F09AC203F0046A056A066A076A59ECE5
:102FA8000EF0000ED8A4010E006E0052D8B477D0EF
:102FB80097C200F098C201F099C202F09AC203F0D9
:102FC8001FEC05F0000E046E031808E10450021807
:102FD80005E10450011802E10050000A60E1800E8A
:102FE800006E800E9C19005C02E19B51010857E2BB
:102FF8009BC2A9F2AEEC06F000C004F001C005F0D7
:1030080002C006F003C007F097C200F098C201F0B2
:1030180099C202F09AC203F062EC04F05F0E046EEB
:10302800700E056E090E066E810E076EF2EC0DF03D
:10303800010ED8B0000E006E005206E0090E020123
:103048009B5F000E9C5B05D00201080E9B5F000E83
:103058009C5B9BC2A9F2AEEC06F000C004F001C074
:1030680005F002C006F003C007F097C200F098C24E
:1030780001F099C202F09AC203F062EC04F01FEC6E
:1030880005F000C09DF201C09EF202C09FF203C08D
:10309800A0F20201976B986B996B9A6B38D097C224
:1030A80000F098C201F099C202F09AC203F01FEC36
:1030B80005F000C09DF201C09EF202C09FF203C05D
:1030C800A0F29DC200F09EC201F09FC202F0A0C211
:1030D80003F0B3EC0DF000C004F001C005F002C02D
:1030E80006F003C007F097C200F098C201F099C239
:1030F80002F09AC203F0EEEC0DF000C097F201C0A6
:1031080098F202C099F203C09AF29B6B9C6B010E75
:10311800926F92510A0A34E092C200F0000E016EDA
:10312800026E036E00360090013602360336003612
:103138000090013602360336400E0024F66E560E15
:103148000120F76E000E0220F86E0900F5CF01F09D
:103158000900F5CF02F00900F5CF03F00900F5CF1B
:1031680004F00450A05D08E103509F5D05E10250A2
:103178009E5D02E101509D5D01E202D0922BC9D70C
:1031880092519025006E000E9121016E9B510026F0
:103198009C5101220050935F0150945B96B704D074
:1031A8009051911101E104D0010E935F000E945BE0
:1031B800030E9515006E96C201F0000E0116005020
:1031C800011004E0010E935F000E945B95A539D0C1
:1031D80095A312D095A103D02D0E8A6F02D02B0E85
:1031E8008A6F81C2E1FF82C2E2FF8AC2E6FF814B99
:1031F800822BA14BA22B0CD095A10AD081C2E1FF52
:1032080082C2E2FF200EE66E814B822BA14BA22BDD
:10321800800E006E800E9419005C02E19351000844
:103228000FE281C2E1FF82C2E2FF300EE66E814BFF
:10323800822BA14BA22B010E935F000E945BE8D763
:103248003AD095B718D0800E006E800E9419005CA5
:1032580002E1935100080FE281C2E1FF82C2E2FF5E
:10326800200EE66E814B822BA14BA22B010E935FA1
:10327800000E945BE8D795A312D095A103D02D0E2C
:103288008B6F02D02B0E8B6F81C2E1FF82C2E2FFEF
:103298008BC2E6FF814B822BA14BA22B0CD095A1B0
:1032A8000AD081C2E1FF82C2E2FF200EE66E814BA6
:1032B800822BA14BA22B92C200F0920700524CE045
:1032C80092C200F0000E016E026E036E003600908E
:1032D80001360236033600360090013602360336D0
:1032E800400E0024F66E560E0120F76E000E0220E6
:1032F800F86E0900F5CF04F00900F5CF05F00900D4
:10330800F5CF06F00900F5CF07F09DC200F09EC288
:1033180001F09FC202F0A0C203F031EC0CF00A0EDB
:10332800046E000E056E066E076E31EC0CF008C0D8
:1033380000F009C001F00AC002F00BC003F0300E23
:10334800002681C2E1FF82C2E2FF00C0E6FF814B96
:10335800822BA14BA22BAFD7800E006E800E9C193A
:10336800005C02E19B5100080FE281C2E1FF82C2CA
:10337800E2FF300EE66E814B822BA14BA22B010E91
:103388009B5F000E9C5BE8D7800E000A006E800EE3
:103398009119005C02E19051080803E2080E926F4F
:1033A80002D090C292F29251905F000E915B9253BC
:1033B80003E196B701D00AD081C2E1FF82C2E2FFE1
:1033C8002E0EE66E814B822BA14BA22B92C2A9F244
:1033D800AEEC06F097C204F098C205F099C206F068
:1033E8009AC207F0AEEC03F017EC0AF000C09DF2A9
:1033F80001C09EF202C09FF203C0A0F292534DE0BA
:10340800920792C200F0000E016E026E036E003643
:103418000090013602360336003600900136023637
:103428000336400E0024F66E560E0120F76E000E8D
:103438000220F86E0900F5CF04F00900F5CF05F079
:103448000900F5CF06F00900F5CF07F09DC200F09E
:103458009EC201F09FC202F0A0C203F031EC0CF052
:103468000A0E046E000E056E066E076E31EC0CF047
:1034780008C000F009C001F00AC002F00BC003F058
:10348800300E002681C2E1FF82C2E2FF00C0E6FFE3
:10349800814B822BA14BA22BB1D7905191110FE0F8
:1034A80081C2E1FF82C2E2FF300EE66E814B822BC1
:1034B800A14BA22B010E905F000E915BEED795A752
:1034C8001AD0800E006E800E9419005C02E19351B0
:1034D800000811E281C2E1FF82C2E2FF200EE66E1F
:1034E800814B822BA14BA22B010E935F000E945BA4
:1034F80093519411EFE1D9EF0EF0C00E9515016EBE
:1035080096C202F0000E0216000E021802E1000E2A
:103518000118D8A480D095A927D086C2E9FF87C210
:10352800EAFFEECF00F0EECF01F000C0E9FF01C0E6
:10353800EAFFEECF9DF2EECF9EF2EECF9FF2EECFF6
:10354800A0F286C2E9FF87C2EAFF040EEE24006EED
:10355800000EEE20016E86C2E1FF87C2E2FF00C0C6
:10356800E6FF01C0E6FF2FD086C2E9FF87C2EAFF67
:10357800EECF00F0EECF01F000C0E9FF01C0EAFF96
:10358800EECF00F0EECF01F0000E01BEFF0E026E8E
:10359800036E00C09DF201C09EF202C09FF203C0FC
:1035A800A0F286C2E9FF87C2EAFF020EEE24006E8F
:1035B800000EEE20016E86C2E1FF87C2E2FF00C066
:1035C800E6FF01C0E6FF800EA019006E800E005CC9
:1035D80008E1000E9F5D05E1000E9E5D02E1000E10
:1035E8009D5D18E2030E9513000E9613006A016A9A
:1035F800026A036A9D51005E9E51015A9F51025A08
:10360800A051035A00C09DF201C09EF202C09FF271
:1036180003C0A0F24ED095A927D086C2E9FF87C281
:10362800EAFFEECF00F0EECF01F000C0E9FF01C0E5
:10363800EAFFEECF9DF2EECF9EF2EECF9FF2EECFF5
:10364800A0F286C2E9FF87C2EAFF040EEE24006EEC
:10365800000EEE20016E86C2E1FF87C2E2FF00C0C5
:10366800E6FF01C0E6FF25D086C2E9FF87C2EAFF70
:10367800EECF00F0EECF01F000C0E9FF01C0EAFF95
:10368800EECF9DF2EECF9EF2000E9F6FA06F86C226
:10369800E9FF87C2EAFF020EEE24006E000EEE205C
:1036A800016E86C2E1FF87C2E2FF00C0E6FF01C0EB
:1036B800E6FF000E911902E1000E90190FE1000ECD
:1036C800006EA01908E100509F1905E100509E19ED
:1036D80002E19D51000A02E1904B912BC00E951515
:1036E800006E00C005F0AED0010E926F92510A0A2A
:1036F80034E092C200F0000E016E026E036E0036D6
:103708000090013602360336003600900136023644
:103718000336400E0024F66E560E0120F76E000E9A
:103728000220F86E0900F5CF01F00900F5CF02F08C
:103738000900F5CF03F00900F5CF04F00450A05DAF
:1037480008E103509F5D05E102509E5D02E10150D2
:103758009D5D01E202D0922BC9D782D0010E926FF3
:103768009251080A34E092C200F0000E016E026E17
:10377800036E00360090013602360336003600909C
:10378800013602360336680E0024F66E560E012006
:10379800F76E000E0220F86E0900F5CF01F009005F
:1037A800F5CF02F00900F5CF03F00900F5CF04F0DA
:1037B8000450A05D08E103509F5D05E102509E5D45
:1037C80002E101509D5D01E202D0922BC9D748D099
:1037D800010E926F92510C0A34E092C200F0000E72
:1037E800016E026E036E0036009001360236033613
:1037F80000360090013602360336100E0024F66EAD
:10380800560E0120F76E000E0220F86E0900F5CF63
:1038180001F00900F5CF02F00900F5CF03F0090027
:10382800F5CF04F00450A05D08E103509F5D05E169
:1038380002509E5D02E101509D5D01E202D0922B93
:10384800C9D70ED00550000AD8B44ED70550C00AC3
:10385800D8B44AD70550800A81E00550400AB8E03C
:10386800800E006E800E9119005C02E19051925D0D
:1038780003E290C292F20DD0800E9119006E800E74
:10388800005C02E19251905D04E292C290F2000E57
:10389800916F935194110EE0030E9515006E96C228
:1038A80001F0000E01160050011004E0010E935FB4
:1038B800000E945B800E9119006E800E9419005CC6
:1038C80002E19351905D05E29051935F9151945BB1
:1038D80002D0936B946BC40E9515016E9651080B2C
:1038E800026E0250080A02E1400E011808E19351E5
:1038F800941104E0010E935F000E945B1CD0C00E7F
:103908009515016E9651080B026E0250080A02E1E5
:10391800800E011810E1800E006E800E9419005C74
:1039280002E19351020805E2020E935F000E945BD8
:1039380002D0936B946B95A55DD095A312D095A1F9
:1039480003D02D0E8C6F02D02B0E8C6F81C2E1FF3D
:1039580082C2E2FF8CC2E6FF814B822BA14BA22BD5
:1039680034D095A10BD081C2E1FF82C2E2FF200EC4
:10397800E66E814B822BA14BA22B27D0C00E95154A
:10398800016E9651080B026E0250080A02E1800E81
:1039980001181BE181C2E1FF82C2E2FF300EE66E30
:1039A800814B822BA14BA22B95AB03D0580E8D6F68
:1039B80002D0780E8D6F81C2E1FF82C2E2FF8DC214
:1039C800E6FF814B822BA14BA22B9351941111E05E
:1039D80081C2E1FF82C2E2FF300EE66E814B822B8C
:1039E800A14BA22B010E935F000E945B935194118F
:1039F800EFE174D09351941113E095B711D081C2BF
:103A0800E1FF82C2E2FF200EE66E814B822BA14BC2
:103A1800A22B010E935F000E945B93519411EFE17A
:103A280095A312D095A103D02D0E8E6F02D02B0E28
:103A38008E6F81C2E1FF82C2E2FF8EC2E6FF814B38
:103A4800822BA14BA22B0CD095A10AD081C2E1FFF9
:103A580082C2E2FF200EE66E814B822BA14BA22B85
:103A6800C00E9515016E9651080B026E0250080A99
:103A780002E1400E01180BE181C2E1FF82C2E2FFC0
:103A8800300EE66E814B822BA14BA22B27D0C00EA5
:103A98009515016E9651080B026E0250080A02E154
:103AA800800E01181BE181C2E1FF82C2E2FF300EE5
:103AB800E66E814B822BA14BA22B95AB03D0580EFF
:103AC8008F6F02D0780E8F6F81C2E1FF82C2E2FF52
:103AD8008FC2E6FF814B822BA14BA22B800E006E7A
:103AE800800E9119005C02E19051925D0BE281C257
:103AF800E1FF82C2E2FF300EE66E814B822BA14BC2
:103B0800A22BECD790C200F091C201F0010E905F99
:103B1800000E915B00500110D8B42AD1C00E951543
:103B2800006E00C0A3F20AD190C200F091C201F069
:103B3800000E91BFFF0E026E036E00360090013634
:103B48000236033600360090013602360336400E40
:103B58000024F66E560E0120F76E000E0220F86E55
:103B68000900F5CF04F00900F5CF05F00900F5CFFD
:103B780006F00900F5CF07F09DC200F09EC201F0E3
:103B88009FC202F0A0C203F031EC0CF00A0E046EE2
:103B9800000E056E066E076E31EC0CF008C000F0E2
:103BA80009C001F00AC002F00BC003F0300E002477
:103BB800926FD3D095AB45D090C200F091C201F07E
:103BC800000E91BFFF0E026E036E003600900136A4
:103BD8000236033600360090013602360336680E88
:103BE8000024F66E560E0120F76E000E0220F86EC5
:103BF8000900F5CF04F00900F5CF05F00900F5CF6D
:103C080006F00900F5CF07F09DC200F09EC201F052
:103C18009FC202F0A0C203F031EC0CF00F0E0016A8
:103C2800000E011602160316BB0E0024F66E560E81
:103C38000120F76E000E0220F86E0900F5CF92F20F
:103C480044D090C200F091C201F0000E91BFFF0E67
:103C5800026E036E003600900136023603360036D7
:103C68000090013602360336680E0024F66E560EB2
:103C78000120F76E000E0220F86E0900F5CF04F05F
:103C88000900F5CF05F00900F5CF06F00900F5CFDA
:103C980007F09DC200F09EC201F09FC202F0A0C2D0
:103CA80003F031EC0CF00F0E0016000E0116021690
:103CB8000316880E0024F66E560E0120F76E000ECD
:103CC8000220F86E0900F5CF92F247D090C200F0BA
:103CD80091C201F0000E91BFFF0E026E036E003616
:103CE800009001360236033600360090013602365F
:103CF8000336100E0024F66E560E0120F76E000EE5
:103D08000220F86E0900F5CF04F00900F5CF05F0A0
:103D18000900F5CF06F00900F5CF07F09DC200F0C5
:103D28009EC201F09FC202F0A0C203F031EC0CF079
:103D3800070E0014926F300E92270FD0A351000A7D
:103D4800D8B4F2D6A351C00AD8B4EED6A351800A8B
:103D5800D8B430D7A351400AB9E081C2E1FF82C28A
:103D6800E2FF92C2E6FF814B822BA14BA22BCAD65F
:103D780095A71AD0800E006E800E9419005C02E19F
:103D88009351000811E281C2E1FF82C2E2FF200ED6
:103D9800E66E814B822BA14BA22B010E935F000E86
:103DA800945B93519411EFE1D9EF0EF0A1C200F0AA
:063DB800A2C201F012009E
:103DBE000C6A0E6A0250D8A4F8EF1EF001C002F091
:103DCE0000C001F0006A0E860250D8A4F8EF1EF073
:103DDE0001C002F0016A0E960E880250D8B40AEFA6
:103DEE001FF00E50035ED8A4D8A010EF1FF0D8908D
:103DFE0002BE16EF1FF0003601360236032EFFEF1D
:103E0E001EF010EF1FF0010E0C6E1FEC00F01AEFFB
:103E1E001FF0020E0C6E12EC00F01AEF1FF0040EE3
:083E2E000C6E0EEC00F0120016
:103E36000201846B81C2E9FF82C2EAFFEECF83F200
:103E46008351000A0FE083C2A9F2BAEC05F0020121
:103E5600842B84518125E96E000E8221EA6EEECF15
:063E660083F2EED712000A
:103E6C000201426B436B406B416B83C200F084C216
:103E7C0001F085C202F0010E8327000E84238523F6
:103E8C0000C0F6FF01C0F7FF02C0F8FF0900F5CF34
:103E9C0000F000C03DF20052D8B42BEF24F03D519D
:103EAC00250A0BE081C2E1FF82C2E2FF3DC2E6FFC0
:103EBC00814B822B424B432BD8D73E6B3F6B406BD5
:103ECC00416B83C2A9F284C2AAF285C2ABF287EC21
:103EDC0009F000C083F201C084F202C085F200C078
:103EEC00F6FF01C0F7FF02C0F8FF0900F5CF00F0A4
:103EFC00000E016E00C0A9F2A7EC0DF0005236E0E6
:103F0C003E6B3F6B3EC200F03FC201F00A0E046EE6
:103F1C00000E056EC6EC0DF083C2F6FF84C2F7FFEF
:103F2C0085C2F8FF0900F5CF02F0025000243E6F65
:103F3C00000E01203F6F300E3E5F000E3F5B010E06
:103F4C008327000E8423852383C2F6FF84C2F7FFE8
:103F5C0085C2F8FF0900F5CF00F0000E016E00C01D
:103F6C00A9F2A7EC0DF00052CDE133D083C2F6FFDD
:103F7C0084C2F7FF85C2F8FF0900F5CF01F00150AC
:103F8C002A0A27E186C2E9FF87C2EAFFEECF00F0DA
:103F9C00EECF01F000C0E9FF01C0EAFFEECF3EF228
:103FAC00EECF3FF286C2E9FF87C2EAFF020EEE2493
:103FBC00006E000EEE20016E86C2E1FF87C2E2FFAA
:103FCC0000C0E6FF01C0E6FF010E8327000E84232C
:103FDC00852383C2F6FF84C2F7FF85C2F8FF090070
:103FEC00F5CF01F001502E0A70E1010E8327000E6F
:103FFC008423852383C2F6FF84C2F7FF85C2F8FFB2
:10400C000900F5CF01F001502A0A28E186C2E9FF28
:10401C0087C2EAFFEECF00F0EECF01F000C0E9FF5F
:10402C0001C0EAFFEECF3BF2EECF3CF286C2E9FFD5
:10403C0087C2EAFF020EEE24006E000EEE20016E27
:10404C0086C2E1FF87C2E2FF00C0E6FF01C0E6FFC7
:10405C00010E8327000E8423852336D03B6B3C6BEB
:10406C0083C2F6FF84C2F7FF85C2F8FF0900F5CFC3
:10407C0000F0000E016E00C0A9F2A7EC0DF000528A
:10408C0023E03BC200F03CC201F00A0E046E000EAD
:10409C00056EC6EC0DF083C2F6FF84C2F7FF85C235
:1040AC00F8FF0900F5CF02F0025000243B6F000E20
:1040BC0001203C6F300E3B5F000E3C5B010E8327F2
:1040CC00000E84238523CCD702D03B6B3C6B83C280
:1040DC0000F084C201F085C202F0010E8327000EAD
:1040EC008423852300C0F6FF01C0F7FF02C0F8FF50
:1040FC000900F5CF3DF2EFD042C200F043C201F00F
:10410C00A8D3408D17D116D1408B408F13D186C2C6
:10411C00E9FF87C2EAFFEECF00F0EECF01F000C05E
:10412C00E9FF01C0EAFFEECF88F2EECF89F286C23A
:10413C00E9FF87C2EAFF020EEE24006E000EEE20AD
:10414C00016E86C2E1FF87C2E2FF00C0E6FF01C03C
:10415C00E6FF000E891902E1000E881904E1AE0E8B
:10416C00886F010E896F8A6B8B6B8A518825E96E7B
:10417C008B518921EA6EEE520BE0010E8A25006EFE
:10418C00000E8B21016E00C08AF201C08BF2EDD7BC
:10419C003B513C110AE08B513C5D02E18A513B5D85
:1041AC0004E23BC28AF23CC28BF23F518B5D02E1CE
:1041BC003E518A5D05E28A513E5F8B513F5B02D0D6
:1041CC003E6B3F6B40B716D03EC200F03FC201F0D1
:1041DC00010E3E5F000E3F5B005001100BE081C2F0
:1041EC00E1FF82C2E2FF200EE66E814B822B424B36
:1041FC00432BEAD78AC202F08BC203F0010E8A5D10
:10420C00006E000E8B59016E00C08AF201C08BF259
:10421C000250031019E088C2E9FF89C2EAFF81C28B
:10422C00E1FF82C2E2FFEECFE6FF814B822B010E53
:10423C008825006E000E8921016E00C088F201C035
:10424C0089F2424B432BD6D740A716D03EC200F082
:10425C003FC201F0010E3E5F000E3F5B00500110AB
:10426C000BE081C2E1FF82C2E2FF200EE66E814BC1
:10427C00822B424B432BEAD7F8D586C2E9FF87C283
:10428C00EAFFEECF00F0EECF01F000C0E9FF01C075
:10429C00EAFFEECF3DF286C2E9FF87C2EAFF020ECB
:1042AC00EE24006E000EEE20016E86C2E1FF87C286
:1042BC00E2FF00C0E6FF01C0E6FF3D0E886F020E74
:1042CC00896F010E8A6F000E8B6F62D7C00E401380
:1042DC00000E41132FD03D51000AD8B40DD73D51DB
:1042EC006C0AD8B40ED73D514C0AD8B40AD73D51FC
:1042FC006F0AD8B406D73D51640AD8B404D73D51DF
:10430C00690AD8B400D73D51700AD8B4FDD63D51D6
:10431C00580AD8B4F9D63D51780AD8B4F6D63D51DE
:10432C00730AD8B4F4D63D51630AA7E03D51750A1F
:10433C00CDE0C3D7C00E4015016E41C202F0000E95
:10434C000216000E021802E1000E01183BE186C2B3
:10435C00E9FF87C2EAFFEECF00F0EECF01F000C01C
:10436C00E9FF01C0EAFFEECF88F2EECF89F286C2F8
:10437C00E9FF87C2EAFF020EEE24006E000EEE206B
:10438C00016E86C2E1FF87C2E2FF00C0E6FF01C0FA
:10439C00E6FF800E8919006E800E005C02E1000EB3
:1043AC00885D0FE2030E4013000E41138851000884
:1043BC00006E89C201F0000E015600C088F201C0E7
:1043CC0089F222D086C2E9FF87C2EAFFEECF00F065
:1043DC00EECF01F000C0E9FF01C0EAFFEECF88F29A
:1043EC00EECF89F286C2E9FF87C2EAFF020EEE2405
:1043FC00006E000EEE20016E86C2E1FF87C2E2FF66
:10440C0000C0E6FF01C0E6FF000E3C1902E1000E01
:10441C003B1908E1000E891902E1000E881902E12E
:10442C003B4B3C2BC00E4015006E00C005F07BD002
:10443C00010E3D6F3D51050A23E03DC200F0000E18
:10444C00016E026E036E00360090013602360336A2
:10445C00D80E0024F66E560E0120F76E000E0220C8
:10446C00F86E0900F5CF01F00900F5CF02F002500B
:10447C00895D02E10150885D01E202D03D2BDAD763
:10448C005FD0010E3D6F3D51040A23E03DC200F0A8
:10449C00000E016E026E036E00360090013602367D
:1044AC000336E20E0024F66E560E0120F76E000E57
:1044BC000220F86E0900F5CF01F00900F5CF02F0EB
:1044CC000250895D02E10150885D01E202D03D2B72
:1044DC00DAD736D0010E3D6F3D51060A23E03DC2BE
:1044EC0000F0000E016E026E036E00360090013675
:1044FC0002360336CC0E0024F66E560E0120F76EF3
:10450C00000E0220F86E0900F5CF01F00900F5CF7E
:10451C0002F00250895D02E10150885D01E202D097
:10452C003D2BDAD70DD00550000A82E00550C00AA9
:10453C00D8B47ED70550800AA4E00550400ACAE0E2
:10454C00800E006E800E3C19005C02E13B513D5D1B
:10455C0003E23BC23DF20DD0800E3C19006E800E82
:10456C00005C02E13D513B5D04E23DC23BF2000EBA
:10457C003C6F3E513F110EE0030E4015006E41C2E0
:10458C0001F0000E01160050011004E0010E3E5F18
:10459C00000E3F5B800E3C19006E800E3F19005CD4
:1045AC0002E13E513B5D05E23B513E5F3C513F5BBE
:1045BC0002D03E6B3F6BC40E4015016E4151080B8F
:1045CC00026E0250080A02E1400E011808E13E5149
:1045DC003F1104E0010E3E5F000E3F5B1CD0C00E8D
:1045EC004015016E4151080B026E0250080A02E19F
:1045FC00800E011810E1800E006E800E3F19005CD9
:10460C0002E13E51020805E2020E3E5F000E3F5BE6
:10461C0002D03E6B3F6B81C2A9F282C2AAF2C1ECFE
:10462C0005F000C081F201C082F23BC200F03CC236
:10463C0001F0010E3B5F000E3C5B00500110D8B442
:10464C00E6D0C00E4015006E00C08CF2C6D03BC246
:10465C0000F03CC201F0000E3CBFFF0E026E036E78
:10466C0000360090013602360336D80E0024F66E62
:10467C00560E0120F76E000E0220F86E0900F5CFE1
:10468C0004F00900F5CF05F088C200F089C201F0F2
:10469C00FCEC09F00A0E046E000E056EFCEC09F041
:1046AC0008C000F009C001F0300E00243D6FA4D00A
:1046BC0040AB35D03BC200F03CC201F0000E3CBF19
:1046CC00FF0E026E036E0036009001360236033682
:1046DC00E20E0024F66E560E0120F76E000E02203C
:1046EC00F86E0900F5CF04F00900F5CF05F088C28B
:1046FC0000F089C201F0FCEC09F00F0E0016000E60
:10470C000116990E0024F66E560E0120F76E000E5F
:10471C00F86E000EF8220900F5CF3DF234D03BC202
:10472C0000F03CC201F0000E3CBFFF0E026E036EA7
:10473C0000360090013602360336E20E0024F66E87
:10474C00560E0120F76E000E0220F86E0900F5CF10
:10475C0004F00900F5CF05F088C200F089C201F021
:10476C00FCEC09F00F0E0016000E0116AA0E002428
:10477C00F66E560E0120F76E000EF86E000EF82243
:10478C000900F5CF3DF238D03BC200F03CC201F03D
:10479C00000E3CBFFF0E026E036E00360090013619
:1047AC0002360336CC0E0024F66E560E0120F76E40
:1047BC00000E0220F86E0900F5CF04F00900F5CFC9
:1047CC0005F088C200F089C201F0FCEC09F0070E7C
:1047DC0000143D6F300E3D270FD08C51000AD8B419
:1047EC0036D78C51C00AD8B432D78C51800AD8B481
:1047FC005FD78C51400AC8E081C2E1FF82C2E2FF60
:10480C003DC2E6FF814B822B424B432B0ED740A778
:10481C001AD0800E006E800E3F19005C02E13E51F2
:10482C00000811E281C2E1FF82C2E2FF200EE66EB7
:10483C00814B822B424B432B010E3E5F000E3F5BA4
:10484C003E513F11EFE13BEF1FF042C200F043C27B
:04485C0001F0120055
:1048600074C281F275C282F21BEC1FF0AC0E816F34
:0A487000010E826F1BEC1FF0120016
:10487A00790E02017D6F020E7E6F74C281F275C2DB
:10488A0082F276C283F277C284F278C285F27D0E12
:10489A00866F020E876F36EC1FF000C07BF201C0F4
:1048AA007CF200507425E16E01507521E26EE66AD1
:0A48BA007BC200F07CC201F0120086
:1048C40081AA18D0020E0B6E040E0C6EBA0E0D6E79
:1048D4000D2EFED70C2EFCD70B2EFAD7000081BA72
:1048E40005D00101BC6B010E176E03D00101010E4E
:0648F400BC6F00D01200B1
:1048FA00D9C126F2DAC127F2DCC128F2DDC129F2D8
:10490A00DEC12AF2DFC12BF2E0C12CF2D7C12FF2AD
:10491A00D8C12EF22E0E02012D6F300E265D006ECA
:10492A00016A000E015AE80E046E030E056EC6EC0B
:10493A000DF000C074F201C075F2300E275D006EF2
:10494A00016A000E015A640E046E000E056EC6EC72
:10495A000DF0005074251C6E015075211D6E300E2D
:10496A00285D006E016A000E015A0A0E046E000EDE
:10497A00056EC6EC0DF000501C2601501D22300EAB
:10498A00295D006E016A000E015A00501C26015072
:10499A001D22E4C13AF2E5C139F2E6C138F22E0E1F
:1049AA00376FE7C130F2E8C131F2EAC132F2EBC146
:1049BA0033F2ECC134F2EDC135F2EEC136F2300E0B
:1049CA00305D006E016A000E015AE80E046E030E95
:1049DA00056EC6EC0DF000C074F201C075F2300E1F
:1049EA00315D006E016A000E015A640E046E000EFB
:1049FA00056EC6EC0DF000507425196E0150752134
:104A0A001A6E300E325D006E016A000E015A0A0EED
:104A1A00046E000E056EC6EC0DF00050192601500A
:104A2A001A22300E335D006E016A000E015A0050E0
:084A3A00192601501A22120096
:104A420000C008F00150006E016A026A036A0B6A34
:104A52000C6A016A026A036A960E036E0A6A00AE63
:104A620039EF25F0081E001E082AD8B4002A0A8E43
:104A720000C001F008C000F0086A026ADFEC1EF014
:024A8200120020
:0A4A8400000E9EBA010E006E120033
:104A8E00AECF01F0ABA202D0AB98AB8801C000F064
:024A9E00120004
:104AA000790E02017F6F020E806F74C281F275C2AF
:104AB00082F276C283F277C284F278C285F27F0EE8
:104AC000866F020E876FD4EC0EF000C07DF201C03D
:104AD0007EF200507425E16E01507521E26EE66AA7
:0A4AE0007DC200F07EC201F012005A
:104AEA00900E0201746F010E756FB5DE060E0B6E25
:104AFA00130E0C6EAD0E0D6E0D2EFED70C2EFCD7BE
:104B0A000B2EFAD700000000780E746F010E756F35
:104B1A00A2DE060E0B6E130E0C6EAD0E0D6E0D2E72
:104B2A00FED70C2EFCD70B2EFAD700000000840EFD
:104B3A00746F010E756F8FDE060E0B6E130E0C6E00
:104B4A00AD0E0D6E0D2EFED70C2EFCD70B2EFAD7FE
:064B5A0000000000120043
:104B60000201726B736B8EDF005201E1FCD78FDFA5
:104B700000C072F20050240AD8A41ED183DF005274
:104B800001E1FCD784DF00C072F20050470AD8A4CC
:104B900013D178DF005201E1FCD779DF00C072F257
:104BA0000050500AD8A408D16DDF005201E1FCD7B3
:104BB0006EDF00C072F20050470AD8A4FDD062DF59
:104BC000005201E1FCD763DF00C072F20050470AD7
:104BD000D8A4F2D057DF005201E1FCD758DF00C063
:104BE00072F20050410AD8A4E7D04CDF005201E134
:104BF000FCD74DDF00C072F2020172510A0A14E0C4
:104C0000CC0EE16E010EE26E7351E126D8B0E22ABD
:104C100072C2E6FF37DF005201E1FCD738DF00C087
:104C200072F20201732BE8D7736B152A66DE540EFD
:104C3000746F020E756FEE0E766F560E776F000E64
:104C4000786F1CC079F21DC07AF217DE1CC000F02C
:104C50001DC001F0F6DE000E046E000E056E000EA3
:104C6000066E7D0E076E23EC01F09A0E046E990E0F
:104C7000056E190E066E7E0E076E62EC04F000C023
:104C8000C1F101C0C2F102C0C3F103C0C4F1260EDC
:104C90000201746F020E756FF60E766F560E776F07
:104CA000000E786F00C079F201C07AF202C07BF288
:104CB00003C07CF2F5DE630E746F020E756FFA0EA0
:104CC000766F560E776F000E786F19C079F21AC0A2
:104CD0007AF2D3DD19C000F01AC001F0B2DE000E86
:104CE000046E000E056E000E066E7C0E076E23EC41
:104CF00001F09A0E046E990E056E190E066E7E0E68
:104D0000076E62EC04F000C0BDF101C0BEF102C04C
:104D1000BFF103C0C0F1000E046E000E056E7A0EE6
:104D2000066E880E076EF2EC0DF0010ED8B0000E84
:104D3000006E005223E0C50E0201746F010E756F04
:104D4000F20E766F560E776F000E786FBDC179F256
:104D5000BEC17AF2BFC17BF2C0C17CF2A1DEC5C187
:104D600031F2C6C132F2C7C133F2C8C134F2C9C18F
:104D700035F2CAC136F2300E306F14D00201300E57
:104D8000746F020E756FEA0E766F560E776F000E17
:104D9000786FBDC179F2BEC17AF2BFC17BF2C0C1EA
:104DA0007CF27EDE0101C16BC26BC36BC46B15501C
:0A4DB000040802E2010E186E120062
:104DBA00740E02014C6F0B0E4D6FA90E4E6F020E50
:104DCA004F6F8E0E506F4A0E516F000E526F000ECB
:104DDA00536F840E486F4A0E496F000E4A6F000ED9
:104DEA004B6FFF0E446FFF0E456F000E466F000EAD
:104DFA00476FAC8A900EAB6E948E949C9EAA03D099
:084E0A00AECF00F0FBD712004F
:104E12000900F5CFE6FF0006FBE10106F9E1120009
:104E2200938E938C938A9590959295949586010191
:084E3200BA6BBB6B1B6A120096
:104E3A0081AC1AD0020E0B6E040E0C6EBA0E0D6EF9
:104E4A000D2EFED70C2EFCD70B2EFAD7000081BCF4
:104E5A0007D0010E0101BA6FBC6B010EBB6F03D004
:0A4E6A000101010EBC6F00D0120020
:104E74001650000AD8A497D023DD010E01018E5FDD
:104E8400000E8F5B1750010A04E18390010E166E29
:104E94000BD0000E8F1902E1000E8E1904E18390ED
:104EA400010E166E01D0166A020E0B6E040E0C6E05
:104EB400BA0E0D6E0D2EFED70C2EFCD70B2EFAD784
:104EC4000000FEDC020E0B6E040E0C6EBA0E0D6EAC
:104ED4000D2EFED70C2EFCD70B2EFAD70000F0DCDB
:104EE400020E0B6E040E0C6EBA0E0D6E0D2EFED756
:104EF4000C2EFCD70B2EFAD70000E2DC020E0B6E50
:104F0400040E0C6EBA0E0D6E0D2EFED70C2EFCD7B1
:104F14000B2EFAD70000D4DC020E0B6E040E0C6EBE
:104F2400BA0E0D6E0D2EFED70C2EFCD70B2EFAD713
:104F34000000C6DC020E0B6E040E0C6EBA0E0D6E73
:104F44000D2EFED70C2EFCD70B2EFAD70000B8DCA2
:104F5400020E0B6E040E0C6EBA0E0D6E0D2EFED7E5
:104F64000C2EFCD70B2EFAD70000AADC020E0B6E17
:104F7400040E0C6EBA0E0D6E0D2EFED70C2EFCD741
:104F84000B2EFAD700009CDC020E0B6E040E0C6E86
:104F9400BA0E0D6E0D2EFED70C2EFCD70B2EFAD7A3
:104FA40000008EDC65D7166A080E01018E6F000EB4
:044FB4008F6F1200E9
:104FB80081AE1AD0020E0B6E040E0C6EBA0E0D6E78
:104FC8000D2EFED70C2EFCD70B2EFAD7000081BE73
:104FD80007D0010E0101BA6FBC6B010E1B6E03D026
:0A4FE8000101010EBC6F00D01200A1
:104FF20083841650000A10E164DC1750010A04E1B0
:10500200010E166E839407D083A604D0010E166E8D
:0C501200839401D0166AEDD7166A1200D4
:10501E00680E0201816F000E826F1BEC1FF00B0EEB
:10502E000B6E260E0C6E5D0E0D6E0D2EFED70C2E1B
:10503E00FCD70B2EFAD700000000500E816F000E29
:10504E00826F1BEC1FF01E0E816F000E826F1BEC29
:10505E001FF0810E816F000E826F1BEC1FF02FC2AE
:10506E00A9F2BAEC05F02EC2A9F2BAEC05F02E0E9A
:10507E000201A96FBAEC05F026C2A9F2BAEC05F04E
:10508E0027C2A9F2BAEC05F028C2A9F2BAEC05F0D3
:10509E0029C2A9F2BAEC05F02BC2A9F2BAEC05F0BE
:1050AE002CC2A9F2BAEC05F0230E0201816F010E9B
:1050BE00826F1BEC1FF0310EA96FBAEC05F0320EA9
:1050CE000201A96FBAEC05F0320E0201A96FBAEC1B
:1050DE0005F02E0E0201A96FBAEC05F030C2A9F24E
:1050EE00BAEC05F031C2A9F2BAEC05F032C2A9F25F
:1050FE00BAEC05F033C2A9F2BAEC05F035C2A9F24A
:10510E00BAEC05F036C2A9F2BAEC05F0150E0201A2
:10511E00816F010E826F1BEC1FF01E0E816F000E51
:10512E00826F1BEC1FF0060E0B6E130E0C6EAD0E87
:10513E000D6E0D2EFED70C2EFCD70B2EFAD70000BF
:10514E0000001A0EA96FBAEC05F0330E0B6EBB0EF3
:10515E000C6EDF0E0D6E0D2EFED70C2EFCD70B2E09
:10516E00FAD700000000150E0B6E4B0E0C6EBE0E25
:10517E000D6E0D2EFED70C2EFCD70B2EFAD700007F
:10518E00FC0E0201816F000E826F1BEC1FF00B0EE6
:10519E000B6E260E0C6E5D0E0D6E0D2EFED70C2EAA
:1051AE00FCD70B2EFAD7000000002F0E816F010ED8
:1051BE00826F1BEC1FF0930E816F010E826F1BEC42
:1051CE001FF02FC2A9F2BAEC05F02EC2A9F2BAEC6A
:1051DE0005F02E0E0201A96FBAEC05F026C2A9F257
:1051EE00BAEC05F027C2A9F2BAEC05F028C2A9F272
:1051FE00BAEC05F029C2A9F2BAEC05F02BC2A9F25D
:10520E00BAEC05F02CC2A9F2BAEC05F09F0E020121
:10521E00816F010E826F1BEC1FF0310EA96FBAEC7D
:10522E0005F0320E0201A96FBAEC05F0320E020142
:10523E00A96FBAEC05F02E0E0201A96FBAEC05F0BB
:10524E0030C2A9F2BAEC05F031C2A9F2BAEC05F0FF
:10525E0032C2A9F2BAEC05F033C2A9F2BAEC05F0EB
:10526E0035C2A9F2BAEC05F036C2A9F2BAEC05F0D5
:10527E00060E0B6E130E0C6EAD0E0D6E0D2EFED7B2
:10528E000C2EFCD70B2EFAD7000000001A0E0201CE
:10529E00A96FBAEC05F0330E0B6EBB0E0C6EDF0E63
:1052AE000D6E0D2EFED70C2EFCD70B2EFAD700004E
:0452BE0000001200DA
:1052C2007FEC2BF0ADDDB886B06ACF0EAF6EAC844A
:1052D20073DD020E0B6E040E0C6EBA0E0D6E0D2EE9
:1052E200FED70C2EFCD70B2EFAD7000075EC25F05A
:1052F200839061DEA1DD0101BA51010AD8A47BD0FD
:10530200BC51010AD8A477D01B50010A3FE1838027
:10531200176AAFDD1750000A24E11850000A02E1B3
:105322001EDCFBD7156A186A79DE020E0B6E040EBC
:105332000C6EBA0E0D6E0D2EFED70C2EFCD70B2E58
:10534200FAD700008380150E0B6E4B0E0C6EBE0E4C
:105352000D6E0D2EFED70C2EFCD70B2EFAD70000A9
:1053620083900B0E0B6E260E0C6E5D0E0D6E0D2EC7
:10537200FED70C2EFCD70B2EFAD70000000001013D
:10538200BA6BBB6B1B6A176A166A34D0BB51010A2F
:1053920031E12EDE176A6DDD1750000A25E1185043
:1053A200000A03E1B0EC25F0FAD7156A186A36DE76
:1053B200020E0B6E040E0C6EBA0E0D6E0D2EFED783
:1053C2000C2EFCD70B2EFAD700008380150E0B6E25
:1053D2004B0E0C6EBE0E0D6E0D2EFED70C2EFCD794
:1053E2000B2EFAD7000083900101BA6BBB6B176AD0
:0E53F200166A00D000D0010EBC6F7BD7FFD72B
:1056FE0010EE15F0A80E006E020E016E000EF66E84
:0E570E00540EF76E000EF86E09EC27F0120034
:0154000000AB
:0154010000AA
:0154020000A9
:0154030000A8
:025404000000A6
:0154060000A5
:025407000000A3
:105409002B363339393534333835343238000000E6
:105419000000000000000000000000000000000083
:105429000000000000000000000000000000000073
:02543900000071
:10543B00414C45525421205472616E736D697474E2
:08544B006572206E6F3A20002B
:1054530041542B434D47533D222B3633393135339A
:09546300303133343631220D00E2
:10546C0020746F207361766520746F20736572767B
:10547C00657220616E6420736565206C6F63617466
:10548C00696F6E2C207573653A2068747470733A6A
:10549C002F2F7272732D72656365697665722D7725
:1054AC006562736974652E6865726F6B7561707077
:1054BC002E636F6D2F7472616E736D697474657287
:1054CC00732F6E65777472616E736D697474657227
:0B54DC003F6C617469747564653D00ED
:1054E70041542B434D47533D222B36333932333307
:0954F700323035373735220D0043
:0E5500002670686F6E654E756D6265723D00B7
:0C550E00266C6F6E6769747564653D0063
:10551A0048454C5021204920616D20696E20646104
:10552A006E6765722C207365656B20617574686F90
:10553A007269746965732F626172616E676179203D
:10554A006F6666696369616C732E20436F6F72645C
:09555A00696E617465733A20006A
:0C55630041542B4950523D393630300085
:0A556F0041542B434D47463D3100E7
:02557900080028
:03557B0041540098
:0C557E00204C617469747564653A20006B
:0D558A00204C6F6E6769747564653A2000EF
:025597000D0005
:055599006E756C6C0052
:07559E00286E756C6C2900FA
:0155A5000005
:0155A6000004
:0155A7000003
:1055A8000000007FCDCC4C7B0AD723786F1203759F
:1055B80017B75171ACC5276EBD37066B95BF5667D7
:1055C80077CC2B645F700961FFE65B5D08E53C3CC6
:0455D8006042221BF0
:1055DC000000007F000020820000488500007A88CF
:1055EC0000401C8C0050438F0024749280961896B7
:1055FC0020BC3E99286B6E9CF90215A0EC782DC14D
:04560C00CAF249E2B3
:10561000010000000800000040000000000200003F
:1056200000100000008000000000040000002000C6
:105630000000000100000008000000400000000021
:10564000010000000A00000064000000E803000000
:1056500010270000A086010040420F0080969800AD
:0856600000E1F50500CA9A3BC8
:105668000100000010000000000100000010000010
:105678000000010000001000000000010000001000
:1056880030313233343536373839616263646566B0
:015698000011
:10569900303132333435363738394142434445465F
:0156A9000000
:1056AA00303132333435363738396162636465668E
:0156BA0000EF
:1056BB00303132333435363738394142434445463D
:0156CB0000DE
:0C56CC00010008004000000200100080F7
:0A56D80001000A006400E803102737
:0856E20001001000000100109E
:0456EA0025386600F9
:0456EE0025387500E6
:0456F20025386600F1
:0456F60025386600ED
:0456FA0025387500DA
:020000040030CA
:0E000000000C1F1EFF8381FF0FC00FE00F409A
:00000001FF
