:10000000FBEF28F00000000000EF00F0000000000F
:0A0010000000000000000000F3D71C
:08001C000AAE029E000E120064
:100024000B820BAE1CEF00F00368026801680068E5
:080034000A360232FF0E120031
:0E003C00026A016A006A086A036A000E120076
:10004A000B840BAE30EF00F0010E036E026A016AF8
:0A005A00006A0A360232FF0E12009F
:100064000CB074EF00F00CA21AEF01F00E6A000E4F
:1000740002648BEF00F0F00E0214D8A456EF00F0E7
:10008400023A01380F0B02260138F00B016E0038DA
:100094000F0B01260038F00B006E08380F0B0026FA
:1000A4000838F00B086E0E84D89002BE6FEF00F093
:1000B40008360036013602360E2A02BE6FEF00F013
:1000C40008360036013602360E2A02BE6FEF00F003
:1000D40008360036013602360E2A0E50036410EF3D
:1000E40001F0035E0BBC08AE15EF01F0D880800E62
:1000F40008640030000E002201220222D8A015EF6D
:1001040001F0023201320032034A1AEF01F015EF16
:1001140001F001C002F000C001F008C000F0086A5C
:10012400000E0E860264C2EF00F0F00E0214D8A492
:10013400AAEF00F0023A01380F0B02260138F00B47
:10014400016E00380F0B01260038F00B006E0E8490
:10015400D89002BE6FEF00F00036013602360E2A48
:1001640002BE6FEF00F00036013602360E2A02BEE0
:100174006FEF00F00036013602360E2A6FEF00F002
:1001840001C002F000C001F0006A000E0E960E8855
:100194000264EFEF00F0F00E0214D8A4DAEF00F0DE
:1001A400023A01380F0B02260138F00B016E0E845F
:1001B400D89002BE6FEF00F0013602360E2A02BE5E
:1001C4006FEF00F0013602360E2A02BE6FEF00F028
:1001D400013602360E2A6FEF00F001C002F0016A08
:1001E400000E0E8602641FEF01F0F00E0214D8A474
:1001F400FEEF00F0023A0E84D89002BE6FEF00F0DA
:1002040002360E2A02BE6FEF00F002360E2A02BE3C
:100214006FEF00F002360E2A6FEF00F0010E0C6E45
:1002240012DF22EF01F0020E0C6EF6DE22EF01F077
:10023400040E0C6EF5DE22EF01F0080E0C6EFCDEEF
:020244001200A6
:10024600086A080E0C6E003408360450085ED8B0F2
:0E02560002D00826D89000360C2EF5D71200E4
:10026400086A096A000E07620364B7EF01F00250DE
:1002740006180A6E075003267E0ED8A048EF01F038
:10028400035ED8B0BBEF01F04CEF01F0035ED8A0E1
:10029400BFEF01F0028E068E02C00EF001C00BF01B
:1002A40000C00DF000500402F4CF0CF00150050220
:1002B400F4CF00F0F3CF08F00402F3500C26F4500E
:1002C4000822000E00220D500502F3500C26F450B3
:1002D4000822000E002202500402F3500826F450B3
:1002E400002202500502016A000E0122F35000268A
:1002F400F45001220D500602F3500826F450002257
:10030400026A000E012202220B500602F35000265C
:10031400F4500122000E02220E500602F350012670
:10032400F450022202BE9FEF01F008360036013677
:1003340002360306D8B4BFEF01F0B2EF01F0D88063
:10034400800E08640030000E002201220222D8A090
:10035400B2EF01F0023201320032034ABBEF01F086
:100364000AAE029E000EC1EF01F0010E65DEC1EF80
:1003740001F0020E55DEC1EF01F0040E64DE12003E
:080384000B6A0B86FF0E12004C
:10038C00025006180E6E086A096A0B6A035007645D
:10039C00B9EF02F006500A6E068E028E03500B6EF9
:1003AC000750036E000E0B6409EF02F00B50075E52
:1003BC00D8B4AAEF02F0070E076478EF02F0075EDC
:1003CC0000C008F001C000F002C001F0026A074E44
:1003DC00AAEF02F007644DEF02F0075E00C008F0D0
:1003EC0001C000F0016A074EAAEF02F007642BEF80
:1003FC0002F0075E00C008F0006A074EAAEF02F098
:10040C00076412EF02F00AC002F005C001F004C04C
:10041C0000F0086AD3EF03F0030E07641DEF02F03F
:10042C00075E08380F0B086E074EAAEF02F0D89043
:10043C000832074EAAEF02F0D8900832074EAAEF06
:10044C0002F0D8900832AAEF02F0030E07643CEFDA
:10045C0002F0075E08380F0B086E0038F00B082608
:10046C0000380F0B006E074EAAEF02F0D890003246
:10047C000832074EAAEF02F0D89000320832074E2D
:10048C00AAEF02F0D89000320832AAEF02F0030E65
:10049C00076464EF02F0075E08380F0B086E003833
:1004AC00F00B082600380F0B006E0138F00B0026FD
:1004BC0001380F0B016E074EAAEF02F0D8900132F3
:1004CC0000320832074EAAEF02F0D8900132003207
:1004DC000832074EAAEF02F0D890013200320832EF
:1004EC00AAEF02F0030E076495EF02F0075E0838DE
:1004FC000F0B086E0038F00B082600380F0B006E3F
:10050C000138F00B002601380F0B016E0238F00B8E
:10051C00012602380F0B026E074EAAEF02F0D8909C
:10052C000232013200320832074EAAEF02F0D890A4
:10053C000232013200320832074EAAEF02F0D89094
:10054C000232013200320832096A000E0EAE9EEF02
:10055C0003F0081E001E011E021E082A00220122A2
:10056C0002229EEF03F00750D8A4BFEF02F0D3EFA6
:10057C0003F0096A02C00AF0028E068E0750035C73
:10058C00076ED8B491EF03F0070E07645FEF03F02A
:10059C00075E0450096E0550046E0650056E066A1F
:1005AC00074E91EF03F0070E076434EF03F0075E7C
:1005BC000450096E0550046E056A074E91EF03F066
:1005CC00070E076412EF03F0075E0450096E046A0D
:1005DC00074E91EF03F0070E0764F9EF02F00AC023
:1005EC0002F0D3EF03F0030E076404EF03F0075E91
:1005FC0009380F0B096E074E91EF03F0D8900932B2
:10060C00074E91EF03F0D8900932074E91EF03F0AB
:10061C00D890093291EF03F0030E076423EF03F037
:10062C00075E09380F0B096E0438F00B09260438E5
:10063C000F0B046E074E91EF03F0D8900432093281
:10064C00074E91EF03F0D89004320932074E91EF28
:10065C0003F0D8900432093291EF03F0030E0764D3
:10066C004BEF03F0075E09380F0B096E0438F00BE3
:10067C00092604380F0B046E0538F00B04260538D8
:10068C000F0B056E074E91EF03F0D8900532043234
:10069C000932074E91EF03F0D8900532043209323B
:1006AC00074E91EF03F0D89005320432093291EFE6
:1006BC0003F0030E07647CEF03F0075E09380F0BA1
:1006CC00096E0438F00B092604380F0B046E05383C
:1006DC00F00B042605380F0B056E0638F00B0526BB
:1006EC0006380F0B066E074E91EF03F0D8900632CA
:1006FC00053204320932074E91EF03F0D8900632DE
:10070C00053204320932074E91EF03F0D8900632CD
:10071C00053204320932086A000E0EAE9EEF03F069
:10072C00091E041E051E061E092A04220522062285
:10073C0009500826045000220550012206500222BE
:10074C000EBEB5EF03F0D8A0C4EF03F002320132B5
:10075C0000320832033EC4EF03F0CEEF03F0D8B002
:10076C00C9EF03F0000E081E001E011E021E082A0F
:10077C000022012202220A7EC9EF03F0010E0C6E48
:10078C006BDCD5EF03F0020E0C6E66DCD5EF03F0DC
:10079C00040E0C6E41DCD5EF03F0000E0C6E120053
:1007AC000B800BAEE2EF03F0026A0AAEFF0E026E94
:0C07BC00016E006E0A360232FF0E1200C1
:1007C8000D6A086A0050D8B4000C04180A6E0ABEF4
:1007D8000D1E0B6A04AE02D0041E042A00AE02D01D
:1007E800001E002A005004100A6E0ABE1FD00450D2
:1007F800085E003600340836045008260036060E17
:100808000C6E00340836045000B0085E00A00826BC
:1008180000360C2EF6D700A008260BB015D00DAE6A
:10082800000C001E002A081E082A000C04AE09D07D
:1008380000BE04D00050086E006AF1D7006A002A92
:10084800000C001E0B2AD3D7082A0450085CD8A431
:0E085800E6D7086A002A00AEE2D7FF0C1200B5
:100866000134083609360450085E0550D8A0053C08
:10087600095E003601360F0E0C6E01340836093655
:10088600045000A006D0085E0550D8A0053C095EBD
:1008960005D008260550D8B0053C09260036013695
:1008A6000C2EEBD700B006D0045008260550D8B061
:0808B600053C092600001200B8
:1008BE000450000A08E10550000A05E1FF0E006E23
:1008CE007F0E016E57D00D6A096A086A015000103A
:1008DE00D8B4000C015005180A6E0ABE0D1E0B6A24
:1008EE0005AE05D0041E051E042AD8B4052A01AE95
:1008FE0005D0001E011E002AD8B4012A0150051091
:10090E000A6E0ABE10D0A8DF0BB020D00DAE000CC0
:10091E00001E011E002AD8B4012A081E091E082A2C
:10092E00D8B4092A000C05AE0DD001BE07D0015077
:10093E00096E0050086E016A006AE8D7016A006A03
:10094E00002A000C011E001E0B2ADDD7082AD8B47F
:10095E00092A0450085CD8A4D9D70550095CD8A43C
:10096E00D5D7096A086A002AD8B4012A01AECED7B3
:06097E000000FF0C120056
:100984000050086E0150006E0250016E0350026E5A
:10099400036A0B6A0C6A9E0E036E0A6A020E0C6EE0
:0609A40032EC00F012002D
:0E09AA00ACB202D00000FCD7B7C2ADFF120005
:1009B8000B6A0A6A096A00500402F4CF09F0F3CFFF
:1009C80008F001500502F4CF0BF0F3CF0AF0005005
:1009D8000502F3500926F4500A22E86A0B22015056
:1009E8000402F3500926F4500A22E86A0B2208C0D0
:1009F80000F009C001F00AC002F00BC003F01200B9
:100A08002DD00101FE87010E0201B727000EB82381
:100A1800B92361D00101FE81010E0201B727000E42
:100A2800B823B92358D00101FE83010E0201B7276C
:100A3800000EB823B9234FD00101FF87010E020130
:100A4800B727000EB823B92346D00101FE85010E51
:100A58000201B727000EB823B9233DD0B7C2F6FF6D
:100A6800B8C2F7FFB9C2F8FF0900F5CF01F001508D
:100A78002D0AC7E0B7C2F6FFB8C2F7FFB9C2F8FF40
:100A88000900F5CF01F00150200AC4E0B7C2F6FF13
:100A9800B8C2F7FFB9C2F8FF0900F5CF01F001505D
:100AA8002B0AC1E0B7C2F6FFB8C2F7FFB9C2F8FF18
:100AB8000900F5CF01F00150230ABEE0B7C2F6FFE6
:100AC800B8C2F7FFB9C2F8FF0900F5CF01F001502D
:100AD800300ABBE001D094D70101FEA301D0FE91FA
:100AE800FEA701D0FE95B7C200F0B8C201F0B9C2A6
:040AF80002F01200F6
:100AFC000201B751390806E3300EB75D03E3010E6E
:080B0C00006E01D0006A120026
:100B14000A6A0350D8A40A800750D8A40A820A504B
:100B2400D8B4EDEF05F0030AD8B4A6EF05F00AB087
:100B3400A1EF05F006AEEBEF05F0E9EF05F002AE2C
:100B4400E9EF05F0EBEF05F00250800B0A6E029E10
:100B54000650800B069E0A18D8B4B7EF05F00A5069
:100B6400D8B4E9EF05F0EBEF05F00750035CD8B417
:100B7400C1EF05F0D8A0DDEF05F0E3EF05F0065076
:100B8400025CD8B4CBEF05F0D8A0DDEF05F0E3EFBD
:100B940005F00550015CD8B4D5EF05F0D8A0DDEF21
:100BA40005F0E3EF05F00450005CD8B4EDEF05F078
:100BB400D8B0E3EF05F00A52D8B4EBEF05F0E9EF53
:100BC40005F00A52D8B4E9EF05F0EBEF05F0D88050
:0E0BD4001200D8901200D880D88412001200AF
:100BE2000B6A0C6A086A0350D8B475EF06F002C0AB
:100BF2000AF0028E9E0E035E03AE65EF06F0036CF2
:100C0200080E035CD8A032EF06F0036E083600C06F
:100C120008F001C000F002C001F0026A080E035C95
:100C2200D8A032EF06F0036E083600C008F001C00B
:100C320000F0016A080E035CD8A032EF06F0036EE2
:100C4200083600C008F0006A080E035CD8A032EF34
:100C520006F0036E0836086A0350D8A4D8903EEF17
:100C620006F00350D8B43EEF06F0D89002320132BB
:100C720000320832032E36EF06F00BBC08A04FEF0D
:100C820006F0D8A04FEF06F0082AD8B4002AD8B44C
:100C9200012AD8B4022A02BE79EF06F00AAE75EF35
:100CA20006F0021E011E001E081E082AD8B4002AE1
:100CB200D8B4012AD8B4022A75EF06F0026A016A92
:100CC200006A086A75EF06F00B800BAE7FEF06F044
:100CD200026A0AAE7FEF06F0026E016E006E086EC7
:100CE2000A3602327FEF06F00C6A000E80EF06F041
:100CF200010E0C6E000E59DD80EF06F0FF0E025061
:100D0200036E0150026E0050016E0850006E120018
:100D12006E0E0201B75DD8A0CAD0640E046EB7C2CF
:100D220000F023EC01F0120E0024056E066A000E9C
:100D3200062205C000F006C001F0000E06BEFF0E3E
:100D4200026E036E0036009001360236033600361C
:100D52000090013602360336CE0E0024F66E540E93
:100D62000120F76E000E0220F86E0900F5CF00F0A8
:100D72000900F5CF01F00900F5CF02F00900F5CF27
:100D820003F0000E046E000E056E000E066E7E0E5F
:100D9200076E32EC01F000C0B8F201C0B9F202C035
:100DA200BAF203C0BBF2640E046EB7C200F023ECC9
:100DB20001F008C000F00A0E046E23EC01F0090EE7
:100DC2000024056E066A000E062205C000F006C069
:100DD20001F0000E06BEFF0E026E036E003600909A
:100DE20001360236033600360090013602360336EB
:100DF200CE0E0024F66E540E0120F76E000E022075
:100E0200F86E0900F5CF00F00900F5CF01F00900F6
:100E1200F5CF02F00900F5CF03F0B8C204F0B9C271
:100E220005F0BAC206F0BBC207F032EC01F000C016
:100E3200B8F201C0B9F202C0BAF203C0BBF20A0EA4
:100E4200046EB7C200F023EC01F008C000F000C04D
:100E520001F0000E026E036E046E0136019002363E
:100E62000336043601360190023603360436CE0EBE
:100E72000124F66E540E0220F76E000E0320F86E67
:100E82000900F5CF00F00900F5CF01F00900F5CF18
:100E920002F00900F5CF03F0B8C204F0B9C205F0C0
:100EA200BAC206F0BBC207F032EC01F0B1D0B751C2
:100EB2000A08D8B07ED00A0E046EB7C200F023EC46
:100EC20001F0090E0024056E066A000E062205C016
:100ED20000F006C001F0000E06BEFF0E026E036EA9
:100EE2000036009001360236033600360090013695
:100EF20002360336CE0E0024F66E540E0120F76E33
:100F0200000E0220F86E0900F5CF00F00900F5CFBF
:100F120001F00900F5CF02F00900F5CF03F0000E51
:100F2200046E000E056E000E066E7E0E076E32EC2B
:100F320001F000C0B8F201C0B9F202C0BAF203C0B7
:100F4200BBF20A0E046EB7C200F023EC01F008C037
:100F520000F000C001F0000E026E036E046E013656
:100F6200019002360336043601360190023603360A
:100F72000436CE0E0124F66E540E0220F76E000ED9
:100F82000320F86E0900F5CF00F00900F5CF01F05B
:100F92000900F5CF02F00900F5CF03F0B8C204F062
:100FA200B9C205F0BAC206F0BBC207F032EC01F0DA
:100FB2002FD0B7C200F0000E016E026E036E003633
:100FC20000900136023603360036009001360236B2
:100FD2000336CE0E0024F66E540E0120F76E000E7C
:100FE2000220F86E0900F5CF00F00900F5CF01F0FC
:100FF2000900F5CF02F00900F5CF03F0000E046EF0
:10100200000E056E000E066E7E0E076E32EC01F0CB
:021012001200CA
:101014000B6A0A6A096A086A0E6A033408360450BD
:10102400085E0550D8A0053C095E0650D8A0063CD1
:101034000A5E0750D8A0073C0B5EE86AD8A0010EF0
:101044000E5E0336070E0C6E0334083609360A3674
:101054000B360E36045003A012D0085E0550D8A0FB
:10106400053C095E0650D8A0063C0A5E0750D8A08D
:10107400073C0B5EE86AD8A0010E0E5E11D008266C
:101084000550D8B0053C09260650D8B0063C0A26BF
:101094000750D8B0073C0B26E86AD8B0010E0E26DC
:1010A40003360C2ED1D70234083609360A360B36ED
:1010B4000E36045003A012D0085E0550D8A0053C9B
:1010C400095E0650D8A0063C0A5E0750D8A0073C2B
:1010D4000B5EE86AD8A0010E0E5E11D008260550FA
:1010E400D8B0053C09260650D8B0063C0A2607505D
:1010F400D8B0073C0B26E86AD8B0010E0E2602369B
:10110400070E0C6E0234083609360A360B360E36D4
:10111400045002A012D0085E0550D8A0053C095E18
:101124000650D8A0063C0A5E0750D8A0073C0B5EC8
:10113400E86AD8A0010E0E5E11D008260550D8B07A
:10114400053C09260650D8B0063C0A260750D8B0FC
:10115400073C0B26E86AD8B0010E0E2602360C2E88
:10116400D1D70134083609360A360B360E36045008
:1011740002A012D0085E0550D8A0053C095E0650B6
:10118400D8A0063C0A5E0750D8A0073C0B5EE86A6C
:10119400D8A0010E0E5E11D008260550D8B0053C2B
:1011A40009260650D8B0063C0A260750D8B0073C9A
:1011B4000B26E86AD8B0010E0E260136070E0C6E17
:1011C4000134083609360A360B360E36045001A0AF
:1011D40012D0085E0550D8A0053C095E0650D8A080
:1011E400063C0A5E0750D8A0073C0B5EE86AD8A00C
:1011F400010E0E5E11D008260550D8B0053C092614
:101204000650D8B0063C0A260750D8B0073C0B2637
:10121400E86AD8B0010E0E2601360C2ED1D7003460
:10122400083609360A360B360E36045001A012D0A1
:10123400085E0550D8A0053C095E0650D8A0063CBF
:101244000A5E0750D8A0073C0B5EE86AD8A0010EDE
:101254000E5E11D008260550D8B0053C092606506C
:10126400D8B0063C0A260750D8B0073C0B26E86ADB
:10127400D8B0010E0E260036070E0C6E0034083668
:1012840009360A360B360E36045000A012D0085E1A
:101294000550D8A0053C095E0650D8A0063C0A5E5D
:1012A4000750D8A0073C0B5EE86AD8A0010E0E5E7A
:1012B40011D008260550D8B0053C09260650D8B0F0
:1012C400063C0A260750D8B0073C0B26E86AD8B07B
:1012D400010E0E2600360C2ED1D700B00ED00450CD
:1012E40008260550D8B0053C09260650D8B0063C5F
:0C12F4000A260750D8B0073C0B26120059
:08130000067EC6EC01F01200AC
:1013080003500718D8A498EF09F002500618D8A47B
:1013180098EF09F001500518D8A498EF09F000508B
:0E1328000418D8B4D8841200D8941200120011
:101336000101FEA567D0FEA314D0FEA103D02D0E99
:10134600036E02D02B0E036EB7C2E1FFB8C2E2FFF6
:1013560003C0E6FF0201B74BB82B0101F34BF42B98
:101366003AD0FEA10DD0B7C2E1FFB8C2E2FF200E0F
:10137600E66E0201B74BB82B0101F34BF42B2BD0D1
:10138600C00EFE15016EFF51080B026E0250080AD0
:1013960002E1800E01181FE1B7C2E1FFB8C2E2FF09
:1013A600300EE66E0201B74BB82B0101F34BF42B5E
:1013B600FEAB03D0580E046E02D0780E046EB7C290
:1013C600E1FFB8C2E2FF04C0E6FF0201B74BB82B4B
:1013D6000101F34BF42BEF51F01113E0B7C2E1FF1B
:1013E600B8C2E2FF300EE66E0201B74BB82B010120
:1013F600F34BF42B010EEF5F000EF05BEF51F01193
:10140600EDE180D0EF51F01115E0FEB713D0B7C271
:10141600E1FFB8C2E2FF200EE66E0201B74BB82B21
:101426000101F34BF42B010EEF5F000EF05BEF5161
:10143600F011EDE1FEA314D0FEA103D02D0E056E32
:1014460002D02B0E056EB7C2E1FFB8C2E2FF05C09F
:10145600E6FF0201B74BB82B0101F34BF42B0ED07C
:10146600FEA10CD0B7C2E1FFB8C2E2FF200EE66EC5
:101476000201B74BB82B0101F34BF42BC00EFE153E
:10148600016EFF51080B026E0250080A02E1400E7F
:1014960001180DE1B7C2E1FFB8C2E2FF300EE66EF9
:1014A6000201B74BB82B0101F34BF42B2BD0C00E26
:1014B600FE15016EFF51080B026E0250080A02E18A
:1014C600800E01181FE1B7C2E1FFB8C2E2FF300E7D
:1014D600E66E0201B74BB82B0101F34BF42BFEABC2
:1014E60003D0580E066E02D0780E066EB7C2E1FF24
:1014F600B8C2E2FF06C0E6FF0201B74BB82B0101F6
:10150600F34BF42B800E006E800EF219005C02E1A4
:10151600F151F55D0DE2B7C2E1FFB8C2E2FF300E50
:10152600E66E0201B74BB82B0101F34BF42BEAD759
:0A153600B7C200F0B8C201F01200C5
:101540000B6A0C6A0A6A086A0350D8B428EF0BF0D9
:10155000028E9E0E035E03BEB3EF0AF0D8B4B3EF63
:101560000AF018EF0BF0036C080E035CD8A0E5EF4F
:101570000AF0036E083600C008F001C000F002C097
:1015800001F0026A080E035CD8A0E5EF0AF0036ED2
:10159000083600C008F001C000F0016A080E035CC4
:1015A000D8A0E5EF0AF0036E083600C008F0006A24
:1015B000080E035CD8A0E5EF0AF0036E0836086A4F
:1015C0000350D8A4D890F1EF0AF00350D8B4F1EF4B
:1015D0000AF0D8900232013200320832032EE9EFCD
:1015E0000AF00BBC08A002EF0BF0D8A002EF0BF042
:1015F000082AD8B4002AD8B4012AD8B4022A02BED4
:101600002CEF0BF00AAE28EF0BF0021E011E001E9D
:10161000081E082AD8B4002AD8B4012AD8B4022A4D
:1016200028EF0BF0026A016A006A086A28EF0BF0E3
:101630000B800BAE32EF0BF0026A0AAE32EF0BF00A
:10164000026E016E006E086E0A36023232EF0BF047
:10165000000E0C6A33EF0BF0010E0C6ED6EC03F0AB
:1016600033EF0BF0FF0E0250036E0150026E00507C
:08167000016E0850006E12002B
:10167800086A096A100E0C6E0134083609360450DF
:10168800085E0550D8A0053C095ED8B007D00450C4
:1016980008260550D8B0053C0926D89000360136F2
:0616A8000C2EEAD712002F
:1016AE000450000A12E10550000A0FE10650000A2C
:1016BE000CE10750000A09E1FF0E006EFF0E016EED
:1016CE007F0E026EFF0E036EA8D0086A096A0750DD
:1016DE00D8B402EF0CF00350D8B407EF0CF0025060
:1016EE0006180A6E028E068E0E6A02C008F001C03F
:1016FE000CF000C00DF004500D5E0550D8A0053C56
:10170E000C5E0650D8A0063C085E086A0C6A0D6A8C
:10171E00D8A099EF0BF0D890023201320032083285
:10172E00010E0E6E0750035ED8A0A6EF0BF07E0ED4
:10173E000E240326D8B00CEF0CF0ACEF0BF07E0E9F
:10174E000E240326D8A011EF0CF0180E0B6E0D36DA
:10175E000C3608360036013602360E360450005E60
:10176E000550D8A0053C015E0650D8A0063C025E8E
:10177E0006340E120EA0C7EF0BF00D80D2EF0BF059
:10178E00045000260550D8B0053C01260650D8B0AE
:10179E00062802260D900B2EAEEF0BF0F8EF0BF095
:1017AE00D8900036013602360E360450005E0550D3
:1017BE00D8A0053C015E0650D8A0063C025E063459
:1017CE000E10010B0D26D8B00C2AD8B4082AD8A4B6
:1017DE00F8EF0BF008320C320D32032AD8B40CEFAE
:1017EE000CF00AAE089E0850026E0C50016E0D50A1
:1017FE00006E14EF0CF0010EC2EC01F014EF0CF0C1
:10180E00020E1EEC00F014EF0CF0040E12EC00F0C1
:0C181E0014EF0CF0080E25EC00F0120096
:10182A00800E0201B719006E800E000A005CD8B063
:10183A006DD1B7510008016E01C0B7F2800E0118D0
:10184A00006E800E6E0A005CD8A0C0D0640E046ED2
:10185A00B7C200F0E4EC03F0120E0024056E000E8D
:10186A0000BEFF0E066E000E062205C000F006C07E
:10187A0001F0000E06BEFF0E026E036E00360090E7
:10188A000136023603360036009001360236033638
:10189A00CE0E0024F66E540E0120F76E000E0220C2
:1018AA00F86E0900F5CFB8F20900F5CFB9F20900D0
:1018BA00F5CFBAF20900F5CFBBF2640E046EB7C2D7
:1018CA0000F0E4EC03F008C000F00A0E046EE4EC49
:1018DA0003F0090E0024056E000E00BEFF0E066E10
:1018EA00000E062205C000F006C001F0000E06BE7A
:1018FA00FF0E026E036E0036009001360236033682
:10190A0000360090013602360336CE0E0024F66EFB
:10191A00540E0120F76E000E0220F86E0900F5CF72
:10192A0000F00900F5CF01F00900F5CF02F0090037
:10193A00F5CF03F0B8C204F0B9C205F0BAC206F096
:10194A00BBC207F032EC01F000C0B8F201C0B9F234
:10195A0002C0BAF203C0BBF20A0E046EB7C200F0AC
:10196A00E4EC03F008C000F000C001F0000E00BE75
:10197A00FF0E026E036E046E0136019002360336C4
:10198A00043601360190023603360436CE0E01249F
:10199A00F66E540E0220F76E000E0320F86E090050
:1019AA00F5CF00F00900F5CF01F00900F5CF02F0FC
:1019BA000900F5CF03F0B8C204F0B9C205F0BAC203
:1019CA0006F0BBC207F032EC01F007D2800E0A0A19
:1019DA00006E800EB719005C71E20A0E046EB7C27F
:1019EA0000F0E4EC03F0090E0024056E000E00BEC0
:1019FA00FF0E066E000E062205C000F006C001F0BA
:101A0A00000E06BEFF0E026E036E0036009001360F
:101A1A000236033600360090013602360336CE0E01
:101A2A000024F66E540E0120F76E000E0220F86EA6
:101A3A000900F5CFB8F20900F5CFB9F20900F5CFE0
:101A4A00BAF20900F5CFBBF20A0E046EB7C200F073
:101A5A00E4EC03F008C000F000C001F0000E00BE84
:101A6A00FF0E026E036E046E0136019002360336D3
:101A7A00043601360190023603360436CE0E0124AE
:101A8A00F66E540E0220F76E000E0320F86E09005F
:101A9A00F5CF00F00900F5CF01F00900F5CF02F00B
:101AAA000900F5CF03F0B8C204F0B9C205F0BAC212
:101ABA0006F0BBC207F032EC01F08FD1B7C200F0DA
:101ACA00000EB7BFFF0E016E026E036E0036009065
:101ADA0001360236033600360090013602360336E6
:101AEA00CE0E0024F66E540E0120F76E000E022070
:101AFA00F86E0900F5CF00F00900F5CF01F00900F2
:101B0A00F5CF02F00900F5CF03F067D1800EB719BF
:101B1A00006E800E6E0A005CD8A0C0D0640E046EFF
:101B2A00B7C200F0E4EC03F0120E0024056E000EBA
:101B3A0000BEFF0E066E000E062205C000F006C0AB
:101B4A0001F0000E06BEFF0E026E036E0036009014
:101B5A000136023603360036009001360236033665
:101B6A009A0E0024F66E540E0120F76E000E022023
:101B7A00F86E0900F5CFB8F20900F5CFB9F20900FD
:101B8A00F5CFBAF20900F5CFBBF2640E046EB7C204
:101B9A0000F0E4EC03F008C000F00A0E046EE4EC76
:101BAA0003F0090E0024056E000E00BEFF0E066E3D
:101BBA00000E062205C000F006C001F0000E06BEA7
:101BCA00FF0E026E036E00360090013602360336AF
:101BDA00003600900136023603369A0E0024F66E5D
:101BEA00540E0120F76E000E0220F86E0900F5CFA0
:101BFA0000F00900F5CF01F00900F5CF02F0090065
:101C0A00F5CF03F0B8C204F0B9C205F0BAC206F0C3
:101C1A00BBC207F032EC01F000C0B8F201C0B9F261
:101C2A0002C0BAF203C0BBF20A0E046EB7C200F0D9
:101C3A00E4EC03F008C000F000C001F0000E00BEA2
:101C4A00FF0E026E036E046E0136019002360336F1
:101C5A000436013601900236033604369A0E012400
:101C6A00F66E540E0220F76E000E0320F86E09007D
:101C7A00F5CF00F00900F5CF01F00900F5CF02F029
:101C8A000900F5CF03F0B8C204F0B9C205F0BAC230
:101C9A0006F0BBC207F032EC01F09FD0800E0A0AB0
:101CAA00006E800EB719005C71E20A0E046EB7C2AC
:101CBA0000F0E4EC03F0090E0024056E000E00BEED
:101CCA00FF0E066E000E062205C000F006C001F0E7
:101CDA00000E06BEFF0E026E036E0036009001363D
:101CEA0002360336003600900136023603369A0E63
:101CFA000024F66E540E0120F76E000E0220F86ED4
:101D0A000900F5CFB8F20900F5CFB9F20900F5CF0D
:101D1A00BAF20900F5CFBBF20A0E046EB7C200F0A0
:101D2A00E4EC03F008C000F000C001F0000E00BEB1
:101D3A00FF0E026E036E046E013601900236033600
:101D4A000436013601900236033604369A0E01240F
:101D5A00F66E540E0220F76E000E0320F86E09008C
:101D6A00F5CF00F00900F5CF01F00900F5CF02F038
:101D7A000900F5CF03F0B8C204F0B9C205F0BAC23F
:101D8A0006F0BBC207F032EC01F027D0B7C200F070
:101D9A00000EB7BFFF0E016E026E036E0036009092
:101DAA000136023603360036009001360236033613
:101DBA009A0E0024F66E540E0120F76E000E0220D1
:101DCA00F86E0900F5CF00F00900F5CF01F009001F
:0C1DDA00F5CF02F00900F5CF03F0120075
:101DE6000C6A0E6A0250D8A40CEF0FF001C002F084
:101DF60000C001F0006A0E860250D8A40CEF0FF066
:101E060001C002F0016A0E960E880250D8B41EEF89
:101E16000FF00E50035ED8A4D8A024EF0FF0D89090
:101E260002BE2AEF0FF0003601360236032E13EFFC
:101E36000FF024EF0FF0010E0C6E1EEC00F02EEFEB
:101E46000FF0020E0C6E25EC00F02EEF0FF0040ED4
:081E56000C6E0EEC00F012000E
:101E5E000201AF6BB06BA36BA46B91C200F092C288
:101E6E0001F093C202F0010E9127000E92239323EC
:101E7E0000C0F6FF01C0F7FF02C0F8FF0900F5CF62
:101E8E0000F000C0A0F20052D8B43DEF1FF0A051F8
:101E9E00250A0BE08FC2E1FF90C2E2FFA0C2E6FF6F
:101EAE008F4B902BAF4BB02BD8D7A16BA26BA36BE4
:101EBE00A46B23D0A387010E9127000E92239323A8
:101ECE0059D0A381010E9127000E9223932352D055
:101EDE00A383010E9127000E922393234BD0A48748
:101EEE00010E9127000E9223932344D0A385010E59
:101EFE009127000E922393233DD091C2F6FF92C2FA
:101F0E00F7FF93C2F8FF0900F5CF01F001502D0A3B
:101F1E00D1E091C2F6FF92C2F7FF93C2F8FF09001B
:101F2E00F5CF01F00150200ACCE091C2F6FF92C22B
:101F3E00F7FF93C2F8FF0900F5CF01F001502B0A0D
:101F4E00C7E091C2F6FF92C2F7FF93C2F8FF0900F5
:101F5E00F5CF01F00150230AC2E091C2F6FF92C202
:101F6E00F7FF93C2F8FF0900F5CF01F00150300AD8
:101F7E00BDE001D09ED7A3A301D0A391A3A701D00A
:101F8E00A39591C2F6FF92C2F7FF93C2F8FF090024
:101F9E00F5CF00F0000E016E00C0B7F27EEC05F03A
:101FAE00005236E0A16BA26BA1C200F0A2C201F0FA
:101FBE000A0E046E000E056EDCEC04F091C2F6FF04
:101FCE0092C2F7FF93C2F8FF0900F5CF02F002505C
:101FDE000024A16F000E0120A26F300EA15F000E33
:101FEE00A25B010E9127000E9223932391C2F6FF5E
:101FFE0092C2F7FF93C2F8FF0900F5CF00F0000E72
:10200E00016E00C0B7F27EEC05F00052CDE133D088
:10201E0091C2F6FF92C2F7FF93C2F8FF0900F5CF07
:10202E0001F001502A0A27E194C2E9FF95C2EAFFA6
:10203E00EECF00F0EECF01F000C0E9FF01C0EAFFE5
:10204E00EECFA1F2EECFA2F294C2E9FF95C2EAFF63
:10205E00020EEE24006E000EEE20016E94C2E1FF21
:10206E0095C2E2FF00C0E6FF01C0E6FF010E912718
:10207E00000E9223932391C2F6FF92C2F7FF93C2F2
:10208E00F8FF0900F5CF01F001502E0A70E1010EA4
:10209E009127000E9223932391C2F6FF92C2F7FF6F
:1020AE0093C2F8FF0900F5CF01F001502A0A28E18A
:1020BE0094C2E9FF95C2EAFFEECF00F0EECF01F039
:1020CE0000C0E9FF01C0EAFFEECF9EF2EECF9FF215
:1020DE0094C2E9FF95C2EAFF020EEE24006E000ED6
:1020EE00EE20016E94C2E1FF95C2E2FF00C0E6FF52
:1020FE0001C0E6FF010E9127000E9223932336D0E6
:10210E009E6B9F6B91C2F6FF92C2F7FF93C2F8FFD0
:10211E000900F5CF00F0000E016E00C0B7F27EECA4
:10212E0005F0005223E09EC200F09FC201F00A0E9D
:10213E00046E000E056EDCEC04F091C2F6FF92C246
:10214E00F7FF93C2F8FF0900F5CF02F0025000240A
:10215E009E6F000E01209F6F300E9E5F000E9F5BE4
:10216E00010E9127000E92239323CCD703D09E6BA2
:10217E009F6BA48991C200F092C201F093C202F04B
:10218E00010E9127000E9223932300C0F6FF01C08B
:10219E00F7FF02C0F8FF0900F5CFA0F2F9D0AFC2E9
:1021AE0000F0B0C201F041EF1FF0A389E3D7A48580
:1021BE002ED1A38BA4812BD1A48329D1A38D27D17A
:1021CE0026D1A38BA38F23D194C2E9FF95C2EAFF38
:1021DE00EECF00F0EECF01F000C0E9FF01C0EAFF44
:1021EE00EECFABF2EECFACF294C2E9FF95C2EAFFAE
:1021FE00020EEE24006E000EEE20016E94C2E1FF80
:10220E0095C2E2FF00C0E6FF01C0E6FF000EAC196A
:10221E0002E1000EAB1904E1C10EAB6F010EAC6F03
:10222E00AD6BAE6BAD51AB25E96EAE51AC21EA6E26
:10223E00EE520BE0010EAD25006E000EAE21016ECA
:10224E0000C0ADF201C0AEF2EDD79E519F110AE073
:10225E00AE519F5D02E1AD519E5D04E29EC2ADF2B4
:10226E009FC2AEF2A251AE5D02E1A151AD5D05E29B
:10227E00AD51A15FAE51A25B02D0A16BA26BA3B711
:10228E0016D0A1C200F0A2C201F0010EA15F000E95
:10229E00A25B005001100BE08FC2E1FF90C2E2FF83
:1022AE00200EE66E8F4B902BAF4BB02BEAD7ADC204
:1022BE0002F0AEC203F0010EAD5D006E000EAE591F
:1022CE00016E00C0ADF201C0AEF20250031019E073
:1022DE00ABC2E9FFACC2EAFF8FC2E1FF90C2E2FFE0
:1022EE00EECFE6FF8F4B902B010EAB25006E000E4E
:1022FE00AC21016E00C0ABF201C0ACF2AF4BB02B03
:10230E00D6D7A3A716D0A1C200F0A2C201F0010E2B
:10231E00A15F000EA25B005001100BE08FC2E1FF27
:10232E0090C2E2FF200EE66E8F4B902BAF4BB02B80
:10233E00EAD793D594C2E9FF95C2EAFFEECF00F03B
:10234E00EECF01F000C0E9FF01C0EAFFEECFA0F230
:10235E0094C2E9FF95C2EAFF020EEE24006E000E53
:10236E00EE20016E94C2E1FF95C2E2FF00C0E6FFCF
:10237E0001C0E6FFA00EAB6F020EAC6F010EAD6F8B
:10238E00000EAE6F62D7C00EA313000EA4133FD083
:10239E00A051000AD8B403D7A0516C0AD8B405D7FF
:1023AE00A0514C0AD8B401D7A051660AD8B4FFD6B2
:1023BE00A051450AD8B4FDD6A051650AD8B4FAD6B4
:1023CE00A051670AD8B4F8D6A0516F0AD8B4F6D681
:1023DE00A051640AD8B4F4D6A051690AD8B4F0D684
:1023EE00A051700AD8B4EDD6A051580AD8B4E9D687
:1023FE00A051780AD8B4E6D6A051730AD8B4E4D660
:10240E00A051630A97E0A051750ABDE0B3D7000E44
:10241E00A315006EA451070B016E00500110D8B425
:10242E00E4EF1AF0A4A904D0060E9E6F000E9F6F63
:10243E0094C2E9FF95C2EAFFEECF00F0EECF01F0B5
:10244E0000C0E9FF01C0EAFFEECFA5F2EECFA6F283
:10245E00EECFA7F2EECFA8F294C2E9FF95C2EAFF43
:10246E00040EEE24006E000EEE20016E94C2E1FF0B
:10247E0095C2E2FF00C0E6FF01C0E6FF046A056AEE
:10248E00066A076AA5C200F0A6C201F0A7C202F052
:10249E00A8C203F08AEC05F0010ED8B0000E006E53
:1024AE00005205E0A77F030EA313000EA413A96B21
:1024BE00AA6BA5C200F0A6C201F0A7C202F0A8C284
:1024CE0003F0046A056A066A076A84EC09F0000ED6
:1024DE00D8A4010E006E0052D8B48AD0A8C200F063
:1024EE00016A026A036AFF0E0016000E01167E0EC6
:1024FE00005E000E015A00C0A9F201C0AAF2010E40
:10250E00005E000E015A00C0A9F201C0AAF2030E2D
:10251E00046E000E056EDCEC04F000C0A9F201C0E2
:10252E00AAF20A0E046E000E056E5FEC04F000C0F7
:10253E00A9F201C0AAF2800E0118026E800E025C92
:10254E0002E1000E005C05E2010E0201A95F000E21
:10255E00AA5B0201A9510008B76F15EC0CF0A5C2D9
:10256E0004F0A6C205F0A7C206F0A8C207F032EC2E
:10257E0001F000C0ABF201C0ACF202C0ADF203C07C
:10258E00AEF2000E046E000E056E000E066E7F0E8D
:10259E00076EABC200F0ACC201F0ADC202F0AEC22B
:1025AE0003F08AEC05F0010ED8B0000E006E00525A
:1025BE0005E0010EA95F000EAA5B1AD0000E046E94
:1025CE00000E056E200E066E820E076EABC200F078
:1025DE00ACC201F0ADC202F0AEC203F08AEC05F05F
:1025EE00000ED8B0010E006E005202E0A94BAA2BCD
:1025FE00800E006E800EAA19005C02E1A95100083F
:10260E0003E3010EA06F02D0A9C2A0F2A4B118D0AC
:10261E00A4A315D0800EAA19006E7F0E005C02E1F5
:10262E00FC0EA95D0BE3800EAA19006E800E9F1999
:10263E00005C02E19E51A95D01E201D001D0EFD311
:10264E009E519F1106E0A4A304D0010E9E5F000EC2
:10265E009F5B9F51000802E19E51080803E2080E9D
:10266E00A06F02D09EC2A0F2A5C200F0A6C201F0D9
:10267E00A7C202F0A8C203F0046A056A066A076AD6
:10268E0084EC09F0000ED8A4010E006E0052D8B4EE
:10269E004BD1A9C2B7F215EC0CF000C004F001C08A
:1026AE0005F002C006F003C007F0A5C200F0A6C2F6
:1026BE0001F0A7C202F0A8C203F057EC0BF000C065
:1026CE00A5F201C0A6F202C0A7F203C0A8F2020151
:1026DE00A0510008B76F15EC0CF000C004F001C05B
:1026EE0005F002C006F003C007F0A5C200F0A6C2B6
:1026FE0001F0A7C202F0A8C203F057EC0BF000C025
:10270E00B1F201C0B2F202C0B3F203C0B4F2B1C270
:10271E00A5F2B2C2A6F2B3C2A7F2B4C2A8F2B1C277
:10272E0000F0B2C201F0B3C202F0B4C203F0A0ECEA
:10273E000AF0C2EC04F000C004F001C005F002C0C3
:10274E0006F003C007F0B1C200F0B2C201F0B3C28E
:10275E0002F0B4C203F080EC09F0000E046E000E1D
:10276E00056E000E066E7E0E076E8AEC05F0000EEC
:10277E00D8B0010E006E00521AE0A5C200F0A6C23B
:10278E0001F0A7C202F0A8C203F0000E046E000E04
:10279E00056E000E066E7E0E076EC6EC01F000C0D2
:1027AE00A5F201C0A6F202C0A7F203C0A8F2A5C20C
:1027BE0000F0A6C201F0A7C202F0A8C203F0A0EC7E
:1027CE000AF00201A051010F096E0A6A000E0A22D8
:1027DE0009C004F00AC005F0000E0ABEFF0E066E18
:1027EE00076E043604900536063607360436049016
:1027FE00053606360736320E0424F66E550E0520C3
:10280E00F76E000E0620F86E0900F5CF05F00900F0
:10281E00F5CF06F00900F5CF07F00900F5CF08F067
:10282E000850035C08E10750025C05E10650015CAC
:10283E0002E10550005C1EE30201A5C200F0A6C233
:10284E0001F0A7C202F0A8C203F0CD0E046ECC0EAA
:10285E00056E4C0E066E7B0E076E32EC01F000C05C
:10286E00A5F201C0A6F202C0A7F203C0A8F2A94BBE
:10287E00AA2B5AD0A5C200F0A6C201F0A7C202F040
:10288E00A8C203F0A0EC0AF0A0C204F0000E056E80
:10289E00066E076E04360490053606360736043685
:1028AE000490053606360736320E0424F66E550EA3
:1028BE000520F76E000E0620F86E0900F5CF05F024
:1028CE000900F5CF06F00900F5CF07F00900F5CFA6
:1028DE0008F00850035C08E10750025C05E1065061
:1028EE00015C02E10550005C1FE20201A5C200F08E
:1028FE00A6C201F0A7C202F0A8C203F0000E046E39
:10290E00000E056E200E066E820E076E32EC01F082
:10291E0000C0A5F201C0A6F202C0A7F203C0A8F241
:10292E00010EA95F000EAA5B0201A4A393D0A4B767
:10293E0091D0800E000A006E800E9F19005C02E19D
:10294E009E510A0804E20A0E9E6F000E9F6FA5C2EA
:10295E0000F0A6C201F0A7C202F0A8C203F0A0ECDC
:10296E000AF000C0ABF201C0ACF202C0ADF203C07F
:10297E00AEF2AB51AC11AD11AE1142E00A0E046EC7
:10298E00000E056E066E076EABC200F0ACC201F013
:10299E00ADC202F0AEC203F00AEC08F008C000F0BF
:1029AE0009C001F00AC002F00BC003F0000E046E65
:1029BE00031808E10450021805E10450011802E161
:1029CE000050000A1DE1010E9E5F000E9F5B0A0E75
:1029DE00046E000E056E066E076EABC200F0ACC242
:1029EE0001F0ADC202F0AEC203F00AEC08F000C076
:1029FE00ABF201C0ACF202C0ADF203C0AEF2B9D779
:102A0E00800E9F19006E800E005C02E1A0519E5D4B
:102A1E0021E29E51A05DB76F15EC0CF000C004F0E2
:102A2E0001C005F002C006F003C007F0A5C200F019
:102A3E00A6C201F0A7C202F0A8C203F057EC0BF039
:102A4E0000C0A5F201C0A6F202C0A7F203C0A8F210
:102A5E009EC2A0F2050E02019E25006E000E9F2161
:102A6E00016E0050A15F0150A25B9E519F1103E1C8
:102A7E00A4B701D004D0010EA15F000EA25B030E1D
:102A8E00A315006EA4C201F0000E01160050011035
:102A9E0004E0010EA15F000EA25BA3A539D0A3A393
:102AAE0012D0A3A103D02D0E966F02D02B0E966FCF
:102ABE008FC2E1FF90C2E2FF96C2E6FF8F4B902BD2
:102ACE00AF4BB02B0CD0A3A10AD08FC2E1FF90C2A6
:102ADE00E2FF200EE66E8F4B902BAF4BB02B800E8D
:102AEE00006E800EA219005C02E1A15100080FE2F7
:102AFE008FC2E1FF90C2E2FF300EE66E8F4B902B3D
:102B0E00AF4BB02B010EA15F000EA25BE8D73AD0FF
:102B1E00A3B718D0800E006E800EA219005C02E1E1
:102B2E00A15100080FE28FC2E1FF90C2E2FF200E1A
:102B3E00E66E8F4B902BAF4BB02B010EA15F000EAC
:102B4E00A25BE8D7A3A312D0A3A103D02D0E976F3B
:102B5E0002D02B0E976F8FC2E1FF90C2E2FF97C299
:102B6E00E6FF8F4B902BAF4BB02B0CD0A3A10AD00E
:102B7E008FC2E1FF90C2E2FF200EE66E8F4B902BCC
:102B8E00AF4BB02BA5C200F0A6C201F0A7C202F057
:102B9E00A8C203F0A0EC0AF000C0ABF201C0ACF288
:102BAE0002C0ADF203C0AEF2A0C200F0000E016E84
:102BBE00026E036E00360090013602360336003682
:102BCE000090013602360336320E0024F66E550E94
:102BDE000120F76E000E0220F86E0900F5CF04F00A
:102BEE000900F5CF05F00900F5CF06F00900F5CF85
:102BFE0007F0ABC200F0ACC201F0ADC202F0AEC243
:102C0E0003F00AEC08F0300E00268FC2E1FF90C2EE
:102C1E00E2FF00C0E6FF8F4B902BAF4BB02B9E51C7
:102C2E009F1103E1A4B701D06FD08FC2E1FF90C214
:102C3E00E2FF2E0EE66E8F4B902BAF4BB02BA051BA
:102C4E009E5F000E9F5BA0534DE0A007A0C200F058
:102C5E00000E016E026E036E0036009001360236D3
:102C6E00033600360090013602360336320E00244B
:102C7E00F66E550E0120F76E000E0220F86E09005A
:102C8E00F5CF04F00900F5CF05F00900F5CF06F0F9
:102C9E000900F5CF07F0ABC200F0ACC201F0ADC237
:102CAE0002F0AEC203F00AEC08F00A0E046E000E3B
:102CBE00056E066E076E0AEC08F008C000F009C03B
:102CCE0001F00AC002F00BC003F0300E00268FC2D6
:102CDE00E1FF90C2E2FF00C0E6FF8F4B902BAF4B9F
:102CEE00B02BB1D79E519F110FE08FC2E1FF90C262
:102CFE00E2FF300EE66E8F4B902BAF4BB02B010EDA
:102D0E009E5F000E9F5BEED7A3AB0BD08FC2E1FF91
:102D1E0090C2E2FF450EE66E8F4B902BAF4BB02B61
:102D2E000AD08FC2E1FF90C2E2FF650EE66E8F4BB6
:102D3E00902BAF4BB02B800EAA19006E800E005C4C
:102D4E0002E1000EA95D11E2A9510008A96FAA5176
:102D5E00000EAA578FC2E1FF90C2E2FF2D0EE66E63
:102D6E008F4B902BAF4BB02B0AD08FC2E1FF90C28E
:102D7E00E2FF2B0EE66E8F4B902BAF4BB02B0A0E55
:102D8E00046E000E056EA9C200F0AAC201F05FEC3F
:102D9E0004F0300E00268FC2E1FF90C2E2FF00C0A9
:102DAE00E6FF02018F4B902BAF4BB02B0A0E046E39
:102DBE00000E056EA9C200F0AAC201F05FEC04F08D
:102DCE0008C000F009C001F0300E00268FC2E1FFEE
:102DDE0090C2E2FF00C0E6FF02018F4B902BAF4B7B
:102DEE00B02BA3A71AD0800E006E800EA219005C25
:102DFE0002E1A151000811E28FC2E1FF90C2E2FF91
:102E0E00200EE66E8F4B902BAF4BB02B010EA15FB9
:102E1E00000EA25BA151A211EFE134EF0FF0A4A3BB
:102E2E00F3D0800EAA19006E800E005C02E1000E37
:102E3E00A95D0AE2010EA95D006E000EAA59016E8F
:102E4E0000509E5F01509F5BA5C200F0A6C201F02C
:102E5E00A7C202F0A8C203F0A0EC0AF000C0ABF2C9
:102E6E0001C0ACF202C0ADF203C0AEF2010EA06F13
:102E7E00A0510A0A34E0A0C200F0000E016E026EEC
:102E8E00036E00360090013602360336003600908F
:102E9E00013602360336320E0024F66E550E012030
:102EAE00F76E000E0220F86E0900F5CF01F0090052
:102EBE00F5CF02F00900F5CF03F00900F5CF04F0CD
:102ECE000450AE5D08E10350AD5D05E10250AC5D0E
:102EDE0002E10150AB5D01E202D0A02BC9D7A05197
:102EEE009E5DB56F000E9F59B66FB5C29EF2B6C20B
:102EFE009FF2ABC200F0ACC201F0ADC202F0AEC2A6
:102F0E0003F0C2EC04F000C004F001C005F002C0F2
:102F1E0006F003C007F0A5C200F0A6C201F0A7C2DA
:102F2E0002F0A8C203F080EC09F000C0B1F201C0BB
:102F3E00B2F202C0B3F203C0B4F2B5C2B7F215ECEE
:102F4E000CF0B1C204F0B2C205F0B3C206F0B4C2C6
:102F5E0007F032EC01F0000E046E000E056E000E4E
:102F6E00066E7E0E076EC6EC01F0A0EC0AF000C0F5
:102F7E00ABF201C0ACF202C0ADF203C0AEF29E5194
:102F8E009F1142E00A0E046E000E056E066E076E6D
:102F9E00ABC200F0ACC201F0ADC202F0AEC203F0A3
:102FAE000AEC08F008C000F009C001F00AC002F0F7
:102FBE000BC003F0000E046E031808E10450021853
:102FCE0005E10450011802E10050000A1DE10A0E4D
:102FDE00046E000E056E066E076EABC200F0ACC23C
:102FEE0001F0ADC202F0AEC203F00AEC08F000C070
:102FFE00ABF201C0ACF202C0ADF203C0AEF2010EF4
:10300E009E5F000E9F5BBBD7800E006E800E9F19D9
:10301E00005C02E19E510C0816E39EC2B7F289ECE9
:10302E0006F0A5C204F0A6C205F0A7C206F0A8C21B
:10303E0007F0C6EC01F000C0A5F201C0A6F202C076
:10304E00A7F203C0A8F2A5C200F0A6C201F0A7C263
:10305E0002F0A8C203F0046A056A066A076A84ECE5
:10306E0009F0000ED8A4010E006E0052D8B477D02D
:10307E00A5C200F0A6C201F0A7C202F0A8C203F0DA
:10308E00A0EC0AF0000E046E031808E104500218BA
:10309E0005E10450011802E10050000A60E1800EC3
:1030AE00006E800EAA19005C02E1A951010857E2D8
:1030BE00A9C2B7F215EC0CF000C004F001C005F087
:1030CE0002C006F003C007F0A5C200F0A6C201F0D0
:1030DE00A7C202F0A8C203F057EC0BF05F0E046E0D
:1030EE00700E056E090E066E810E076E8AEC05F0E7
:1030FE00010ED8B0000E006E005206E0090E02015D
:10310E00A95F000EAA5B05D00201080EA95F000E92
:10311E00AA5BA9C2B7F215EC0CF000C004F001C016
:10312E0005F002C006F003C007F0A5C200F0A6C26B
:10313E0001F0A7C202F0A8C203F057EC0BF0A0EC0E
:10314E000AF000C0ABF201C0ACF202C0ADF203C097
:10315E00AEF20201A56BA66BA76BA86B38D0A5C209
:10316E0000F0A6C201F0A7C202F0A8C203F0A0ECC4
:10317E000AF000C0ABF201C0ACF202C0ADF203C067
:10318E00AEF2ABC200F0ACC201F0ADC202F0AEC204
:10319E0003F0C2EC04F000C004F001C005F002C060
:1031AE0006F003C007F0A5C200F0A6C201F0A7C248
:1031BE0002F0A8C203F080EC09F000C0A5F201C035
:1031CE00A6F202C0A7F203C0A8F2A96BAA6B010E69
:1031DE00A06FA0510A0A34E0A0C200F0000E016EEA
:1031EE00026E036E0036009001360236033600364C
:1031FE000090013602360336320E0024F66E550E5E
:10320E000120F76E000E0220F86E0900F5CF01F0D6
:10321E000900F5CF02F00900F5CF03F00900F5CF54
:10322E0004F00450AE5D08E10350AD5D05E10250BF
:10323E00AC5D02E10150AB5D01E202D0A02BC9D71B
:10324E00A0519E25006E000E9F21016EA9510026F1
:10325E00AA5101220050A15F0150A25BA4B704D075
:10326E009E519F1101E104D0010EA15F000EA25BE1
:10327E00030EA315006EA4C201F0000E011600503D
:10328E00011004E0010EA15F000EA25BA3A539D0D0
:10329E00A3A312D0A3A103D02D0E986F02D02B0E94
:1032AE00986F8FC2E1FF90C2E2FF98C2E6FF8F4B8C
:1032BE00902BAF4BB02B0CD0A3A10AD08FC2E1FF45
:1032CE0090C2E2FF200EE66E8F4B902BAF4BB02BD1
:1032DE00800E006E800EA219005C02E1A151000862
:1032EE000FE28FC2E1FF90C2E2FF300EE66E8F4B0F
:1032FE00902BAF4BB02B010EA15F000EA25BE8D757
:10330E003AD0A3B718D0800E006E800EA219005CC2
:10331E0002E1A15100080FE28FC2E1FF90C2E2FF6D
:10332E00200EE66E8F4B902BAF4BB02B010EA15F94
:10333E00000EA25BE8D7A3A312D0A3A103D02D0E3B
:10334E00996F02D02B0E996F8FC2E1FF90C2E2FFF0
:10335E0099C2E6FF8F4B902BAF4BB02B0CD0A3A195
:10336E000AD08FC2E1FF90C2E2FF200EE66E8F4BB5
:10337E00902BAF4BB02BA0C200F0A00700524CE038
:10338E00A0C200F0000E016E026E036E00360090B9
:10339E000136023603360036009001360236033609
:1033AE00320E0024F66E550E0120F76E000E02202E
:1033BE00F86E0900F5CF04F00900F5CF05F009000D
:1033CE00F5CF06F00900F5CF07F0ABC200F0ACC2A6
:1033DE0001F0ADC202F0AEC203F00AEC08F00A0E24
:1033EE00046E000E056E066E076E0AEC08F008C03D
:1033FE0000F009C001F00AC002F00BC003F0300E5D
:10340E0000268FC2E1FF90C2E2FF00C0E6FF8F4BA5
:10341E00902BAF4BB02BAFD7800E006E800EAA193B
:10342E00005C02E1A95100080FE28FC2E1FF90C2D9
:10343E00E2FF300EE66E8F4B902BAF4BB02B010E92
:10344E00A95F000EAA5BE8D7800E000A006E800E00
:10345E009F19005C02E19E51080803E2080EA06F5E
:10346E0002D09EC2A0F2A0519E5F000E9F5BA053A1
:10347E0003E1A4B701D00AD08FC2E1FF90C2E2FFF0
:10348E002E0EE66E8F4B902BAF4BB02BA0C2B7F229
:10349E0015EC0CF0A5C204F0A6C205F0A7C206F00A
:1034AE00A8C207F032EC01F0F1EC05F000C0ABF26F
:1034BE0001C0ACF202C0ADF203C0AEF2A0534DE0BB
:1034CE00A007A0C200F0000E016E026E036E003661
:1034DE000090013602360336003600900136023671
:1034EE000336320E0024F66E550E0120F76E000ED6
:1034FE000220F86E0900F5CF04F00900F5CF05F0B3
:10350E000900F5CF06F00900F5CF07F0ABC200F0C9
:10351E00ACC201F0ADC202F0AEC203F00AEC08F08C
:10352E000A0E046E000E056E066E076E0AEC08F0AB
:10353E0008C000F009C001F00AC002F00BC003F091
:10354E00300E00268FC2E1FF90C2E2FF00C0E6FF00
:10355E008F4B902BAF4BB02BB1D79E519F110FE0DD
:10356E008FC2E1FF90C2E2FF300EE66E8F4B902BC2
:10357E00AF4BB02B010E9E5F000E9F5BEED7A3A745
:10358E001AD0800E006E800EA219005C02E1A151CD
:10359E00000811E28FC2E1FF90C2E2FF200EE66E3C
:1035AE008F4B902BAF4BB02B010EA15F000EA25B89
:1035BE00A151A211EFE134EF0FF0C00EA315016E71
:1035CE00A4C202F0000E0216000E021802E1000E56
:1035DE000118D8A480D0A3A927D094C2E9FF95C220
:1035EE00EAFFEECF00F0EECF01F000C0E9FF01C020
:1035FE00EAFFEECFABF2EECFACF2EECFADF2EECF06
:10360E00AEF294C2E9FF95C2EAFF040EEE24006EFC
:10361E00000EEE20016E94C2E1FF95C2E2FF00C0E3
:10362E00E6FF01C0E6FF2FD094C2E9FF95C2EAFF84
:10363E00EECF00F0EECF01F000C0E9FF01C0EAFFCF
:10364E00EECF00F0EECF01F0000E01BEFF0E026EC7
:10365E00036E00C0ABF201C0ACF202C0ADF203C00B
:10366E00AEF294C2E9FF95C2EAFF020EEE24006E9E
:10367E00000EEE20016E94C2E1FF95C2E2FF00C083
:10368E00E6FF01C0E6FF800EAE19006E800E005CF4
:10369E0008E1000EAD5D05E1000EAC5D02E1000E2D
:1036AE00AB5D18E2030EA313000EA413006A016AA9
:1036BE00026A036AAB51005EAC51015AAD51025A17
:1036CE00AE51035A00C0ABF201C0ACF202C0ADF273
:1036DE0003C0AEF24ED0A3A927D094C2E9FF95C283
:1036EE00EAFFEECF00F0EECF01F000C0E9FF01C01F
:1036FE00EAFFEECFABF2EECFACF2EECFADF2EECF05
:10370E00AEF294C2E9FF95C2EAFF040EEE24006EFB
:10371E00000EEE20016E94C2E1FF95C2E2FF00C0E2
:10372E00E6FF01C0E6FF25D094C2E9FF95C2EAFF8D
:10373E00EECF00F0EECF01F000C0E9FF01C0EAFFCE
:10374E00EECFABF2EECFACF2000EAD6FAE6F94C219
:10375E00E9FF95C2EAFF020EEE24006E000EEE2087
:10376E00016E94C2E1FF95C2E2FF00C0E6FF01C008
:10377E00E6FF000E9F1902E1000E9E190FE1000EEA
:10378E00006EAE1908E10050AD1905E10050AC19FC
:10379E0002E1AB51000A02E19E4B9F2BC00EA31516
:1037AE00006E00C005F0AED0010EA06FA0510A0A47
:1037BE0034E0A0C200F0000E016E026E036E003601
:1037CE00009001360236033600360090013602367E
:1037DE000336320E0024F66E550E0120F76E000EE3
:1037EE000220F86E0900F5CF01F00900F5CF02F0C6
:1037FE000900F5CF03F00900F5CF04F00450AE5DDB
:10380E0008E10350AD5D05E10250AC5D02E10150EF
:10381E00AB5D01E202D0A02BC9D782D0010EA06F02
:10382E00A051080A34E0A0C200F0000E016E026E34
:10383E00036E0036009001360236033600360090D5
:10384E000136023603365A0E0024F66E550E01204E
:10385E00F76E000E0220F86E0900F5CF01F0090098
:10386E00F5CF02F00900F5CF03F00900F5CF04F013
:10387E000450AE5D08E10350AD5D05E10250AC5D54
:10388E0002E10150AB5D01E202D0A02BC9D748D0B6
:10389E00010EA06FA0510C0A34E0A0C200F0000E81
:1038AE00016E026E036E003600900136023603364C
:1038BE0000360090013602360336020E0024F66EF4
:1038CE00550E0120F76E000E0220F86E0900F5CF9E
:1038DE0001F00900F5CF02F00900F5CF03F0090061
:1038EE00F5CF04F00450AE5D08E10350AD5D05E187
:1038FE000250AC5D02E10150AB5D01E202D0A02BA3
:10390E00C9D70ED00550000AD8B44ED70550C00AFC
:10391E00D8B44AD70550800A81E00550400AB8E075
:10392E00800E006E800E9F19005C02E19E51A05D1C
:10393E0003E29EC2A0F20DD0800E9F19006E800E83
:10394E00005C02E1A0519E5D04E2A0C29EF2000E58
:10395E009F6FA151A2110EE0030EA315006EA4C21B
:10396E0001F0000E01160050011004E0010EA15FDF
:10397E00000EA25B800E9F19006E800EA219005CD5
:10398E0002E1A1519E5D05E29E51A15F9F51A25B96
:10399E0002D0A16BA26BC40EA315016EA451080B2D
:1039AE00026E0250080A02E1400E011808E1A15110
:1039BE00A21104E0010EA15F000EA25B1CD0C00E8E
:1039CE00A315016EA451080B026E0250080A02E103
:1039DE00800E011810E1800E006E800EA219005CA0
:1039EE0002E1A151020805E2020EA15F000EA25BE8
:1039FE0002D0A16BA26BA3A55DD0A3A312D0A3A1ED
:103A0E0003D02D0E9A6F02D02B0E9A6F8FC2E1FF4C
:103A1E0090C2E2FF9AC2E6FF8F4B902BAF4BB02BBA
:103A2E0034D0A3A10BD08FC2E1FF90C2E2FF200ED3
:103A3E00E66E8F4B902BAF4BB02B27D0C00EA3153D
:103A4E00016EA451080B026E0250080A02E1800EAC
:103A5E0001181BE18FC2E1FF90C2E2FF300EE66E4D
:103A6E008F4B902BAF4BB02BA3AB03D0580E9B6F4D
:103A7E0002D0780E9B6F8FC2E1FF90C2E2FF9BC215
:103A8E00E6FF8F4B902BAF4BB02BA151A21111E043
:103A9E008FC2E1FF90C2E2FF300EE66E8F4B902B8D
:103AAE00AF4BB02B010EA15F000EA25BA151A21174
:103ABE00EFE174D0A151A21113E0A3B711D08FC2C0
:103ACE00E1FF90C2E2FF200EE66E8F4B902BAF4BC4
:103ADE00B02B010EA15F000EA25BA151A211EFE16E
:103AEE00A3A312D0A3A103D02D0E9C6F02D02B0E38
:103AFE009C6F8FC2E1FF90C2E2FF9CC2E6FF8F4B2C
:103B0E00902BAF4BB02B0CD0A3A10AD08FC2E1FFEC
:103B1E0090C2E2FF200EE66E8F4B902BAF4BB02B78
:103B2E00C00EA315016EA451080B026E0250080AB6
:103B3E0002E1400E01180BE18FC2E1FF90C2E2FFDD
:103B4E00300EE66E8F4B902BAF4BB02B27D0C00EA6
:103B5E00A315016EA451080B026E0250080A02E171
:103B6E00800E01181BE18FC2E1FF90C2E2FF300E02
:103B7E00E66E8F4B902BAF4BB02BA3AB03D0580EF2
:103B8E009D6F02D0780E9D6F8FC2E1FF90C2E2FF53
:103B9E009DC2E6FF8F4B902BAF4BB02B800E006E6D
:103BAE00800E9F19005C02E19E51A05D0BE28FC258
:103BBE00E1FF90C2E2FF300EE66E8F4B902BAF4BC3
:103BCE00B02BECD79EC200F09FC201F0010E9E5F9B
:103BDE00000E9F5B00500110D8B42AD1C00EA31561
:103BEE00006E00C0B1F20AD19EC200F09FC201F079
:103BFE00000E9FBFFF0E026E036E00360090013660
:103C0E000236033600360090013602360336320E87
:103C1E000024F66E550E0120F76E000E0220F86E8F
:103C2E000900F5CF04F00900F5CF05F00900F5CF36
:103C3E0006F00900F5CF07F0ABC200F0ACC201F000
:103C4E00ADC202F0AEC203F00AEC08F00A0E046E2A
:103C5E00000E056E066E076E0AEC08F008C000F046
:103C6E0009C001F00AC002F00BC003F0300E0024B0
:103C7E00A06FD3D0A3AB45D09EC200F09FC201F07F
:103C8E00000E9FBFFF0E026E036E003600900136CF
:103C9E0002360336003600900136023603365A0ECF
:103CAE000024F66E550E0120F76E000E0220F86EFF
:103CBE000900F5CF04F00900F5CF05F00900F5CFA6
:103CCE0006F00900F5CF07F0ABC200F0ACC201F070
:103CDE00ADC202F0AEC203F00AEC08F00F0E0016F1
:103CEE00000E011602160316AD0E0024F66E550ECA
:103CFE000120F76E000E0220F86E0900F5CFA0F23B
:103D0E0044D09EC200F09FC201F0000E9FBFFF0E76
:103D1E00026E036E00360090013602360336003610
:103D2E0000900136023603365A0E0024F66E550EFA
:103D3E000120F76E000E0220F86E0900F5CF04F098
:103D4E000900F5CF05F00900F5CF06F00900F5CF13
:103D5E0007F0ABC200F0ACC201F0ADC202F0AEC2D1
:103D6E0003F00AEC08F00F0E0016000E01160216F4
:103D7E0003167A0E0024F66E550E0120F76E000E15
:103D8E000220F86E0900F5CFA0F247D09EC200F0D7
:103D9E009FC201F0000E9FBFFF0E026E036E003633
:103DAE000090013602360336003600900136023698
:103DBE000336020E0024F66E550E0120F76E000E2D
:103DCE000220F86E0900F5CF04F00900F5CF05F0DA
:103DDE000900F5CF06F00900F5CF07F0ABC200F0F1
:103DEE00ACC201F0ADC202F0AEC203F00AEC08F0B4
:103DFE00070E0014A06F300EA0270FD0B151000A8D
:103E0E00D8B4F2D6B151C00AD8B4EED6B151800AA8
:103E1E00D8B430D7B151400AB9E08FC2E1FF90C299
:103E2E00E2FFA0C2E6FF8F4B902BAF4BB02BCAD652
:103E3E00A3A71AD0800E006E800EA219005C02E1BC
:103E4E00A151000811E28FC2E1FF90C2E2FF200EE5
:103E5E00E66E8F4B902BAF4BB02B010EA15F000E79
:103E6E00A25BA151A211EFE134EF0FF0AFC200F04F
:063E7E00B0C201F01200C9
:103E84000201926B8FC2E9FF90C2EAFFEECF91F27A
:103E94009151000A0FE091C2B7F2D5EC04F002018F
:103EA400922B92518F25E96E000E9021EA6EEECF8F
:063EB40091F2EED71200AE
:103EBA000101F36BF46BFE6BFF6B91C200F092C2CF
:103ECA0001F093C202F0010E02019127000E922323
:103EDA00932300C0F6FF01C0F7FF02C0F8FF0900F4
:103EEA00F5CF00F000C0F5F10052D8B491EF24F0FC
:103EFA000101F551250A0DE08FC2E1FF90C2E2FFF0
:103F0A00F5C1E6FF02018F4B902B0101F34BF42B15
:103F1A00D4D7EF6BF06BFE6BFF6B91C2B7F292C214
:103F2A00B8F293C2B9F204EC05F000C091F201C0F4
:103F3A0092F202C093F200C0F6FF01C0F7FF02C07E
:103F4A00F8FF0900F5CF00F0000E016E00C0B7F2CD
:103F5A007EEC05F0005239E00101EF6BF06B0101D4
:103F6A00EFC100F0F0C101F00A0E046E000E056EFA
:103F7A00DCEC04F091C2F6FF92C2F7FF93C2F8FF9D
:103F8A000900F5CF02F002500024EF6F000E012065
:103F9A00F06F300EEF5F000EF05B010E0201912709
:103FAA00000E9223932391C2F6FF92C2F7FF93C2A7
:103FBA00F8FF0900F5CF00F0000E016E00C0B7F25D
:103FCA007EEC05F00052CBE133D091C2F6FF92C2EB
:103FDA00F7FF93C2F8FF0900F5CF01F001502A0A52
:103FEA0027E194C2E9FF95C2EAFFEECF00F0EECFD7
:103FFA0001F000C0E9FF01C0EAFFEECFEFF1EECF1A
:10400A00F0F194C2E9FF95C2EAFF020EEE24006EB7
:10401A00000EEE20016E94C2E1FF95C2E2FF00C0DD
:10402A00E6FF01C0E6FF010E9127000E92239323BB
:10403A0091C2F6FF92C2F7FF93C2F8FF0900F5CFCB
:10404A0001F001502E0A74E10201010E9127000EBF
:10405A009223932391C2F6FF92C2F7FF93C2F8FF0D
:10406A000900F5CF01F001502A0A28E194C2E9FFBC
:10407A0095C2EAFFEECF00F0EECF01F000C0E9FFF3
:10408A0001C0EAFFEECFF1F1EECFF2F194C2E9FFFF
:10409A0095C2EAFF020EEE24006E000EEE20016EBB
:1040AA0094C2E1FF95C2E2FF00C0E6FF01C0E6FF4D
:1040BA00010E9127000E9223932339D00101F16B4F
:1040CA00F26B91C2F6FF92C2F7FF93C2F8FF0900A2
:1040DA00F5CF00F0000E016E00C0B7F27EEC05F0DD
:1040EA00005225E0F1C100F0F2C101F00A0E046E9F
:1040FA00000E056EDCEC04F091C2F6FF92C2F7FFE7
:10410A0093C2F8FF0900F5CF02F002500024010122
:10411A00F16F000E0120F26F300EF15F000EF25BBC
:10412A00010E02019127000E92239323CAD703D0CE
:10413A000101F16BF26B91C200F092C201F093C2DD
:10414A0002F0010E02019127000E9223932300C070
:10415A00F6FF01C0F7FF02C0F8FF0900F5CFF5F13D
:10416A0006D1F3C100F0F4C101F0DAD30101FE8DEA
:10417A002ED12DD1FE8BFE8F2AD194C2E9FF95C292
:10418A00EAFFEECF00F0EECF01F000C0E9FF01C078
:10419A00EAFFEECF96F2EECF97F294C2E9FF95C20C
:1041AA00EAFF020EEE24006E000EEE20016E94C2AB
:1041BA00E1FF95C2E2FF00C0E6FF01C0E6FF000E84
:1041CA000201971902E1000E961904E1BA0E966FE0
:1041DA00010E976F986B996B98519625E96E9951D4
:1041EA009721EA6EEE520BE0010E9825006E000E42
:1041FA009921016E00C098F201C099F2EDD7010130
:10420A00F151F2110EE0020199510101F25D04E14E
:10421A00020198510101F15D04E2F1C198F2F2C183
:10422A0099F2F0510201995D04E10101EF51020195
:10423A00985D08E298510101EF5F0201995101016D
:10424A00F05B03D00101EF6BF06BFEB718D0EFC142
:10425A0000F0F0C101F0010EEF5F000EF05B0050BC
:10426A0001100DE08FC2E1FF90C2E2FF200EE66E60
:10427A0002018F4B902B0101F34BF42BE8D798C224
:10428A0002F099C203F0010E0201985D006E000E61
:10429A009959016E00C098F201C099F202500310B8
:1042AA001AE096C2E9FF97C2EAFF8FC2E1FF90C205
:1042BA00E2FFEECFE6FF8F4B902B010E9625006EA4
:1042CA00000E9721016E00C096F201C097F201011B
:1042DA00F34BF42BD4D70101FEA718D0EFC100F09D
:1042EA00F0C101F0010EEF5F000EF05B005001100B
:1042FA000DE08FC2E1FF90C2E2FF200EE66E0201DE
:10430A008F4B902B0101F34BF42BE8D7D6D594C2EF
:10431A00E9FF95C2EAFFEECF00F0EECF01F000C050
:10432A00E9FF01C0EAFFEECFF5F194C2E9FF95C2B9
:10433A00EAFF020EEE24006E000EEE20016E94C219
:10434A00E1FF95C2E2FF00C0E6FF01C0E6FFF50EFD
:10435A000201966F010E976F010E986F000E996F0A
:10436A004ED7C00E0101FE13000EFF1330D001011B
:10437A00F551000AD8B4F5D6F5516C0AD8B4F6D678
:10438A00F5514C0AD8B4F2D6F5516F0AD8B4EED624
:10439A00F551640AD8B4EDD6F551690AD8B4E9D60C
:1043AA00F551700AD8B4E6D6F551580AD8B4E2D60F
:1043BA00F551780AD8B4DFD6F551730AD8B4DDD6E8
:1043CA00F551630AA4E0F551750ACBE0C0D7C00ED7
:1043DA00FE15016EFFC102F0000E0216000E021851
:1043EA0002E1000E01183EE194C2E9FF95C2EAFF1C
:1043FA00EECF00F0EECF01F000C0E9FF01C0EAFF06
:10440A00EECF96F2EECF97F294C2E9FF95C2EAFF99
:10441A00020EEE24006E000EEE20016E94C2E1FF41
:10442A0095C2E2FF00C0E6FF01C0E6FF800E02016E
:10443A009719006E800E005C02E1000E965D11E293
:10444A00030E0101FE13000EFF130201965100082C
:10445A00006E97C201F0000E015600C096F201C02C
:10446A0097F222D094C2E9FF95C2EAFFEECF00F09C
:10447A00EECF01F000C0E9FF01C0EAFFEECF96F2ED
:10448A00EECF97F294C2E9FF95C2EAFF020EEE243C
:10449A00006E000EEE20016E94C2E1FF95C2E2FFAB
:1044AA0000C0E6FF01C0E6FF000E0101F21902E1B9
:1044BA00000EF1190AE1000E0201971902E1000E3D
:1044CA00961903E10101F14BF22B0101C00EFE1511
:1044DA00006E00C005F084D00101010EF56FF551A0
:1044EA00050A25E0F5C100F0000E016E026E036EAA
:1044FA0000360090013602360336CA0E0024F66EE4
:10450A00550E0120F76E000E0220F86E0900F5CF55
:10451A0001F00900F5CF02F002500201975D02E1B5
:10452A000150965D01E203D00101F52BD8D766D080
:10453A000101010EF56FF551040A25E0F5C100F0FD
:10454A00000E016E026E036E0036009001360236CE
:10455A000336D40E0024F66E550E0120F76E000EB7
:10456A000220F86E0900F5CF01F00900F5CF02F03C
:10457A0002500201975D02E10150965D01E203D00B
:10458A000101F52BD8D73AD00101010EF56FF5518B
:10459A00060A25E0F5C100F0000E016E026E036EF8
:1045AA0000360090013602360336BE0E0024F66E3F
:1045BA00550E0120F76E000E0220F86E0900F5CFA5
:1045CA0001F00900F5CF02F002500201975D02E105
:1045DA000150965D01E203D00101F52BD8D70ED028
:1045EA000550000AD8B478D70550C00AD8B474D791
:1045FA000550800A9DE00550400AC6E00101800E80
:10460A00006E800EF219005C02E1F151F55D03E2E1
:10461A00F1C1F5F10DD0800EF219006E800E005C2A
:10462A0002E1F551F15D04E2F5C1F1F1000EF26F1C
:10463A00EF51F0110EE0030EFE15006EFFC101F0FE
:10464A00000E01160050011004E0010EEF5F000E8B
:10465A00F05B800EF219006E800EF019005C02E128
:10466A00EF51F15D05E2F151EF5FF251F05B02D0DB
:10467A00EF6BF06BC40EFE15016EFF51080B026E54
:10468A000250080A02E1400E011808E1EF51F01148
:10469A0004E0010EEF5F000EF05B1CD0C00EFE15A9
:1046AA00016EFF51080B026E0250080A02E1800EE9
:1046BA00011810E1800E006E800EF019005C02E114
:1046CA00EF51020805E2020EEF5F000EF05B02D026
:1046DA00EF6BF06B8FC2B7F290C2B8F29BEC09F0A5
:1046EA0000C08FF201C090F2F1C100F0F2C101F0F6
:1046FA00010EF15F000EF25B00500110D8B4ECD04D
:10470A00C00EFE15006E00C09AF2C9D00101F1C1B7
:10471A0000F0F2C101F0000EF2BFFF0E026E036E4E
:10472A0000360090013602360336CA0E0024F66EB1
:10473A00550E0120F76E000E0220F86E0900F5CF23
:10474A0004F00900F5CF05F096C200F097C201F017
:10475A003CEC0BF00A0E046E000E056E3CEC0BF0FE
:10476A0008C000F009C001F0300E0024F56FA7D090
:10477A000101FEAB35D0F1C100F0F2C101F0000E2B
:10478A00F2BFFF0E026E036E00360090013602364B
:10479A000336D40E0024F66E550E0120F76E000E75
:1047AA000220F86E0900F5CF04F00900F5CF05F0F4
:1047BA0096C200F097C201F03CEC0BF00F0E001607
:1047CA00000E01168B0E0024F66E550E0120F76EB0
:1047DA00000EF86E000EF8220900F5CFF5F134D07C
:1047EA00F1C100F0F2C101F0000EF2BFFF0E026E3D
:1047FA00036E00360090013602360336D40E0024CA
:10480A00F66E550E0120F76E000E0220F86E0900B2
:10481A00F5CF04F00900F5CF05F096C200F097C273
:10482A0001F03CEC0BF00F0E0016000E01169C0E68
:10483A000024F66E550E0120F76E000EF86E000E7B
:10484A00F8220900F5CFF5F13AD00101F1C100F0E3
:10485A00F2C101F0000EF2BFFF0E026E036E0036C7
:10486A000090013602360336BE0E0024F66E550E4F
:10487A000120F76E000E0220F86E0900F5CF04F051
:10488A000900F5CF05F096C200F097C201F03CECA2
:10489A000BF0070E0014F56F300EF52710D0020149
:1048AA009A51000AD8B432D79A51C00AD8B42ED72E
:1048BA009A51800AD8B45CD79A51400AC6E00201DC
:1048CA008FC2E1FF90C2E2FFF5C1E6FF8F4B902B4A
:1048DA000101F34BF42B08D7FEA71CD0800E006E03
:1048EA00800EF019005C02E1EF51000813E28FC25A
:1048FA00E1FF90C2E2FF200EE66E02018F4B902B81
:10490A000101F34BF42B010EEF5F000EF05BEF5148
:10491A00F011EDE162EF1FF0F3C100F0F4C101F014
:02492A00120079
:10492C00870E02018B6F020E8C6F82C28FF283C2D4
:10493C0090F284C291F285C292F286C293F28B0EEF
:10494C00946F020E956F5DEC1FF000C089F201C0F0
:10495C008AF2005002018225E16E01508321E26E41
:0C496C00E66A89C200F08AC201F0120065
:1049780082C28FF283C290F242EC1FF0BF0E8F6F9B
:0A498800010E906F42EC1FF01200C8
:10499200870E02018D6F020E8E6F82C28FF283C26A
:1049A20090F284C291F285C292F286C293F28D0E87
:1049B200946F020E956F2FEC0FF000C08BF201C0C6
:1049C2008CF200508225E16E01508321E26EE66A8C
:0A49D2008BC200F08CC201F012004D
:1049DC00AECF01F0ABA202D0AB98AB8801C000F017
:0249EC001200B7
:0A49EE00000E9EBA010E006E1200CA
:1049F80016C2D6F117C2D7F119C2D8F11AC2D9F125
:104A08001BC2DAF11CC2DBF11DC2DCF114C2D1F108
:104A180015C2D0F118C2CFF1300E0101D65D006E7B
:104A2800016A000E015AE80E046E030E056EDCECF6
:104A380004F000C082F201C083F2300ED75D006E30
:104A4800016A000E015A640E046E000E056EDCEC5D
:104A580004F00050020182250101C86F01500201D3
:104A680083210101C96F300ED85D006E016A000E06
:104A7800015A0A0E046E000E056EDCEC04F00050BC
:104A8800C8270150C923300ED95D006E016A000E97
:104A9800015A0050C8270150C92321C2CEF122C2B1
:104AA800CDF123C2CCF126C2CBF124C2DDF125C25F
:104AB800DEF127C2DFF128C2E0F129C2E1F12AC202
:104AC800E2F12BC2E3F1300EDD5D006E016A000EEB
:104AD800015AE80E046E030E056EDCEC04F000C00B
:104AE80082F201C083F2300EDE5D006E016A000EB4
:104AF800015A640E046E000E056EDCEC04F00050E2
:104B080002018225276E01508321286E300E010193
:104B1800DF5D006E016A000E015A0A0E046E000E77
:104B2800056EDCEC04F00050272601502822300ED8
:104B3800E05D006E016A000E015A00502726015000
:044B4800282212000D
:104B4C0000C008F00150006E016A026A036A0B6A29
:104B5C000C6A016A026A036A960E036E0A6A00AE58
:104B6C00BEEF25F0081E001E082AD8B4002A0A8EB3
:104B7C0000C001F008C000F0086A026AF3EC0EF005
:024B8C00120015
:104B8E00AA0E0101F66F090EF76FB70EF86F020E3F
:104B9E00F96FDC0EFA6F490EFB6F000EFC6F000E04
:104BAE00FD6FEE0E0201056F490E066F000E076FC8
:104BBE00000E086FFF0E016FFF0E026F000E036FE7
:104BCE00000E046FAC8A900EAB6E948E949C9EAACF
:0A4BDE0003D0AECF00F0FBD71200A9
:104BE800818E81AE19D0020E0B6E040E0C6EBA0EB9
:104BF8000D6E0D2EFED70C2EFCD70B2EFAD700000B
:104C0800819E81AE06D0010E266E256A010E246EA5
:0A4C180002D0010E256E00D012003C
:104C2200938E938C938A9590959295949586266A05
:084C320001015E6B246A12000F
:104C3A000900F5CFE6FF0006FBE10106F9E11200E3
:104C4A00818A81AA17D0020E0B6E040E0C6EBA0E60
:104C5A000D6E0D2EFED70C2EFCD70B2EFAD70000A8
:104C6A00819A81AA04D0256A010E2A6E02D0010E09
:064C7A00256E00D01200BF
:104C8000540E0201826F010E836F76DE0B0E0B6EE7
:104C9000260E0C6E5D0E0D6E0D2EFED70C2EFCD763
:104CA0000B2EFAD7000000003B0E8F6F010E906FA5
:104CB00042EC1FF00B0E0B6E260E0C6E5D0E0D6E91
:104CC0000D2EFED70C2EFCD70B2EFAD700000000BD
:104CD000A90E8F6F010E906F42EC1FF0910E8F6F37
:104CE000010E906F42EC1FF05F0E8F6F010E906F00
:104CF00042EC1FF0C00E8F6F000E906F42EC1FF061
:104D0000D1C1B7F2D5EC04F0D0C1B7F2D5EC04F0C4
:104D1000CFC1B7F2D5EC04F0D6C1B7F2D5EC04F0B0
:104D2000D7C1B7F2D5EC04F0D8C1B7F2D5EC04F096
:104D3000D9C1B7F2D5EC04F0DBC1B7F2D5EC04F081
:104D4000DCC1B7F2D5EC04F0520E02018F6F000EF9
:104D5000906F42EC1FF0CEC1B7F2D5EC04F0CDC19C
:104D6000B7F2D5EC04F0CCC1B7F2D5EC04F0CBC16E
:104D7000B7F2D5EC04F0DDC1B7F2D5EC04F0DEC13A
:104D8000B7F2D5EC04F0DFC1B7F2D5EC04F0E0C126
:104D9000B7F2D5EC04F0E2C1B7F2D5EC04F0E3C110
:104DA000B7F2D5EC04F0440E02018F6F000E906F45
:104DB00042EC1FF05F0E8F6F010E906F42EC1FF000
:104DC000060E0B6E130E0C6EAD0E0D6E0D2EFED775
:104DD0000C2EFCD70B2EFAD7000000001A0EB76F6E
:104DE000D5EC04F0330E0B6EBB0E0C6EDF0E0D6EA9
:104DF0000D2EFED70C2EFCD70B2EFAD7000000008C
:104E00001F0E0B6E710E0C6E1E0E0D6E0D2EFED74C
:104E10000C2EFCD70B2EFAD700002B0E02018F6F41
:104E2000000E906F42EC1FF00B0E0B6E260E0C6EF8
:104E30005D0E0D6E0D2EFED70C2EFCD70B2EFAD765
:104E400000000000770E8F6F000E906F42EC1FF095
:104E50006B0E8F6F000E906F42EC1FF0D1C1B7F256
:104E6000D5EC04F0D0C1B7F2D5EC04F0CFC1B7F265
:104E7000D5EC04F0D6C1B7F2D5EC04F0D7C1B7F247
:104E8000D5EC04F0D8C1B7F2D5EC04F0D9C1B7F233
:104E9000D5EC04F0DBC1B7F2D5EC04F0DCC1B7F21D
:104EA000D5EC04F05E0E02018F6F000E906F42ECA5
:104EB0001FF0CEC1B7F2D5EC04F0CDC1B7F2D5ECFE
:104EC00004F0CCC1B7F2D5EC04F0CBC1B7F2D5EC0D
:104ED00004F0DDC1B7F2D5EC04F0DEC1B7F2D5ECD9
:104EE00004F0DFC1B7F2D5EC04F0E0C1B7F2D5ECC5
:104EF00004F0E2C1B7F2D5EC04F0E3C1B7F2D5ECAF
:104F000004F0060E0B6E130E0C6EAD0E0D6E0D2E14
:104F1000FED70C2EFCD70B2EFAD7000000001A0E7D
:104F20000201B76FD5EC04F0330E0B6EBB0E0C6EA6
:104F3000DF0E0D6E0D2EFED70C2EFCD70B2EFAD7E2
:064F400000000000120059
:104F46000201006B816B50DD005201E1FCD743DDAD
:104F560000C000F20050240AD8A421D145DD005239
:104F660001E1FCD738DD00C000F20050470AD8A4A2
:104F760016D13ADD005201E1FCD72DDD00C000F26A
:104F86000050500AD8A40BD12FDD005201E1FCD706
:104F960022DD00C000F20050470AD8A400D124DD6B
:104FA600005201E1FCD717DD00C000F20050470AAD
:104FB600D8A4F5D019DD005201E1FCD70CDD00C004
:104FC60000F20050410AD8A4EAD00EDD005201E1F9
:104FD600FCD701DD00C000F2020100510A0A14E00C
:104FE600090EE16E020EE26E8151E126D8B0E22A88
:104FF60000C2E6FFF9DC005201E1FCD7ECDC00C0A0
:1050060000F20201812BE8D7816B0101CA2BF1DC8A
:10501600630E0201826F020E836FE00E846F550EDF
:10502600856F000E866FC8C187F2C9C188F27BDC26
:10503600C8C100F0C9C101F086DD000E046E000E85
:10504600056E000E066E7D0E076EC6EC01F09A0E1A
:10505600046E990E056E190E066E7E0E076E57ECDF
:105066000BF000C0EBF101C0ECF102C0EDF103C0A2
:10507600EEF1D60E0201826F010E836FDC0E846F95
:10508600550E856F000E866F00C087F201C088F24C
:1050960002C089F203C08AF279DC720E826F020EB8
:1050A600836FE40E846F550E856F000E866F27C0E2
:1050B60087F228C088F237DC27C000F028C001F04C
:1050C60042DD000E046E000E056E000E066E7C0EAE
:1050D600076EC6EC01F09A0E046E990E056E190E57
:1050E600066E7E0E076E57EC0BF000C0D2F101C0C3
:1050F600D3F102C0D4F103C0D5F1000E046E000E48
:10510600056E7A0E066E880E076E8AEC05F0010EA5
:10511600D8B0000E006E005224E0E40E0201826F49
:10512600010E836FE80E846F550E856F000E866F35
:10513600D2C187F2D3C188F2D4C189F2D5C18AF22D
:1051460025DCE4C1DEF1E5C1DFF1E6C1E0F1E7C14E
:10515600E1F1E8C1E2F1E9C1E3F1300E0101DD6FF1
:1051660014D0DD0E0201826F010E836FEC0E846F88
:10517600550E856F000E866FD2C187F2D3C188F2B5
:10518600D4C189F2D5C18AF201DC0101EB6BEC6B6B
:10519600ED6BEE6BCA51040802E2010E296E120095
:1051A600210E0201826F000E836FBCEC24F0150EF7
:1051B6000B6E4B0E0C6EBE0E0D6E0D2EFED70C2E0C
:1051C600FCD70B2EFAD70000150E826F000E836FE8
:1051D600BCEC24F0150E0B6E4B0E0C6EBE0E0D6E57
:1051E6000D2EFED70C2EFCD70B2EFAD70000120080
:1051F600F8EC2AF013DDB886B06ACF0EAF6EAC8439
:10520600C3DC020E0B6E040E0C6EBA0E0D6E0D2E66
:10521600FED70C2EFCD70B2EFAD70000E2DC265068
:10522600010A59E12550010A56E12450010A20E1FC
:105236002A50000A0BE12950000A02E181DEFBD761
:105246000101CA6B296AACDF18DD00D0150E0B6EA2
:105256004B0E0C6EBE0E0D6E0D2EFED70C2EFCD711
:105266000B2EFAD70000266A01015E6B246A32D043
:1052760001015E51010A2EE18384839683A601D043
:10528600FCD72A6A838683A613D02950000A02E136
:1052960057DEFBD70101CA6B296A82DFEEDC838009
:1052A6002A50000A05E1CEDC2A50010A00E1F8D7AF
:1052B600150E0B6E4B0E0C6EBE0E0D6E0D2EFED722
:1052C6000C2EFCD70B2EFAD70000266A01015E6B66
:0E52D6002A6A00D000D0010E256EA0D7FFD7A7
:1055F00010EE15F0B60E006E020E016EE40EF66EA1
:0E560000520EF76E000EF86E1DEC26F0120032
:0C52E40041542B4950523D393630300007
:0352F00041540026
:0152F30000BA
:0152F40000B9
:0152F50000B8
:0252F6000000B6
:0152F80000B5
:0152F90000B4
:1052FA0041542B434D47533D222B363339323333F6
:09530A00323035373735220D0031
:0E5313002670686F6E654E756D6265723D00A6
:0C532100266C6F6E6769747564653D0052
:0D532D00204C6F6E6769747564653A20004E
:0C533A00204C617469747564653A2000B1
:1053460048454C5021204920616D20696E206461DA
:105356006E6765722C207365656B20617574686F66
:105366007269746965732F626172616E6761792013
:105376006F6666696369616C732E20436F6F726432
:09538600696E617465733A200040
:10538F0020746F207361766520746F207365727659
:10539F00657220616E6420736565206C6F63617444
:1053AF00696F6E2C207573653A2068747470733A48
:1053BF002F2F7272732D72656365697665722D7703
:1053CF006562736974652E6865726F6B7561707055
:1053DF002E636F6D2F7472616E736D697474657265
:1053EF00732F6E65777472616E736D697474657205
:0B53FF003F6C617469747564653D00CB
:10540A0041542B434D47533D222B363339313533E3
:09541A00303133343631220D002B
:0A54230041542B434D47463D310034
:01542D00007E
:10542E002B363339393534333835343238000000C1
:10543E00000000000000000000000000000000005E
:10544E00000000000000000000000000000000004E
:02545E0000004C
:10546000414C45525421205472616E736D697474BD
:085470006572206E6F3A200006
:1054780053595354454D205245414459207C7C2072
:015488000023
:055489006E756C6C0063
:02548E000D000F
:07549000286E756C6C290009
:02549700000013
:015499000012
:10549A000000007F000020820000488500007A8812
:1054AA0000401C8C0050438F0024749280961896FA
:1054BA0020BC3E99286B6E9CF90215A0EC782DC190
:0454CA00CAF249E2F7
:1054CE000000007FCDCC4C7B0AD723786F1203757A
:1054DE0017B75171ACC5276EBD37066B95BF5667B2
:1054EE0077CC2B645F700961FFE65B5D08E53C3CA1
:0454FE006042221BCB
:10550200010000000800000040000000000200004E
:1055120000100000008000000000040000002000D5
:105522000000000100000008000000400000000030
:10553200010000000A00000064000000E80300000F
:1055420010270000A086010040420F0080969800BC
:0855520000E1F50500CA9A3BD7
:10555A00010000001000000000010000001000001F
:10556A00000001000000100000000001000000100F
:10557A0030313233343536373839616263646566BF
:01558A000020
:10558B00303132333435363738394142434445466E
:01559B00000F
:10559C00303132333435363738396162636465669D
:0155AC0000FE
:1055AD00303132333435363738394142434445464C
:0155BD0000ED
:0C55BE0001000800400000020010008006
:0A55CA0001000A006400E803102746
:0855D4000100100000010010AD
:0455DC002538660008
:0455E00025387500F5
:0455E40025387500F1
:0455E80025386600FC
:0455EC0025386600F8
:020000040030CA
:0E000000000C1F1EFF8381FF0FC00FE00F409A
:00000001FF
