:1000000055EF04F00000000000EF00F000000000D9
:0A0010000000000000000000F3D71C
:10001C000B1E0A1E091E081E082AD8B4092AD8B4B9
:08002C000A2AD8B40B2A1200C5
:100034000450085E0550D8A0053C095E0650D8A0BF
:10004400063C0A5E0750D8A0073C0B5E0336070E39
:100054000C6E0334083609360A360B36045003A0F6
:100064000ED0085E0550D8A0053C095E0650D8A005
:10007400063C0A5E0750D8A0073C0B5E0DD008264C
:100084000550D8B0053C09260650D8B0063C0A26CF
:100094000750D8B0073C0B2603360C2EDAD70234AF
:1000A400083609360A360B36045003A00ED0085E13
:1000B4000550D8A0053C095E0650D8A0063C0A5E4F
:1000C4000750D8A0073C0B5E0DD008260550D8B0C9
:1000D400053C09260650D8B0063C0A260750D8B07D
:1000E400073C0B260236070E0C6E0234083609361E
:1000F4000A360B36045002A00ED0085E0550D8A074
:10010400053C095E0650D8A0063C0A5E0750D8A0FC
:10011400073C0B5E0DD008260550D8B0053C0926D7
:100124000650D8B0063C0A260750D8B0073C0B2628
:1001340002360C2EDAD70134083609360A360B3665
:10014400045002A00ED0085E0550D8A0053C095EFC
:100154000650D8A0063C0A5E0750D8A0073C0B5EA8
:100164000DD008260550D8B0053C09260650D8B055
:10017400063C0A260750D8B0073C0B260136070E6A
:100184000C6E0134083609360A360B36045001A0C9
:100194000ED0085E0550D8A0053C095E0650D8A0D4
:1001A400063C0A5E0750D8A0073C0B5E0DD008261B
:1001B4000550D8B0053C09260650D8B0063C0A269E
:1001C4000750D8B0073C0B2601360C2EDAD7003482
:1001D400083609360A360B36045001A00ED0085EE4
:1001E4000550D8A0053C095E0650D8A0063C0A5E1E
:1001F4000750D8A0073C0B5E0DD008260550D8B098
:10020400053C09260650D8B0063C0A260750D8B04B
:10021400073C0B260036070E0C6E003408360936F0
:100224000A360B36045000A00ED0085E0550D8A044
:10023400053C095E0650D8A0063C0A5E0750D8A0CB
:10024400073C0B5E0DD008260550D8B0053C0926A6
:100254000650D8B0063C0A260750D8B0073C0B26F7
:1002640000360C2EDAD700B00ED004500826055004
:10027400D8B0053C09260650D8B0063C0A260750DB
:08028400D8B0073C0B26120064
:10028C000450000A12E10550000A0FE10650000A62
:10029C000CE10750000A09E1FF0E006EFF0E016E23
:1002AC00FF0E026E7F0E036E97D00C6A07BE0C2AEF
:1002BC000D6A0B6A0A6A096A086A03500210011077
:1002CC000010D8B484D0035007180E6E0EBE0D1E4D
:1002DC0007AE0BD0041E051E061E071E042AD8B43A
:1002EC00052AD8B4062AD8B4072A03AE0BD0001EB0
:1002FC00011E021E031E002AD8B4012AD8B4022AF9
:10030C00D8B4032A035007100E6E0EBE1CD08CDE20
:10031C000CBE36D00DAE5BD0001E011E021E031E9D
:10032C00002AD8B4012AD8B4022AD8B4032A081E49
:10033C00091E0A1E0B1E082AD8B4092AD8B40A2A88
:10034C00D8B40B2A44D007AE15D003BE0DD0035041
:10035C000B6E02500A6E0150096E0050086E036A53
:10036C00026A016A006AD6D7036A026A016A006AE5
:10037C00002A000C031E021E011E001E0C8EC7D785
:10038C00082AD8B4092AD8B40A2AD8B40B2A04509B
:10039C00085CD8A4BFD70550095CD8A4BBD70650BD
:1003AC000A5CD8A4B7D707500B5CD8A4B3D70B6A98
:1003BC000A6A096A086A002AD8B4012AD8B4022A3F
:1003CC00D8B4032A03AEA6D70E6A0E88FF0C0E6AA9
:0A03DC000CA001D01DDE000F12007E
:1003E600220E0C6E086A096A0A6A0B6A0C06D8B4F1
:1003F6001FD0D8900B320A32093208320332023249
:1004060001320032D8A0F2D70C06D8B409D0045075
:1004160008260550092206500A2207500B22EAD761
:10042600045008260550092206500A2207500B22BE
:020436001200B2
:10043800400E006E1F0E016E000E026E036E12005B
:0E044800ACB202D00000FCD75EC0ADFF1200C7
:100456004706470647C001F047060150000803E279
:1004660000000000F7D700000000000000000000B8
:02047600120072
:1004780047C022F048C023F049C000F0010E026EC8
:10048800005004E002360290FF0FFBD702C020F0B4
:10049800021C326E4AC001F0010E006E015004E0E9
:1004A80000360090FF0FFBD700C01EF0001E00C0F2
:1004B8001DF0120E4724E96E000E4820EA6E025025
:1004C800EF120050EF16306A4F52D8A4301E120EA9
:1004D800E95E3050000A03E01D50EF1602D01E50AE
:1004E800EF12A6DFE80E046E030E056E000E066E10
:1004F800076E75DF00C05AF001C05BF002C05CF007
:1005080003C05DF05AC050F05BC051F05CC052F0BF
:100518005DC053F04BC000F04CC001F04DC002F07C
:100528004EC003F00036009001360236033600361E
:1005380000900136023603360A0E046E000E056E70
:10054800066E076E4CDF00C054F001C055F002C0C3
:1005580056F003C057F000C004F001C005F002C017
:1005680006F003C007F05AC000F05BC001F05CC0A1
:1005780002F05DC003F086DE00C058F001C059F0FB
:1005880001C004F0056A0450051003E0020E006E75
:1005980050D058C01CF054C004F055C005F056C0E7
:1005A80006F057C007F050C000F051C001F052C02B
:1005B80002F053C003F066DE08C000F009C001F085
:1005C8000AC002F00BC003F000C050F001C051F0A7
:1005D80002C052F003C053F054C005F055C006F0F5
:1005E80056C007F057C008F0083207320632053205
:1005F800089E08BC088E800E0818046E800E03182A
:10060800045C08E10250075C05E10150065C02E168
:100618000050055CD8A01C2A1CC001F00132019EC4
:1006280001C01FF0070E015C03E2010E006E01D04D
:04063800006A120042
:10063C004A6A47C0E9FF48C0EAFFEECF49F049508B
:10064C00000A0DE049C05EF0F9DE4A2A4A50472400
:10065C00E96E000E4820EA6EEECF49F0F0D712009A
:10066C00830E476E0F0E486E070E496E060E4A6ECD
:10067C00800E4B6E250E4C6E000E4D6E4E6E4F6AFC
:10068C00F5DE00C031F00050000808E2150E476E90
:10069C00000E486ECDDF31C05EF0D0DE020E0B6E68
:1006AC00040E0C6EBA0E0D6E0D2EFED70C2EFCD752
:1006BC000B2EFAD700000B0E0B6E260E0C6E5D0E79
:1006CC000D6E0D2EFED70C2EFCD70B2EFAD700007C
:0406DC000000120008
:1006E0000900F5CFE6FF0006FBE10106F9E1120083
:1006F00043C0E1FF44C0E2FFE66A010E466E456A70
:10070000219022C0E9FF23C0EAFF3050000A13E124
:100710002050EF14016E0150000A0CE021A009D016
:1007200043C0E1FF44C0E2FFFF0EE66E45C000F0AB
:1007300058D0EED712D02050EF14016E0150000AAD
:100740000CE121A009D043C0E1FF44C0E2FFFF0E4D
:10075000E66E45C000F045D0EED71FC047F07BDE07
:100760001CC047F078DE465215E02050EF14016EB1
:100770000150000A02E04650451246364690020EED
:100780001C5C476E68DE00000000000000000000F6
:100790000000E9D73050000A10E12050EF14016E3C
:1007A0000150000A010ED8A4000E006E43C0E1FF04
:1007B00044C0E2FF00C0E6FF0FD02050EF14016EEE
:1007C0000150000A000ED8A4010E006E43C0E1FFE4
:1007D00044C0E2FF00C0E6FF30504518006E00C084
:0407E00045F01200CE
:1007E400480E376E040E386E5E0E396E000E3A6E89
:1007F400FF0E336EFF0E346E000E356E000E366E35
:10080400FF0E3F6EFF0E406E000E416E000E426EF4
:10081400FF0E3B6EFF0E3C6E000E3D6E000E3E6EF4
:10082400AC8A900EAB6E948E949C9EAA03D0AECFED
:0608340000F0FBD71200EA
:10083A00010E446E3050431A22C0E9FF23C0EAFF7A
:10084A003050000A03E01E50EF1202D01D50EF167E
:10085A001CC047F0FBDD431E445216E044504314CB
:10086A00006E03E11E50EF1202D01D50EF164436FF
:10087A004490020E1C5C476EE9DD00000000000097
:10088A00000000000000E8D73050000A03E01D50C5
:10089A00EF1602D01E50EF121CC047F0D7DD12002F
:1008AA00460E156E410E166E490E176E4C0E186ED8
:1008BA00210E196E0D0E1A6E1B6AD3DEB886B06A47
:1008CA00CF0EAF6EAC8489DF020E0B6E040E0C6E77
:1008DA00BA0E0D6E0D2EFED70C2EFCD70B2EFAD7A4
:1008EA0000000A0E436EA4DF0D0E436EA1DF246AD8
:1008FA00310E436E000E446EF6DE00C025F0315212
:10090A0004E0260E436E94DF14D0260EE16E000E2C
:10091A00E26E2450E126D8B0E22A25C0E6FF242A56
:10092A0025502E0A06E1246A260E476E000E486EEE
:06093A0080DEDED7FFD7CE
:020000040030CA
:0E000000000C1F1EFF8181FF0FC00FE00F409C
:00000001FF
