:1000000050EF04F00000000000EF00F000000000DE
:0A0010000000000000000000F3D71C
:10001C000450085E0550D8A0053C095E0650D8A0D7
:10002C00063C0A5E0750D8A0073C0B5E0336070E51
:10003C000C6E0334083609360A360B36045003A00E
:10004C000ED0085E0550D8A0053C095E0650D8A01D
:10005C00063C0A5E0750D8A0073C0B5E0DD0082664
:10006C000550D8B0053C09260650D8B0063C0A26E7
:10007C000750D8B0073C0B2603360C2EDAD70234C7
:10008C00083609360A360B36045003A00ED0085E2B
:10009C000550D8A0053C095E0650D8A0063C0A5E67
:1000AC000750D8A0073C0B5E0DD008260550D8B0E1
:1000BC00053C09260650D8B0063C0A260750D8B095
:1000CC00073C0B260236070E0C6E02340836093636
:1000DC000A360B36045002A00ED0085E0550D8A08C
:1000EC00053C095E0650D8A0063C0A5E0750D8A015
:1000FC00073C0B5E0DD008260550D8B0053C0926F0
:10010C000650D8B0063C0A260750D8B0073C0B2640
:10011C0002360C2EDAD70134083609360A360B367D
:10012C00045002A00ED0085E0550D8A0053C095E14
:10013C000650D8A0063C0A5E0750D8A0073C0B5EC0
:10014C000DD008260550D8B0053C09260650D8B06D
:10015C00063C0A260750D8B0073C0B260136070E82
:10016C000C6E0134083609360A360B36045001A0E1
:10017C000ED0085E0550D8A0053C095E0650D8A0EC
:10018C00063C0A5E0750D8A0073C0B5E0DD0082633
:10019C000550D8B0053C09260650D8B0063C0A26B6
:1001AC000750D8B0073C0B2601360C2EDAD700349A
:1001BC00083609360A360B36045001A00ED0085EFC
:1001CC000550D8A0053C095E0650D8A0063C0A5E36
:1001DC000750D8A0073C0B5E0DD008260550D8B0B0
:1001EC00053C09260650D8B0063C0A260750D8B064
:1001FC00073C0B260036070E0C6E00340836093609
:10020C000A360B36045000A00ED0085E0550D8A05C
:10021C00053C095E0650D8A0063C0A5E0750D8A0E3
:10022C00073C0B5E0DD008260550D8B0053C0926BE
:10023C000650D8B0063C0A260750D8B0073C0B260F
:10024C0000360C2EDAD700B00ED00450082605501C
:10025C00D8B0053C09260650D8B0063C0A260750F3
:08026C00D8B0073C0B2612007C
:100274000B1E0A1E091E081E082AD8B4092AD8B45F
:080284000A2AD8B40B2A12006B
:10028C000450000A12E10550000A0FE10650000A62
:10029C000CE10750000A09E1FF0E006EFF0E016E23
:1002AC00FF0E026E7F0E036E97D00C6A07BE0C2AEF
:1002BC000D6A0B6A0A6A096A086A03500210011077
:1002CC000010D8B484D0035007180E6E0EBE0D1E4D
:1002DC0007AE0BD0041E051E061E071E042AD8B43A
:1002EC00052AD8B4062AD8B4072A03AE0BD0001EB0
:1002FC00011E021E031E002AD8B4012AD8B4022AF9
:10030C00D8B4032A035007100E6E0EBE1CD080DE2C
:10031C000CBE36D00DAE5BD0001E011E021E031E9D
:10032C00002AD8B4012AD8B4022AD8B4032A081E49
:10033C00091E0A1E0B1E082AD8B4092AD8B40A2A88
:10034C00D8B40B2A44D007AE15D003BE0DD0035041
:10035C000B6E02500A6E0150096E0050086E036A53
:10036C00026A016A006AD6D7036A026A016A006AE5
:10037C00002A000C031E021E011E001E0C8EC7D785
:10038C00082AD8B4092AD8B40A2AD8B40B2A04509B
:10039C00085CD8A4BFD70550095CD8A4BBD70650BD
:1003AC000A5CD8A4B7D707500B5CD8A4B3D70B6A98
:1003BC000A6A096A086A002AD8B4012AD8B4022A3F
:1003CC00D8B4032A03AEA6D70E6A0E88FF0C0E6AA9
:0A03DC000CA001D049DF000F120051
:1003E600400E006E1F0E016E000E026E036E1200AE
:1003F600220E0C6E086A096A0A6A0B6A0C06D8B4E1
:100406001FD0D8900B320A32093208320332023238
:1004160001320032D8A0F2D70C06D8B409D0045065
:1004260008260550092206500A2207500B22EAD751
:10043600045008260550092206500A2207500B22AE
:020446001200A2
:100448004406440644C001F044060150000803E293
:1004580000000000F7D700000000000000000000C6
:02046800120080
:0E046A00ACB202D00000FCD744C0ADFF1200BF
:100478002DC01EF02EC01FF02FC000F0010E026E1E
:10048800005004E002360290FF0FFBD702C023F0B1
:10049800021C256E30C001F0010E006E015004E010
:1004A80000360090FF0FFBD700C022F0001E00C0EE
:1004B80026F0120E2D24E96E000E2E20EA6E025050
:1004C800EF120050EF161D6A3552D8A41D1E120EE9
:1004D800E95E1D50000A03E02650EF1602D02250B4
:1004E800EF127DDFE80E046E030E056E000E066E39
:1004F800076E7DDF00C040F001C041F002C042F04D
:1005080003C043F040C036F041C037F042C038F075
:1005180043C039F031C000F032C001F033C002F0FE
:1005280034C003F000360090013602360336003638
:1005380000900136023603360A0E046E000E056E70
:10054800066E076E54DF00C03AF001C03BF002C0EF
:100558003CF003C03DF000C004F001C005F002C04B
:1005680006F003C007F040C000F041C001F042C0EF
:1005780002F043C003F086DE00C03EF001C03FF049
:1005880001C004F0056A0450051003E0020E006E75
:1005980050D03EC027F03AC004F03BC005F03CC044
:1005A80006F03DC007F036C000F037C001F038C093
:1005B80002F039C003F066DE08C000F009C001F09F
:1005C8000AC002F00BC003F000C036F001C037F0DB
:1005D80002C038F003C039F03AC005F03BC006F05D
:1005E8003CC007F03DC008F0083207320632053239
:1005F800089E08BC088E800E0818046E800E03182A
:10060800045C08E10250075C05E10150065C02E168
:100618000050055CD8A0272A27C001F00132019EAE
:1006280001C024F0070E015C03E2010E006E01D048
:04063800006A120042
:10063C00306A2DC0E9FF2EC0EAFFEECF2FF02F500D
:10064C00000A0DE02FC044F00ADF302A30502D2470
:10065C00E96E000E2E20EA6EEECF2FF0F0D71200CE
:10066C00010E2E6E1D502D1A1EC0E9FF1FC0EAFF91
:10067C001D50000A03E02250EF1202D02650EF1654
:10068C0027C044F0DBDE2D1E2E5216E02E502D140A
:10069C00006E03E12250EF1202D02650EF162E36D8
:1006AC002E90020E275C446EC9DE00000000000094
:1006BC00000000000000E8D71D50000A03E026509F
:1006CC00EF1602D02250EF1227C044F0B7DE120012
:1006DC000900F5CFE6FF0006FBE10106F9E1120087
:1006EC00820E2D6E0F0E2E6E070E2F6E060E306EB6
:1006FC00800E316E250E326E000E336E346E356AFE
:10070C00B5DE00C020F00050000809E28380150E11
:10071C002D6E000E2E6E8CDF20C044F0A0DE020E7B
:10072C000B6E040E0C6EBA0E0D6E0D2EFED70C2E2B
:10073C00FCD70B2EFAD700000B0E0B6E260E0C6E90
:10074C005D0E0D6E0D2EFED70C2EFCD70B2EFAD790
:10075C00000000007A0E216E410E215C12E321C0D4
:10076C002DF07EDF020E0B6E040E0C6EBA0E0D6EAB
:10077C000D2EFED70C2EFCD70B2EFAD7000021061F
:10078C00EBD70B0E0B6E260E0C6E5D0E0D6E0D2E3A
:10079C00FED70C2EFCD70B2EFAD70000000012004F
:1007AC0029C0E1FF2AC0E2FFE66A010E2C6E2B6A1B
:1007BC0028901EC0E9FF1FC0EAFF1D50000A13E17C
:1007CC002350EF14016E0150000A0CE028A009D050
:1007DC0029C0E1FF2AC0E2FFFF0EE66E2BC000F03D
:1007EC0058D0EED712D02350EF14016E0150000AEE
:1007FC000CE128A009D029C0E1FF2AC0E2FFFF0EBE
:10080C00E66E2BC000F045D0EED724C044F016DEC7
:10081C0027C044F013DE2C5215E02350EF14016E68
:10082C000150000A02E02C502B122C362C90020E98
:10083C00275C446E03DE0000000000000000000096
:10084C000000E9D71D50000A10E12350EF14016E8F
:10085C000150000A010ED8A4000E006E29C0E1FF61
:10086C002AC0E2FF00C0E6FF0FD02350EF14016E48
:10087C000150000A000ED8A4010E006E29C0E1FF41
:10088C002AC0E2FF00C0E6FF1D502B18006E00C00E
:04089C002BF012002B
:1008A000460E156E410E166E490E176E4C0E186EE2
:1008B000210E196E0D0E1A6E1B6A18DF020E0B6EDA
:1008C000040E0C6EBA0E0D6E0D2EFED70C2EFCD73C
:1008D0000B2EFAD700000A0E2D6EC8DE0D0E2D6EFF
:1008E000C5DE200E296E000E2A6E60DF00C01CF0EF
:1008F000205210E0650E2D6EB9DE720E2D6EB6DE42
:10090000720E2D6EB3DE6F0E2D6EB0DE720E2D6E7A
:0E091000ADDE03D01CC02DF0A9DEE3D7FFD76B
:020000040030CA
:0E000000000C1F1EFF8181FF0FC00FE00F409C
:00000001FF
