:10000000BEEF04F00000000000EF00F00000000070
:0A0010000000000000000000F3D71C
:10001C000B1E0A1E091E081E082AD8B4092AD8B4B9
:08002C000A2AD8B40B2A1200C5
:100034000450085E0550D8A0053C095E0650D8A0BF
:10004400063C0A5E0750D8A0073C0B5E0336070E39
:100054000C6E0334083609360A360B36045003A0F6
:100064000ED0085E0550D8A0053C095E0650D8A005
:10007400063C0A5E0750D8A0073C0B5E0DD008264C
:100084000550D8B0053C09260650D8B0063C0A26CF
:100094000750D8B0073C0B2603360C2EDAD70234AF
:1000A400083609360A360B36045003A00ED0085E13
:1000B4000550D8A0053C095E0650D8A0063C0A5E4F
:1000C4000750D8A0073C0B5E0DD008260550D8B0C9
:1000D400053C09260650D8B0063C0A260750D8B07D
:1000E400073C0B260236070E0C6E0234083609361E
:1000F4000A360B36045002A00ED0085E0550D8A074
:10010400053C095E0650D8A0063C0A5E0750D8A0FC
:10011400073C0B5E0DD008260550D8B0053C0926D7
:100124000650D8B0063C0A260750D8B0073C0B2628
:1001340002360C2EDAD70134083609360A360B3665
:10014400045002A00ED0085E0550D8A0053C095EFC
:100154000650D8A0063C0A5E0750D8A0073C0B5EA8
:100164000DD008260550D8B0053C09260650D8B055
:10017400063C0A260750D8B0073C0B260136070E6A
:100184000C6E0134083609360A360B36045001A0C9
:100194000ED0085E0550D8A0053C095E0650D8A0D4
:1001A400063C0A5E0750D8A0073C0B5E0DD008261B
:1001B4000550D8B0053C09260650D8B0063C0A269E
:1001C4000750D8B0073C0B2601360C2EDAD7003482
:1001D400083609360A360B36045001A00ED0085EE4
:1001E4000550D8A0053C095E0650D8A0063C0A5E1E
:1001F4000750D8A0073C0B5E0DD008260550D8B098
:10020400053C09260650D8B0063C0A260750D8B04B
:10021400073C0B260036070E0C6E003408360936F0
:100224000A360B36045000A00ED0085E0550D8A044
:10023400053C095E0650D8A0063C0A5E0750D8A0CB
:10024400073C0B5E0DD008260550D8B0053C0926A6
:100254000650D8B0063C0A260750D8B0073C0B26F7
:1002640000360C2EDAD700B00ED004500826055004
:10027400D8B0053C09260650D8B0063C0A260750DB
:08028400D8B0073C0B26120064
:10028C000450000A12E10550000A0FE10650000A62
:10029C000CE10750000A09E1FF0E006EFF0E016E23
:1002AC00FF0E026E7F0E036E97D00C6A07BE0C2AEF
:1002BC000D6A0B6A0A6A096A086A03500210011077
:1002CC000010D8B484D0035007180E6E0EBE0D1E4D
:1002DC0007AE0BD0041E051E061E071E042AD8B43A
:1002EC00052AD8B4062AD8B4072A03AE0BD0001EB0
:1002FC00011E021E031E002AD8B4012AD8B4022AF9
:10030C00D8B4032A035007100E6E0EBE1CD08CDE20
:10031C000CBE36D00DAE5BD0001E011E021E031E9D
:10032C00002AD8B4012AD8B4022AD8B4032A081E49
:10033C00091E0A1E0B1E082AD8B4092AD8B40A2A88
:10034C00D8B40B2A44D007AE15D003BE0DD0035041
:10035C000B6E02500A6E0150096E0050086E036A53
:10036C00026A016A006AD6D7036A026A016A006AE5
:10037C00002A000C031E021E011E001E0C8EC7D785
:10038C00082AD8B4092AD8B40A2AD8B40B2A04509B
:10039C00085CD8A4BFD70550095CD8A4BBD70650BD
:1003AC000A5CD8A4B7D707500B5CD8A4B3D70B6A98
:1003BC000A6A096A086A002AD8B4012AD8B4022A3F
:1003CC00D8B4032A03AEA6D70E6A0E88FF0C0E6AA9
:0A03DC000CA001D01DDE000F12007E
:1003E600DEC004F0DFC005F004C002F005C003F073
:1003F600044A052AE0C000F0E1C001F00001E04B2C
:10040600E12B00C0E9FF01C0EAFF02C0E1FF03C023
:10041600E2FFEECFE6FF02C0E9FF03C0EAFFEE52BD
:0E04260001E0E2D7DEC000F0DFC001F01200FE
:10043400400E006E1F0E016E000E026E036E12005F
:10044400220E0C6E086A096A0A6A0B6A0C06D8B492
:100454001FD0D8900B320A320932083203320232EA
:1004640001320032D8A0F2D70C06D8B409D0045017
:1004740008260550092206500A2207500B22EAD703
:10048400045008260550092206500A2207500B2260
:02049400120054
:0E049600ACB202D00000FCD7DEC0ADFF1200F9
:1004A400250E0001DE6F000EDF6F630EE06F000E9D
:1004B400E16F97DF686B696B8B6B8C6B666B676B3B
:1004C400646B656B990EDE6F000EDF6F240EE06FB8
:1004D400000EE16F86DF8D0EDE6F000EDF6F170EEC
:0E04E400E06F000EE16F7DDF156A166A1200F0
:1004F2000001CA6BC7C0E9FFC8C0EAFFEECFC9F06E
:10050200C951000A0EE0C9C0DEF0C4DF0001CA2BE7
:10051200CA51C725E96E000EC821EA6EEECFC9F0B6
:04052200EFD71200FD
:100526000001C707C707C7C001F0C7070150000889
:1005360003E200000000F7D7000000000000000002
:04054600000012009F
:10054A00C7C0BCF0C8C0BDF0C9C000F0010E026E41
:10055A00005004E002360290FF0FFBD702C0BEF043
:10056A00021C0001C16FCAC001F0010E006E0150E9
:10057A0004E000360090FF0FFBD7000100C0C0F076
:10058A00001E00C0BFF0120EC725E96E000EC8217A
:10059A00EA6E0250EF120050EF16BB6BCF53D8A48D
:1005AA00BB1F120EE95EBB51000A03E0BF51EF16F2
:1005BA0002D0C051EF1239DFE80E046E030E056E49
:1005CA00000E066E076E39DF00C0DAF001C0DBF0FC
:1005DA0002C0DCF003C0DDF0DAC0D0F0DBC0D1F03D
:1005EA00DCC0D2F0DDC0D3F0CBC000F0CCC001F04B
:1005FA00CDC002F0CEC003F00036009001360236BC
:10060A000336003600900136023603360A0E046EAF
:10061A00000E056E066E076E10DF00C0D4F001C032
:10062A00D5F002C0D6F003C0D7F000C004F001C074
:10063A0005F002C006F003C007F0DAC000F0DBC024
:10064A0001F0DCC002F0DDC003F01BDE00C0D8F010
:10065A0001C0D9F001C004F0056A0450051003E096
:10066A00020E006E51D0D8C0AAF0D4C004F0D5C092
:10067A0005F0D6C006F0D7C007F0D0C000F0D1C050
:10068A0001F0D2C002F0D3C003F0FBDD08C000F0D5
:10069A0009C001F00AC002F00BC003F000C0D0F09C
:1006AA0001C0D1F002C0D2F003C0D3F0D4C005F02B
:1006BA00D5C006F0D6C007F0D7C008F00832073216
:1006CA0006320532089E08BC088E800E0818046E91
:1006DA00800E0318045C08E10250075C05E1015032
:1006EA00065C02E10050055C02E20001AA2BAAC0E6
:1006FA0001F00132019E01C0A9F0070E015C03E27C
:0A070A00010E006E01D0006A12001B
:10071400960E0001AB6F040EAC6FDE0EAD6F000ED3
:10072400AE6FFF0EB76FFF0EB86F000EB96F000EFD
:10073400BA6FFF0EB36FFF0EB46F000EB56F000EED
:10074400B66FFF0EAF6FFF0EB06F000EB16F000EED
:10075400B26FAC8A900EAB6E948E949C9EAA03D01A
:08076400AECF00F0FBD712003C
:10076C000900F5CFE6FF0006FBE10106F9E11200F6
:10077C00830E0001C76F0F0EC86F070EC96F060EF0
:10078C00CA6F800ECB6F250ECC6F000ECD6FCE6F67
:10079C00CF6BD5DE00C0C2F00050000809E2840E19
:1007AC000001C76F000EC86F9EDEC2C0DEF06DDEAA
:1007BC00020E0B6E040E0C6EBA0E0D6E0D2EFED7C5
:1007CC000C2EFCD70B2EFAD700000B0E0B6E260E40
:1007DC000C6E5D0E0D6E0D2EFED70C2EFCD70B2E57
:0807EC00FAD700000000120022
:1007F400C3C0E1FFC4C0E2FFE66A010E0001C66F98
:10080400C56BA891BCC0E9FFBDC0EAFFBB51000A9B
:1008140013E1BE51EF14016E0150000A0CE0A8A1CF
:1008240009D0C3C0E1FFC4C0E2FFFF0EE66EC5C03D
:1008340000F058D0EED712D0BE51EF14016E015023
:10084400000A0CE1A8A109D0C3C0E1FFC4C0E2FFC3
:10085400FF0EE66EC5C000F045D0EED7A9C0C7F0C4
:1008640060DEAAC0C7F05DDEC65315E0BE51EF14CA
:10087400016E0150000A02E0C651C513C637C69185
:10088400020EAA5DC76F4DDE0000000000000000EC
:1008940000000000E9D7BB51000A10E1BE51EF147B
:1008A400016E0150000A010ED8A4000E006EC3C0F0
:1008B400E1FFC4C0E2FF00C0E6FF0FD0BE51EF1459
:1008C400016E0150000A000ED8A4010E006EC3C0D0
:1008D400E1FFC4C0E2FF00C0E6FFBB51C519006ED2
:0608E40000C0C5F0120087
:1008EA00020E00018B6F000E8C6F710EC76F000E27
:1008FA00C86FFADD060E616F000E626F800E621914
:10090A00006E800E005C02E1130E615D29E2770E33
:10091A002A6E060E615D006E000E6259016E990E16
:10092A000024E16E000E0120E26E250E6125E96EBB
:10093A00000E6221EA6EEECFE6FF060E615D006EE2
:10094A00000E6259016E990E0024E96E000E012014
:10095A00EA6EEECFDEF09ADD0001614B622BCED754
:10096A000A0EDE6F93DD0D0E0001DE6F8FDD95DD61
:02097A00120069
:10097C004CEC05F0B886B06ACF0EAF6EAC84C4DE1A
:10098C00020E0B6E040E0C6EBA0E0D6E0D2EFED7F3
:10099C000C2EFCD70B2EFAD70000EADE0001976B69
:1009AC001A0EC76F000EC86F9EDD180EC76F000EB3
:1009BC00C86F99DD000E8C1902E1020E8B1929E02B
:1009CC00C20EC36F000EC46F0FDF00C098F0C2538D
:1009DC0006E06B0EC76F000EC86F85DD19D0250EB3
:1009EC00E16E000EE26E9751E126D8B0E22A98C073
:1009FC00E6FF972B98510D0A0BE1976B70DF250ED4
:100A0C00DE6F000EDF6F6A0EE06F000EE16FE5DC4B
:040A1C00D1D7FFD758
:100A980010EE15F0780E006E010E016E200EF66E47
:0E0AA8000A0EF76E000EF86EB6EC03F01200A8
:020A20000000D4
:010A220000D3
:020A23000D00C4
:0A0A2500526563656976656421007F
:010A2F0000C6
:100A300000000000000000000000000000000000B6
:100A400000000000000000000000000000000000A6
:100A50000000000000000000000000000000000096
:0C0A60000000000000000000000000008A
:020A6C00000088
:010A6E000087
:020A6F00000085
:020A7100000083
:020A7300000081
:010A75000080
:060A76004572726F720070
:100A7C004E65772041646D696E204E756D626572AE
:030A8C003A20000D
:070A8F004641494C210D0016
:020A960000005E
:020000040030CA
:0E000000000C1F1EFF8181FF0FC00FE00F409C
:00000001FF
